{
  "address": "0xE4b9EBBe9E25B82248C919C6Cd0F5464446e51f9",
  "abi": [
    {
      "anonymous": false,
      "inputs": [
        {
          "indexed": true,
          "internalType": "address",
          "name": "tokenAddress",
          "type": "address"
        },
        {
          "indexed": false,
          "internalType": "uint256",
          "name": "tokenId",
          "type": "uint256"
        },
        {
          "indexed": false,
          "internalType": "uint256",
          "name": "rarityValue",
          "type": "uint256"
        }
      ],
      "name": "NftRarityStored",
      "type": "event"
    },
    {
      "anonymous": false,
      "inputs": [
        {
          "indexed": true,
          "internalType": "address",
          "name": "previousOwner",
          "type": "address"
        },
        {
          "indexed": true,
          "internalType": "address",
          "name": "newOwner",
          "type": "address"
        }
      ],
      "name": "OwnershipTransferred",
      "type": "event"
    },
    {
      "inputs": [
        {
          "internalType": "address",
          "name": "tokenAddress",
          "type": "address"
        },
        {
          "internalType": "uint256",
          "name": "tokenId",
          "type": "uint256"
        }
      ],
      "name": "getNftRarity",
      "outputs": [
        {
          "internalType": "uint8",
          "name": "",
          "type": "uint8"
        }
      ],
      "stateMutability": "view",
      "type": "function"
    },
    {
      "inputs": [],
      "name": "owner",
      "outputs": [
        {
          "internalType": "address",
          "name": "",
          "type": "address"
        }
      ],
      "stateMutability": "view",
      "type": "function"
    },
    {
      "inputs": [],
      "name": "renounceOwnership",
      "outputs": [],
      "stateMutability": "nonpayable",
      "type": "function"
    },
    {
      "inputs": [
        {
          "internalType": "address",
          "name": "tokenAddress",
          "type": "address"
        },
        {
          "internalType": "uint256",
          "name": "tokenId",
          "type": "uint256"
        },
        {
          "internalType": "uint8",
          "name": "rarityValue",
          "type": "uint8"
        }
      ],
      "name": "storeNftRarity",
      "outputs": [],
      "stateMutability": "nonpayable",
      "type": "function"
    },
    {
      "inputs": [
        {
          "internalType": "address",
          "name": "newOwner",
          "type": "address"
        }
      ],
      "name": "transferOwnership",
      "outputs": [],
      "stateMutability": "nonpayable",
      "type": "function"
    }
  ],
  "transactionHash": "0x4314e42e371b9841aa62d9f95b5aa52e65f908bede571dddf59bc48403b1e948",
  "args": [],
  "solcInputHash": "9ed73cb8aea12ac13912a00e2d28ba22",
  "bytecode": "0x608060405234801561001057600080fd5b5061002d61002261003260201b60201c565b61003a60201b60201c565b6100fe565b600033905090565b60008060009054906101000a900473ffffffffffffffffffffffffffffffffffffffff169050816000806101000a81548173ffffffffffffffffffffffffffffffffffffffff021916908373ffffffffffffffffffffffffffffffffffffffff1602179055508173ffffffffffffffffffffffffffffffffffffffff168173ffffffffffffffffffffffffffffffffffffffff167f8be0079c531659141344cd1fd0a4f28419497f9722a3daafe3b4186f6b6457e060405160405180910390a35050565b610af68061010d6000396000f3fe608060405234801561001057600080fd5b50600436106100575760003560e01c8063715018a61461005c5780638da5cb5b14610066578063f2fde38b14610084578063f9114e75146100a0578063fe6f249b146100bc575b600080fd5b6100646100ec565b005b61006e610174565b60405161007b9190610910565b60405180910390f35b61009e60048036038101906100999190610648565b61019d565b005b6100ba60048036038101906100b591906106ad565b610295565b005b6100d660048036038101906100d19190610671565b6104d5565b6040516100e391906109f4565b60405180910390f35b6100f461053d565b73ffffffffffffffffffffffffffffffffffffffff16610112610174565b73ffffffffffffffffffffffffffffffffffffffff1614610168576040517f08c379a000000000000000000000000000000000000000000000000000000000815260040161015f9061096b565b60405180910390fd5b6101726000610545565b565b60008060009054906101000a900473ffffffffffffffffffffffffffffffffffffffff16905090565b6101a561053d565b73ffffffffffffffffffffffffffffffffffffffff166101c3610174565b73ffffffffffffffffffffffffffffffffffffffff1614610219576040517f08c379a00000000000000000000000000000000000000000000000000000000081526004016102109061096b565b60405180910390fd5b600073ffffffffffffffffffffffffffffffffffffffff168173ffffffffffffffffffffffffffffffffffffffff161415610289576040517f08c379a00000000000000000000000000000000000000000000000000000000081526004016102809061092b565b60405180910390fd5b61029281610545565b50565b61029d61053d565b73ffffffffffffffffffffffffffffffffffffffff166102bb610174565b73ffffffffffffffffffffffffffffffffffffffff1614610311576040517f08c379a00000000000000000000000000000000000000000000000000000000081526004016103089061096b565b60405180910390fd5b600073ffffffffffffffffffffffffffffffffffffffff168373ffffffffffffffffffffffffffffffffffffffff161415610381576040517f08c379a00000000000000000000000000000000000000000000000000000000081526004016103789061098b565b60405180910390fd5b600061038d84846104d5565b60ff16146103d0576040517f08c379a00000000000000000000000000000000000000000000000000000000081526004016103c79061094b565b60405180910390fd5b60648160ff161015610417576040517f08c379a000000000000000000000000000000000000000000000000000000000815260040161040e906109ab565b60405180910390fd5b80600160008573ffffffffffffffffffffffffffffffffffffffff1673ffffffffffffffffffffffffffffffffffffffff168152602001908152602001600020600084815260200190815260200160002060006101000a81548160ff021916908360ff1602179055508273ffffffffffffffffffffffffffffffffffffffff167ff4663b0b6e20f8fcb67c9372ca6b0977c80f263a4f57cdb8f47ffa9ef1e38a0183836040516104c89291906109cb565b60405180910390a2505050565b6000600160008473ffffffffffffffffffffffffffffffffffffffff1673ffffffffffffffffffffffffffffffffffffffff168152602001908152602001600020600083815260200190815260200160002060009054906101000a900460ff16905092915050565b600033905090565b60008060009054906101000a900473ffffffffffffffffffffffffffffffffffffffff169050816000806101000a81548173ffffffffffffffffffffffffffffffffffffffff021916908373ffffffffffffffffffffffffffffffffffffffff1602179055508173ffffffffffffffffffffffffffffffffffffffff168173ffffffffffffffffffffffffffffffffffffffff167f8be0079c531659141344cd1fd0a4f28419497f9722a3daafe3b4186f6b6457e060405160405180910390a35050565b60008135905061061881610a7b565b92915050565b60008135905061062d81610a92565b92915050565b60008135905061064281610aa9565b92915050565b60006020828403121561065a57600080fd5b600061066884828501610609565b91505092915050565b6000806040838503121561068457600080fd5b600061069285828601610609565b92505060206106a38582860161061e565b9150509250929050565b6000806000606084860312156106c257600080fd5b60006106d086828701610609565b93505060206106e18682870161061e565b92505060406106f286828701610633565b9150509250925092565b61070581610a20565b82525050565b6000610718602683610a0f565b91507f4f776e61626c653a206e6577206f776e657220697320746865207a65726f206160008301527f64647265737300000000000000000000000000000000000000000000000000006020830152604082019050919050565b600061077e602f83610a0f565b91507f4e465452617269747952656769737465723a2052617269747920616c7265616460008301527f792073657420666f7220746f6b656e00000000000000000000000000000000006020830152604082019050919050565b60006107e4602083610a0f565b91507f4f776e61626c653a2063616c6c6572206973206e6f7420746865206f776e65726000830152602082019050919050565b6000610824602b83610a0f565b91507f4e465452617269747952656769737465723a20546f6b656e206164647265737360008301527f20697320696e76616c69640000000000000000000000000000000000000000006020830152604082019050919050565b600061088a602d83610a0f565b91507f4e465452617269747952656769737465723a2056616c7565206d75737420626560008301527f206174206c6561737420313030000000000000000000000000000000000000006020830152604082019050919050565b6108ec81610a52565b82525050565b6108fb81610a69565b82525050565b61090a81610a5c565b82525050565b600060208201905061092560008301846106fc565b92915050565b600060208201905081810360008301526109448161070b565b9050919050565b6000602082019050818103600083015261096481610771565b9050919050565b60006020820190508181036000830152610984816107d7565b9050919050565b600060208201905081810360008301526109a481610817565b9050919050565b600060208201905081810360008301526109c48161087d565b9050919050565b60006040820190506109e060008301856108e3565b6109ed60208301846108f2565b9392505050565b6000602082019050610a096000830184610901565b92915050565b600082825260208201905092915050565b6000610a2b82610a32565b9050919050565b600073ffffffffffffffffffffffffffffffffffffffff82169050919050565b6000819050919050565b600060ff82169050919050565b6000610a7482610a5c565b9050919050565b610a8481610a20565b8114610a8f57600080fd5b50565b610a9b81610a52565b8114610aa657600080fd5b50565b610ab281610a5c565b8114610abd57600080fd5b5056fea2646970667358221220736596d9379d3cab42d285dc09f9ebe563904c1e42737319fcaaf3a7b6bf79bb64736f6c63430008000033",
  "devdoc": {
    "author": "Gilbert Kim @gilbertk422",
    "kind": "dev",
    "methods": {
      "getNftRarity(address,uint256)": {
        "details": "Get the rarity of a given NFT",
        "params": {
          "tokenAddress": "The NFT smart contract address e.g., ERC-721 standard contract",
          "tokenId": "The NFT's unique token id"
        },
        "returns": {
          "_0": "The the rarity of a given NFT address and id unique combination and timestamp"
        }
      },
      "owner()": {
        "details": "Returns the address of the current owner."
      },
      "renounceOwnership()": {
        "details": "Leaves the contract without owner. It will not be possible to call `onlyOwner` functions anymore. Can only be called by the current owner. NOTE: Renouncing ownership will leave the contract without an owner, thereby removing any functionality that is only available to the owner."
      },
      "storeNftRarity(address,uint256,uint8)": {
        "details": "Store the rarity of a given NFT",
        "params": {
          "rarityValue": "The rarity of a given NFT address and id unique combination using percentage i.e., 100% = 1000 to correct for precision and to save gas required when converting from category, e.g., high, medium, low to percentage in staking contract can apply rarityValue on interests directly after fetching",
          "tokenAddress": "The NFT smart contract address e.g., ERC-721 standard contract",
          "tokenId": "The NFT's unique token id"
        }
      },
      "transferOwnership(address)": {
        "details": "Transfers ownership of the contract to a new account (`newOwner`). Can only be called by the current owner."
      }
    },
    "title": "Registry holding the rarity value of a given NFT.",
    "version": 1
  },
  "userdoc": {
    "events": {
      "NftRarityStored(address,uint256,uint256)": {
        "notice": "The Staking SC allows to stake Prizes won via lottery which can be used to increase the APY of staked tokens according to the rarity of NFT staked. For this reason, we need to hold a table that the Staking SC can query and get back the rarity value of a given NFT price (even the ones in the past)."
      }
    },
    "kind": "user",
    "methods": {},
    "version": 1
  },
  "storageLayout": {
    "storage": [
      {
        "astId": 589,
        "contract": "contracts/NFTRarityRegister/NFTRarityRegister.sol:NFTRarityRegister",
        "label": "_owner",
        "offset": 0,
        "slot": "0",
        "type": "t_address"
      },
      {
        "astId": 6236,
        "contract": "contracts/NFTRarityRegister/NFTRarityRegister.sol:NFTRarityRegister",
        "label": "rarityRegister",
        "offset": 0,
        "slot": "1",
        "type": "t_mapping(t_address,t_mapping(t_uint256,t_uint8))"
      }
    ],
    "types": {
      "t_address": {
        "encoding": "inplace",
        "label": "address",
        "numberOfBytes": "20"
      },
      "t_mapping(t_address,t_mapping(t_uint256,t_uint8))": {
        "encoding": "mapping",
        "key": "t_address",
        "label": "mapping(address => mapping(uint256 => uint8))",
        "numberOfBytes": "32",
        "value": "t_mapping(t_uint256,t_uint8)"
      },
      "t_mapping(t_uint256,t_uint8)": {
        "encoding": "mapping",
        "key": "t_uint256",
        "label": "mapping(uint256 => uint8)",
        "numberOfBytes": "32",
        "value": "t_uint8"
      },
      "t_uint256": {
        "encoding": "inplace",
        "label": "uint256",
        "numberOfBytes": "32"
      },
      "t_uint8": {
        "encoding": "inplace",
        "label": "uint8",
        "numberOfBytes": "1"
      }
    }
  }
}