{
  "address": "0xC26A4B250f2c4130B3b98b2cedb9C0b96272fd40",
  "abi": [
    {
      "inputs": [
        {
          "internalType": "string",
          "name": "uri_",
          "type": "string"
        }
      ],
      "stateMutability": "nonpayable",
      "type": "constructor"
    },
    {
      "anonymous": false,
      "inputs": [
        {
          "indexed": true,
          "internalType": "address",
          "name": "account",
          "type": "address"
        },
        {
          "indexed": true,
          "internalType": "address",
          "name": "operator",
          "type": "address"
        },
        {
          "indexed": false,
          "internalType": "bool",
          "name": "approved",
          "type": "bool"
        }
      ],
      "name": "ApprovalForAll",
      "type": "event"
    },
    {
      "anonymous": false,
      "inputs": [
        {
          "indexed": true,
          "internalType": "address",
          "name": "account",
          "type": "address"
        },
        {
          "indexed": false,
          "internalType": "string",
          "name": "minterOf",
          "type": "string"
        }
      ],
      "name": "MinterAdded",
      "type": "event"
    },
    {
      "anonymous": false,
      "inputs": [
        {
          "indexed": true,
          "internalType": "address",
          "name": "account",
          "type": "address"
        },
        {
          "indexed": false,
          "internalType": "string",
          "name": "minterOf",
          "type": "string"
        }
      ],
      "name": "MinterRemoved",
      "type": "event"
    },
    {
      "anonymous": false,
      "inputs": [
        {
          "indexed": true,
          "internalType": "bytes32",
          "name": "role",
          "type": "bytes32"
        },
        {
          "indexed": true,
          "internalType": "bytes32",
          "name": "previousAdminRole",
          "type": "bytes32"
        },
        {
          "indexed": true,
          "internalType": "bytes32",
          "name": "newAdminRole",
          "type": "bytes32"
        }
      ],
      "name": "RoleAdminChanged",
      "type": "event"
    },
    {
      "anonymous": false,
      "inputs": [
        {
          "indexed": true,
          "internalType": "bytes32",
          "name": "role",
          "type": "bytes32"
        },
        {
          "indexed": true,
          "internalType": "address",
          "name": "account",
          "type": "address"
        },
        {
          "indexed": true,
          "internalType": "address",
          "name": "sender",
          "type": "address"
        }
      ],
      "name": "RoleGranted",
      "type": "event"
    },
    {
      "anonymous": false,
      "inputs": [
        {
          "indexed": true,
          "internalType": "bytes32",
          "name": "role",
          "type": "bytes32"
        },
        {
          "indexed": true,
          "internalType": "address",
          "name": "account",
          "type": "address"
        },
        {
          "indexed": true,
          "internalType": "address",
          "name": "sender",
          "type": "address"
        }
      ],
      "name": "RoleRevoked",
      "type": "event"
    },
    {
      "anonymous": false,
      "inputs": [
        {
          "indexed": true,
          "internalType": "address",
          "name": "operator",
          "type": "address"
        },
        {
          "indexed": true,
          "internalType": "address",
          "name": "from",
          "type": "address"
        },
        {
          "indexed": true,
          "internalType": "address",
          "name": "to",
          "type": "address"
        },
        {
          "indexed": false,
          "internalType": "uint256[]",
          "name": "ids",
          "type": "uint256[]"
        },
        {
          "indexed": false,
          "internalType": "uint256[]",
          "name": "values",
          "type": "uint256[]"
        }
      ],
      "name": "TransferBatch",
      "type": "event"
    },
    {
      "anonymous": false,
      "inputs": [
        {
          "indexed": true,
          "internalType": "address",
          "name": "operator",
          "type": "address"
        },
        {
          "indexed": true,
          "internalType": "address",
          "name": "from",
          "type": "address"
        },
        {
          "indexed": true,
          "internalType": "address",
          "name": "to",
          "type": "address"
        },
        {
          "indexed": false,
          "internalType": "uint256",
          "name": "id",
          "type": "uint256"
        },
        {
          "indexed": false,
          "internalType": "uint256",
          "name": "value",
          "type": "uint256"
        }
      ],
      "name": "TransferSingle",
      "type": "event"
    },
    {
      "anonymous": false,
      "inputs": [
        {
          "indexed": false,
          "internalType": "string",
          "name": "value",
          "type": "string"
        },
        {
          "indexed": true,
          "internalType": "uint256",
          "name": "id",
          "type": "uint256"
        }
      ],
      "name": "URI",
      "type": "event"
    },
    {
      "inputs": [],
      "name": "DEFAULT_ADMIN_ROLE",
      "outputs": [
        {
          "internalType": "bytes32",
          "name": "",
          "type": "bytes32"
        }
      ],
      "stateMutability": "view",
      "type": "function"
    },
    {
      "inputs": [],
      "name": "MINTER_ROLE",
      "outputs": [
        {
          "internalType": "bytes32",
          "name": "",
          "type": "bytes32"
        }
      ],
      "stateMutability": "view",
      "type": "function"
    },
    {
      "inputs": [
        {
          "internalType": "address",
          "name": "account",
          "type": "address"
        }
      ],
      "name": "addMinter",
      "outputs": [],
      "stateMutability": "nonpayable",
      "type": "function"
    },
    {
      "inputs": [
        {
          "internalType": "address",
          "name": "account",
          "type": "address"
        },
        {
          "internalType": "uint256",
          "name": "id",
          "type": "uint256"
        }
      ],
      "name": "balanceOf",
      "outputs": [
        {
          "internalType": "uint256",
          "name": "",
          "type": "uint256"
        }
      ],
      "stateMutability": "view",
      "type": "function"
    },
    {
      "inputs": [
        {
          "internalType": "address[]",
          "name": "accounts",
          "type": "address[]"
        },
        {
          "internalType": "uint256[]",
          "name": "ids",
          "type": "uint256[]"
        }
      ],
      "name": "balanceOfBatch",
      "outputs": [
        {
          "internalType": "uint256[]",
          "name": "",
          "type": "uint256[]"
        }
      ],
      "stateMutability": "view",
      "type": "function"
    },
    {
      "inputs": [
        {
          "internalType": "bytes32",
          "name": "role",
          "type": "bytes32"
        }
      ],
      "name": "getRoleAdmin",
      "outputs": [
        {
          "internalType": "bytes32",
          "name": "",
          "type": "bytes32"
        }
      ],
      "stateMutability": "view",
      "type": "function"
    },
    {
      "inputs": [
        {
          "internalType": "bytes32",
          "name": "role",
          "type": "bytes32"
        },
        {
          "internalType": "address",
          "name": "account",
          "type": "address"
        }
      ],
      "name": "grantRole",
      "outputs": [],
      "stateMutability": "nonpayable",
      "type": "function"
    },
    {
      "inputs": [
        {
          "internalType": "bytes32",
          "name": "role",
          "type": "bytes32"
        },
        {
          "internalType": "address",
          "name": "account",
          "type": "address"
        }
      ],
      "name": "hasRole",
      "outputs": [
        {
          "internalType": "bool",
          "name": "",
          "type": "bool"
        }
      ],
      "stateMutability": "view",
      "type": "function"
    },
    {
      "inputs": [
        {
          "internalType": "address",
          "name": "account",
          "type": "address"
        },
        {
          "internalType": "address",
          "name": "operator",
          "type": "address"
        }
      ],
      "name": "isApprovedForAll",
      "outputs": [
        {
          "internalType": "bool",
          "name": "",
          "type": "bool"
        }
      ],
      "stateMutability": "view",
      "type": "function"
    },
    {
      "inputs": [
        {
          "internalType": "address",
          "name": "account",
          "type": "address"
        }
      ],
      "name": "isMinter",
      "outputs": [
        {
          "internalType": "bool",
          "name": "",
          "type": "bool"
        }
      ],
      "stateMutability": "view",
      "type": "function"
    },
    {
      "inputs": [
        {
          "internalType": "address",
          "name": "to",
          "type": "address"
        },
        {
          "internalType": "uint256",
          "name": "tokenId",
          "type": "uint256"
        },
        {
          "internalType": "uint256",
          "name": "amount",
          "type": "uint256"
        }
      ],
      "name": "mint",
      "outputs": [],
      "stateMutability": "nonpayable",
      "type": "function"
    },
    {
      "inputs": [],
      "name": "minterOf",
      "outputs": [
        {
          "internalType": "string",
          "name": "",
          "type": "string"
        }
      ],
      "stateMutability": "view",
      "type": "function"
    },
    {
      "inputs": [
        {
          "internalType": "address",
          "name": "minter",
          "type": "address"
        }
      ],
      "name": "removeMinter",
      "outputs": [],
      "stateMutability": "nonpayable",
      "type": "function"
    },
    {
      "inputs": [],
      "name": "renounceMinter",
      "outputs": [],
      "stateMutability": "nonpayable",
      "type": "function"
    },
    {
      "inputs": [
        {
          "internalType": "bytes32",
          "name": "role",
          "type": "bytes32"
        },
        {
          "internalType": "address",
          "name": "account",
          "type": "address"
        }
      ],
      "name": "renounceRole",
      "outputs": [],
      "stateMutability": "nonpayable",
      "type": "function"
    },
    {
      "inputs": [
        {
          "internalType": "bytes32",
          "name": "role",
          "type": "bytes32"
        },
        {
          "internalType": "address",
          "name": "account",
          "type": "address"
        }
      ],
      "name": "revokeRole",
      "outputs": [],
      "stateMutability": "nonpayable",
      "type": "function"
    },
    {
      "inputs": [
        {
          "internalType": "address",
          "name": "from",
          "type": "address"
        },
        {
          "internalType": "address",
          "name": "to",
          "type": "address"
        },
        {
          "internalType": "uint256[]",
          "name": "ids",
          "type": "uint256[]"
        },
        {
          "internalType": "uint256[]",
          "name": "amounts",
          "type": "uint256[]"
        },
        {
          "internalType": "bytes",
          "name": "data",
          "type": "bytes"
        }
      ],
      "name": "safeBatchTransferFrom",
      "outputs": [],
      "stateMutability": "nonpayable",
      "type": "function"
    },
    {
      "inputs": [
        {
          "internalType": "address",
          "name": "from",
          "type": "address"
        },
        {
          "internalType": "address",
          "name": "to",
          "type": "address"
        },
        {
          "internalType": "uint256",
          "name": "id",
          "type": "uint256"
        },
        {
          "internalType": "uint256",
          "name": "amount",
          "type": "uint256"
        },
        {
          "internalType": "bytes",
          "name": "data",
          "type": "bytes"
        }
      ],
      "name": "safeTransferFrom",
      "outputs": [],
      "stateMutability": "nonpayable",
      "type": "function"
    },
    {
      "inputs": [
        {
          "internalType": "address",
          "name": "operator",
          "type": "address"
        },
        {
          "internalType": "bool",
          "name": "approved",
          "type": "bool"
        }
      ],
      "name": "setApprovalForAll",
      "outputs": [],
      "stateMutability": "nonpayable",
      "type": "function"
    },
    {
      "inputs": [
        {
          "internalType": "bytes4",
          "name": "interfaceId",
          "type": "bytes4"
        }
      ],
      "name": "supportsInterface",
      "outputs": [
        {
          "internalType": "bool",
          "name": "",
          "type": "bool"
        }
      ],
      "stateMutability": "view",
      "type": "function"
    },
    {
      "inputs": [
        {
          "internalType": "uint256",
          "name": "",
          "type": "uint256"
        }
      ],
      "name": "uri",
      "outputs": [
        {
          "internalType": "string",
          "name": "",
          "type": "string"
        }
      ],
      "stateMutability": "view",
      "type": "function"
    }
  ],
  "transactionHash": "0x995bbada425e3c7447726838ab243407156a621ca6fcd066d75b5b1c594d4ace",
  "args": [
    "https://example.com"
  ],
  "solcInputHash": "9ed73cb8aea12ac13912a00e2d28ba22",
  "bytecode": "0x60806040523480156200001157600080fd5b506040516200407f3803806200407f833981810160405281019062000037919062000467565b336040518060400160405280601281526020017f425552505f524146464c455f5449434b45540000000000000000000000000000815250826200008081620001ae60201b60201c565b50600073ffffffffffffffffffffffffffffffffffffffff168273ffffffffffffffffffffffffffffffffffffffff161415620000f4576040517f08c379a0000000000000000000000000000000000000000000000000000000008152600401620000eb90620005c4565b60405180910390fd5b80600490805190602001906200010c92919062000345565b50620001226000801b83620001ca60201b60201c565b620001547f9f2df0fed2c77648de5860a4cc508cd0818c85b8b8a1ab4ceeef8d981c8956a683620001ca60201b60201c565b8173ffffffffffffffffffffffffffffffffffffffff167facf1921979e1bd89a28b7c5a40cab173d71ea3f152c3c1fa85b16b0959ab37f860046040516200019d9190620005a0565b60405180910390a25050506200073d565b8060029080519060200190620001c692919062000345565b5050565b620001dc8282620001e060201b60201c565b5050565b620001f28282620002d260201b60201c565b620002ce5760016003600084815260200190815260200160002060000160008373ffffffffffffffffffffffffffffffffffffffff1673ffffffffffffffffffffffffffffffffffffffff16815260200190815260200160002060006101000a81548160ff021916908315150217905550620002736200033d60201b60201c565b73ffffffffffffffffffffffffffffffffffffffff168173ffffffffffffffffffffffffffffffffffffffff16837f2f8788117e7eff1d82e926ec794901d17c78024a50270940304540a733656f0d60405160405180910390a45b5050565b60006003600084815260200190815260200160002060000160008373ffffffffffffffffffffffffffffffffffffffff1673ffffffffffffffffffffffffffffffffffffffff16815260200190815260200160002060009054906101000a900460ff16905092915050565b600033905090565b8280546200035390620006a9565b90600052602060002090601f016020900481019282620003775760008555620003c3565b82601f106200039257805160ff1916838001178555620003c3565b82800160010185558215620003c3579182015b82811115620003c2578251825591602001919060010190620003a5565b5b509050620003d29190620003d6565b5090565b5b80821115620003f1576000816000905550600101620003d7565b5090565b60006200040c62000406846200061a565b620005e6565b9050828152602081018484840111156200042557600080fd5b6200043284828562000673565b509392505050565b600082601f8301126200044c57600080fd5b81516200045e848260208601620003f5565b91505092915050565b6000602082840312156200047a57600080fd5b600082015167ffffffffffffffff8111156200049557600080fd5b620004a3848285016200043a565b91505092915050565b60008154620004bb81620006a9565b620004c7818662000662565b94506001821660008114620004e55760018114620004f8576200052f565b60ff19831686526020860193506200052f565b62000503856200064d565b60005b83811015620005275781548189015260018201915060208101905062000506565b808801955050505b50505092915050565b60006200054760258362000662565b91507f4d61696e206d696e7465722073686f756c6420626520612076616c696420616460008301527f64726573730000000000000000000000000000000000000000000000000000006020830152604082019050919050565b60006020820190508181036000830152620005bc8184620004ac565b905092915050565b60006020820190508181036000830152620005df8162000538565b9050919050565b6000604051905081810181811067ffffffffffffffff8211171562000610576200060f6200070e565b5b8060405250919050565b600067ffffffffffffffff8211156200063857620006376200070e565b5b601f19601f8301169050602081019050919050565b60008190508160005260206000209050919050565b600082825260208201905092915050565b60005b838110156200069357808201518184015260208101905062000676565b83811115620006a3576000848401525b50505050565b60006002820490506001821680620006c257607f821691505b60208210811415620006d957620006d8620006df565b5b50919050565b7f4e487b7100000000000000000000000000000000000000000000000000000000600052602260045260246000fd5b7f4e487b7100000000000000000000000000000000000000000000000000000000600052604160045260246000fd5b613932806200074d6000396000f3fe608060405234801561001057600080fd5b50600436106101365760003560e01c806391d14854116100b8578063aa271e1a1161007c578063aa271e1a14610347578063c75856de14610377578063d539139314610395578063d547741f146103b3578063e985e9c5146103cf578063f242432a146103ff57610136565b806391d14854146102b7578063983b2d56146102e75780639865027514610303578063a217fddf1461030d578063a22cb4651461032b57610136565b80632eb2c2d6116100ff5780632eb2c2d6146102175780632f2ff15d146102335780633092afd51461024f57806336568abe1461026b5780634e1273f41461028757610136565b8062fdd58e1461013b57806301ffc9a71461016b5780630e89341c1461019b578063156e29f6146101cb578063248a9ca3146101e7575b600080fd5b61015560048036038101906101509190612673565b61041b565b6040516101629190613385565b60405180910390f35b610185600480360381019061018091906127cf565b6104e4565b604051610192919061314b565b60405180910390f35b6101b560048036038101906101b09190612821565b6104f6565b6040516101c29190613181565b60405180910390f35b6101e560048036038101906101e091906126af565b61058a565b005b61020160048036038101906101fc919061276a565b610613565b60405161020e9190613166565b60405180910390f35b610231600480360381019061022c91906124e9565b610633565b005b61024d60048036038101906102489190612793565b6106d4565b005b61026960048036038101906102649190612484565b6106fd565b005b61028560048036038101906102809190612793565b610779565b005b6102a1600480360381019061029c91906126fe565b6107fc565b6040516102ae91906130f2565b60405180910390f35b6102d160048036038101906102cc9190612793565b6109ad565b6040516102de919061314b565b60405180910390f35b61030160048036038101906102fc9190612484565b610a18565b005b61030b610afd565b005b610315610b78565b6040516103229190613166565b60405180910390f35b61034560048036038101906103409190612637565b610b7f565b005b610361600480360381019061035c9190612484565b610d00565b60405161036e919061314b565b60405180910390f35b61037f610d33565b60405161038c9190613181565b60405180910390f35b61039d610dc1565b6040516103aa9190613166565b60405180910390f35b6103cd60048036038101906103c89190612793565b610de5565b005b6103e960048036038101906103e491906124ad565b610e0e565b6040516103f6919061314b565b60405180910390f35b610419600480360381019061041491906125a8565b610ea2565b005b60008073ffffffffffffffffffffffffffffffffffffffff168373ffffffffffffffffffffffffffffffffffffffff16141561048c576040517f08c379a000000000000000000000000000000000000000000000000000000000815260040161048390613225565b60405180910390fd5b60008083815260200190815260200160002060008473ffffffffffffffffffffffffffffffffffffffff1673ffffffffffffffffffffffffffffffffffffffff16815260200190815260200160002054905092915050565b60006104ef82610f43565b9050919050565b606060028054610505906136ad565b80601f0160208091040260200160405190810160405280929190818152602001828054610531906136ad565b801561057e5780601f106105535761010080835404028352916020019161057e565b820191906000526020600020905b81548152906001019060200180831161056157829003601f168201915b50505050509050919050565b6105b47f9f2df0fed2c77648de5860a4cc508cd0818c85b8b8a1ab4ceeef8d981c8956a6336109ad565b6105f3576040517f08c379a00000000000000000000000000000000000000000000000000000000081526004016105ea90613245565b60405180910390fd5b61060e83838360405180602001604052806000815250610fbd565b505050565b600060036000838152602001908152602001600020600101549050919050565b61063b611153565b73ffffffffffffffffffffffffffffffffffffffff168573ffffffffffffffffffffffffffffffffffffffff16148061068157506106808561067b611153565b610e0e565b5b6106c0576040517f08c379a00000000000000000000000000000000000000000000000000000000081526004016106b7906132a5565b60405180910390fd5b6106cd858585858561115b565b5050505050565b6106dd82610613565b6106ee816106e9611153565b6114bb565b6106f88383611558565b505050565b6107277f9f2df0fed2c77648de5860a4cc508cd0818c85b8b8a1ab4ceeef8d981c8956a682610de5565b8073ffffffffffffffffffffffffffffffffffffffff167f370ee79b82c4a867c7b5f41346c450c235c3415fa7069b06b2053c105bdd8344600460405161076e91906131a3565b60405180910390a250565b610781611153565b73ffffffffffffffffffffffffffffffffffffffff168173ffffffffffffffffffffffffffffffffffffffff16146107ee576040517f08c379a00000000000000000000000000000000000000000000000000000000081526004016107e590613365565b60405180910390fd5b6107f88282611639565b5050565b60608151835114610842576040517f08c379a000000000000000000000000000000000000000000000000000000000815260040161083990613305565b60405180910390fd5b6000835167ffffffffffffffff811115610885577f4e487b7100000000000000000000000000000000000000000000000000000000600052604160045260246000fd5b6040519080825280602002602001820160405280156108b35781602001602082028036833780820191505090505b50905060005b84518110156109a25761094c8582815181106108fe577f4e487b7100000000000000000000000000000000000000000000000000000000600052603260045260246000fd5b602002602001015185838151811061093f577f4e487b7100000000000000000000000000000000000000000000000000000000600052603260045260246000fd5b602002602001015161041b565b828281518110610985577f4e487b7100000000000000000000000000000000000000000000000000000000600052603260045260246000fd5b6020026020010181815250508061099b906136df565b90506108b9565b508091505092915050565b60006003600084815260200190815260200160002060000160008373ffffffffffffffffffffffffffffffffffffffff1673ffffffffffffffffffffffffffffffffffffffff16815260200190815260200160002060009054906101000a900460ff16905092915050565b610a427f9f2df0fed2c77648de5860a4cc508cd0818c85b8b8a1ab4ceeef8d981c8956a6336109ad565b610a81576040517f08c379a0000000000000000000000000000000000000000000000000000000008152600401610a7890613245565b60405180910390fd5b610aab7f9f2df0fed2c77648de5860a4cc508cd0818c85b8b8a1ab4ceeef8d981c8956a68261171b565b8073ffffffffffffffffffffffffffffffffffffffff167facf1921979e1bd89a28b7c5a40cab173d71ea3f152c3c1fa85b16b0959ab37f86004604051610af291906131a3565b60405180910390a250565b610b277f9f2df0fed2c77648de5860a4cc508cd0818c85b8b8a1ab4ceeef8d981c8956a633610779565b3373ffffffffffffffffffffffffffffffffffffffff167f370ee79b82c4a867c7b5f41346c450c235c3415fa7069b06b2053c105bdd83446004604051610b6e91906131a3565b60405180910390a2565b6000801b81565b8173ffffffffffffffffffffffffffffffffffffffff16610b9e611153565b73ffffffffffffffffffffffffffffffffffffffff161415610bf5576040517f08c379a0000000000000000000000000000000000000000000000000000000008152600401610bec906132e5565b60405180910390fd5b8060016000610c02611153565b73ffffffffffffffffffffffffffffffffffffffff1673ffffffffffffffffffffffffffffffffffffffff16815260200190815260200160002060008473ffffffffffffffffffffffffffffffffffffffff1673ffffffffffffffffffffffffffffffffffffffff16815260200190815260200160002060006101000a81548160ff0219169083151502179055508173ffffffffffffffffffffffffffffffffffffffff16610caf611153565b73ffffffffffffffffffffffffffffffffffffffff167f17307eab39ab6107e8899845ad3d59bd9653f200f220920489ca2b5937696c3183604051610cf4919061314b565b60405180910390a35050565b6000610d2c7f9f2df0fed2c77648de5860a4cc508cd0818c85b8b8a1ab4ceeef8d981c8956a6836109ad565b9050919050565b60048054610d40906136ad565b80601f0160208091040260200160405190810160405280929190818152602001828054610d6c906136ad565b8015610db95780601f10610d8e57610100808354040283529160200191610db9565b820191906000526020600020905b815481529060010190602001808311610d9c57829003601f168201915b505050505081565b7f9f2df0fed2c77648de5860a4cc508cd0818c85b8b8a1ab4ceeef8d981c8956a681565b610dee82610613565b610dff81610dfa611153565b6114bb565b610e098383611639565b505050565b6000600160008473ffffffffffffffffffffffffffffffffffffffff1673ffffffffffffffffffffffffffffffffffffffff16815260200190815260200160002060008373ffffffffffffffffffffffffffffffffffffffff1673ffffffffffffffffffffffffffffffffffffffff16815260200190815260200160002060009054906101000a900460ff16905092915050565b610eaa611153565b73ffffffffffffffffffffffffffffffffffffffff168573ffffffffffffffffffffffffffffffffffffffff161480610ef05750610eef85610eea611153565b610e0e565b5b610f2f576040517f08c379a0000000000000000000000000000000000000000000000000000000008152600401610f2690613265565b60405180910390fd5b610f3c8585858585611729565b5050505050565b60007f7965db0b000000000000000000000000000000000000000000000000000000007bffffffffffffffffffffffffffffffffffffffffffffffffffffffff1916827bffffffffffffffffffffffffffffffffffffffffffffffffffffffff19161480610fb65750610fb5826119ab565b5b9050919050565b600073ffffffffffffffffffffffffffffffffffffffff168473ffffffffffffffffffffffffffffffffffffffff16141561102d576040517f08c379a000000000000000000000000000000000000000000000000000000000815260040161102490613345565b60405180910390fd5b6000611037611153565b90506110588160008761104988611a8d565b61105288611a8d565b87611b53565b8260008086815260200190815260200160002060008773ffffffffffffffffffffffffffffffffffffffff1673ffffffffffffffffffffffffffffffffffffffff16815260200190815260200160002060008282546110b79190613513565b925050819055508473ffffffffffffffffffffffffffffffffffffffff16600073ffffffffffffffffffffffffffffffffffffffff168273ffffffffffffffffffffffffffffffffffffffff167fc3d58168c5ae7397731d063d5bbf3d657854427343f4c083240f7aacaa2d0f6287876040516111359291906133a0565b60405180910390a461114c81600087878787611b5b565b5050505050565b600033905090565b815183511461119f576040517f08c379a000000000000000000000000000000000000000000000000000000000815260040161119690613325565b60405180910390fd5b600073ffffffffffffffffffffffffffffffffffffffff168473ffffffffffffffffffffffffffffffffffffffff16141561120f576040517f08c379a000000000000000000000000000000000000000000000000000000000815260040161120690613285565b60405180910390fd5b6000611219611153565b9050611229818787878787611b53565b60005b8451811015611426576000858281518110611270577f4e487b7100000000000000000000000000000000000000000000000000000000600052603260045260246000fd5b6020026020010151905060008583815181106112b5577f4e487b7100000000000000000000000000000000000000000000000000000000600052603260045260246000fd5b60200260200101519050600080600084815260200190815260200160002060008b73ffffffffffffffffffffffffffffffffffffffff1673ffffffffffffffffffffffffffffffffffffffff16815260200190815260200160002054905081811015611356576040517f08c379a000000000000000000000000000000000000000000000000000000000815260040161134d906132c5565b60405180910390fd5b81810360008085815260200190815260200160002060008c73ffffffffffffffffffffffffffffffffffffffff1673ffffffffffffffffffffffffffffffffffffffff168152602001908152602001600020819055508160008085815260200190815260200160002060008b73ffffffffffffffffffffffffffffffffffffffff1673ffffffffffffffffffffffffffffffffffffffff168152602001908152602001600020600082825461140b9190613513565b925050819055505050508061141f906136df565b905061122c565b508473ffffffffffffffffffffffffffffffffffffffff168673ffffffffffffffffffffffffffffffffffffffff168273ffffffffffffffffffffffffffffffffffffffff167f4a39dc06d4c0dbc64b70af90fd698a233a518aa5d07e595d983b8c0526c8f7fb878760405161149d929190613114565b60405180910390a46114b3818787878787611d2b565b505050505050565b6114c582826109ad565b611554576114ea8173ffffffffffffffffffffffffffffffffffffffff166014611efb565b6114f88360001c6020611efb565b604051602001611509929190612ff6565b6040516020818303038152906040526040517f08c379a000000000000000000000000000000000000000000000000000000000815260040161154b9190613181565b60405180910390fd5b5050565b61156282826109ad565b6116355760016003600084815260200190815260200160002060000160008373ffffffffffffffffffffffffffffffffffffffff1673ffffffffffffffffffffffffffffffffffffffff16815260200190815260200160002060006101000a81548160ff0219169083151502179055506115da611153565b73ffffffffffffffffffffffffffffffffffffffff168173ffffffffffffffffffffffffffffffffffffffff16837f2f8788117e7eff1d82e926ec794901d17c78024a50270940304540a733656f0d60405160405180910390a45b5050565b61164382826109ad565b156117175760006003600084815260200190815260200160002060000160008373ffffffffffffffffffffffffffffffffffffffff1673ffffffffffffffffffffffffffffffffffffffff16815260200190815260200160002060006101000a81548160ff0219169083151502179055506116bc611153565b73ffffffffffffffffffffffffffffffffffffffff168173ffffffffffffffffffffffffffffffffffffffff16837ff6391f5c32d9c69d2a47ea670b442974b53935d1edc7fd64eb21e047a839171b60405160405180910390a45b5050565b6117258282611558565b5050565b600073ffffffffffffffffffffffffffffffffffffffff168473ffffffffffffffffffffffffffffffffffffffff161415611799576040517f08c379a000000000000000000000000000000000000000000000000000000000815260040161179090613285565b60405180910390fd5b60006117a3611153565b90506117c38187876117b488611a8d565b6117bd88611a8d565b87611b53565b600080600086815260200190815260200160002060008873ffffffffffffffffffffffffffffffffffffffff1673ffffffffffffffffffffffffffffffffffffffff1681526020019081526020016000205490508381101561185a576040517f08c379a0000000000000000000000000000000000000000000000000000000008152600401611851906132c5565b60405180910390fd5b83810360008087815260200190815260200160002060008973ffffffffffffffffffffffffffffffffffffffff1673ffffffffffffffffffffffffffffffffffffffff168152602001908152602001600020819055508360008087815260200190815260200160002060008873ffffffffffffffffffffffffffffffffffffffff1673ffffffffffffffffffffffffffffffffffffffff168152602001908152602001600020600082825461190f9190613513565b925050819055508573ffffffffffffffffffffffffffffffffffffffff168773ffffffffffffffffffffffffffffffffffffffff168373ffffffffffffffffffffffffffffffffffffffff167fc3d58168c5ae7397731d063d5bbf3d657854427343f4c083240f7aacaa2d0f62888860405161198c9291906133a0565b60405180910390a46119a2828888888888611b5b565b50505050505050565b60007fd9b67a26000000000000000000000000000000000000000000000000000000007bffffffffffffffffffffffffffffffffffffffffffffffffffffffff1916827bffffffffffffffffffffffffffffffffffffffffffffffffffffffff19161480611a7657507f0e89341c000000000000000000000000000000000000000000000000000000007bffffffffffffffffffffffffffffffffffffffffffffffffffffffff1916827bffffffffffffffffffffffffffffffffffffffffffffffffffffffff1916145b80611a865750611a85826121f5565b5b9050919050565b60606000600167ffffffffffffffff811115611ad2577f4e487b7100000000000000000000000000000000000000000000000000000000600052604160045260246000fd5b604051908082528060200260200182016040528015611b005781602001602082028036833780820191505090505b5090508281600081518110611b3e577f4e487b7100000000000000000000000000000000000000000000000000000000600052603260045260246000fd5b60200260200101818152505080915050919050565b505050505050565b611b7a8473ffffffffffffffffffffffffffffffffffffffff1661225f565b15611d23578373ffffffffffffffffffffffffffffffffffffffff1663f23a6e6187878686866040518663ffffffff1660e01b8152600401611bc0959493929190613098565b602060405180830381600087803b158015611bda57600080fd5b505af1925050508015611c0b57506040513d601f19601f82011682018060405250810190611c0891906127f8565b60015b611c9a57611c176137d3565b80611c225750611c5f565b806040517f08c379a0000000000000000000000000000000000000000000000000000000008152600401611c569190613181565b60405180910390fd5b6040517f08c379a0000000000000000000000000000000000000000000000000000000008152600401611c91906131c5565b60405180910390fd5b63f23a6e6160e01b7bffffffffffffffffffffffffffffffffffffffffffffffffffffffff1916817bffffffffffffffffffffffffffffffffffffffffffffffffffffffff191614611d21576040517f08c379a0000000000000000000000000000000000000000000000000000000008152600401611d1890613205565b60405180910390fd5b505b505050505050565b611d4a8473ffffffffffffffffffffffffffffffffffffffff1661225f565b15611ef3578373ffffffffffffffffffffffffffffffffffffffff1663bc197c8187878686866040518663ffffffff1660e01b8152600401611d90959493929190613030565b602060405180830381600087803b158015611daa57600080fd5b505af1925050508015611ddb57506040513d601f19601f82011682018060405250810190611dd891906127f8565b60015b611e6a57611de76137d3565b80611df25750611e2f565b806040517f08c379a0000000000000000000000000000000000000000000000000000000008152600401611e269190613181565b60405180910390fd5b6040517f08c379a0000000000000000000000000000000000000000000000000000000008152600401611e61906131c5565b60405180910390fd5b63bc197c8160e01b7bffffffffffffffffffffffffffffffffffffffffffffffffffffffff1916817bffffffffffffffffffffffffffffffffffffffffffffffffffffffff191614611ef1576040517f08c379a0000000000000000000000000000000000000000000000000000000008152600401611ee890613205565b60405180910390fd5b505b505050505050565b606060006002836002611f0e9190613569565b611f189190613513565b67ffffffffffffffff811115611f57577f4e487b7100000000000000000000000000000000000000000000000000000000600052604160045260246000fd5b6040519080825280601f01601f191660200182016040528015611f895781602001600182028036833780820191505090505b5090507f300000000000000000000000000000000000000000000000000000000000000081600081518110611fe7577f4e487b7100000000000000000000000000000000000000000000000000000000600052603260045260246000fd5b60200101907effffffffffffffffffffffffffffffffffffffffffffffffffffffffffffff1916908160001a9053507f780000000000000000000000000000000000000000000000000000000000000081600181518110612071577f4e487b7100000000000000000000000000000000000000000000000000000000600052603260045260246000fd5b60200101907effffffffffffffffffffffffffffffffffffffffffffffffffffffffffffff1916908160001a905350600060018460026120b19190613569565b6120bb9190613513565b90505b60018111156121a7577f3031323334353637383961626364656600000000000000000000000000000000600f861660108110612123577f4e487b7100000000000000000000000000000000000000000000000000000000600052603260045260246000fd5b1a60f81b828281518110612160577f4e487b7100000000000000000000000000000000000000000000000000000000600052603260045260246000fd5b60200101907effffffffffffffffffffffffffffffffffffffffffffffffffffffffffffff1916908160001a905350600485901c9450806121a090613683565b90506120be565b50600084146121eb576040517f08c379a00000000000000000000000000000000000000000000000000000000081526004016121e2906131e5565b60405180910390fd5b8091505092915050565b60007f01ffc9a7000000000000000000000000000000000000000000000000000000007bffffffffffffffffffffffffffffffffffffffffffffffffffffffff1916827bffffffffffffffffffffffffffffffffffffffffffffffffffffffff1916149050919050565b600080823b905060008111915050919050565b6000612285612280846133fa565b6133c9565b905080838252602082019050828560208602820111156122a457600080fd5b60005b858110156122d457816122ba8882612388565b8452602084019350602083019250506001810190506122a7565b5050509392505050565b60006122f16122ec84613426565b6133c9565b9050808382526020820190508285602086028201111561231057600080fd5b60005b858110156123405781612326888261246f565b845260208401935060208301925050600181019050612313565b5050509392505050565b600061235d61235884613452565b6133c9565b90508281526020810184848401111561237557600080fd5b612380848285613641565b509392505050565b60008135905061239781613889565b92915050565b600082601f8301126123ae57600080fd5b81356123be848260208601612272565b91505092915050565b600082601f8301126123d857600080fd5b81356123e88482602086016122de565b91505092915050565b600081359050612400816138a0565b92915050565b600081359050612415816138b7565b92915050565b60008135905061242a816138ce565b92915050565b60008151905061243f816138ce565b92915050565b600082601f83011261245657600080fd5b813561246684826020860161234a565b91505092915050565b60008135905061247e816138e5565b92915050565b60006020828403121561249657600080fd5b60006124a484828501612388565b91505092915050565b600080604083850312156124c057600080fd5b60006124ce85828601612388565b92505060206124df85828601612388565b9150509250929050565b600080600080600060a0868803121561250157600080fd5b600061250f88828901612388565b955050602061252088828901612388565b945050604086013567ffffffffffffffff81111561253d57600080fd5b612549888289016123c7565b935050606086013567ffffffffffffffff81111561256657600080fd5b612572888289016123c7565b925050608086013567ffffffffffffffff81111561258f57600080fd5b61259b88828901612445565b9150509295509295909350565b600080600080600060a086880312156125c057600080fd5b60006125ce88828901612388565b95505060206125df88828901612388565b94505060406125f08882890161246f565b93505060606126018882890161246f565b925050608086013567ffffffffffffffff81111561261e57600080fd5b61262a88828901612445565b9150509295509295909350565b6000806040838503121561264a57600080fd5b600061265885828601612388565b9250506020612669858286016123f1565b9150509250929050565b6000806040838503121561268657600080fd5b600061269485828601612388565b92505060206126a58582860161246f565b9150509250929050565b6000806000606084860312156126c457600080fd5b60006126d286828701612388565b93505060206126e38682870161246f565b92505060406126f48682870161246f565b9150509250925092565b6000806040838503121561271157600080fd5b600083013567ffffffffffffffff81111561272b57600080fd5b6127378582860161239d565b925050602083013567ffffffffffffffff81111561275457600080fd5b612760858286016123c7565b9150509250929050565b60006020828403121561277c57600080fd5b600061278a84828501612406565b91505092915050565b600080604083850312156127a657600080fd5b60006127b485828601612406565b92505060206127c585828601612388565b9150509250929050565b6000602082840312156127e157600080fd5b60006127ef8482850161241b565b91505092915050565b60006020828403121561280a57600080fd5b600061281884828501612430565b91505092915050565b60006020828403121561283357600080fd5b60006128418482850161246f565b91505092915050565b60006128568383612fd8565b60208301905092915050565b61286b816135c3565b82525050565b600061287c826134a7565b61288681856134d5565b935061289183613482565b8060005b838110156128c25781516128a9888261284a565b97506128b4836134c8565b925050600181019050612895565b5085935050505092915050565b6128d8816135d5565b82525050565b6128e7816135e1565b82525050565b60006128f8826134b2565b61290281856134e6565b9350612912818560208601613650565b61291b816137b5565b840191505092915050565b6000612931826134bd565b61293b81856134f7565b935061294b818560208601613650565b612954816137b5565b840191505092915050565b600061296a826134bd565b6129748185613508565b9350612984818560208601613650565b80840191505092915050565b6000815461299d816136ad565b6129a781866134f7565b945060018216600081146129c257600181146129d457612a07565b60ff1983168652602086019350612a07565b6129dd85613492565b60005b838110156129ff578154818901526001820191506020810190506129e0565b808801955050505b50505092915050565b6000612a1d6034836134f7565b91507f455243313135353a207472616e7366657220746f206e6f6e204552433131353560008301527f526563656976657220696d706c656d656e7465720000000000000000000000006020830152604082019050919050565b6000612a836020836134f7565b91507f537472696e67733a20686578206c656e67746820696e73756666696369656e746000830152602082019050919050565b6000612ac36028836134f7565b91507f455243313135353a204552433131353552656365697665722072656a6563746560008301527f6420746f6b656e730000000000000000000000000000000000000000000000006020830152604082019050919050565b6000612b29602b836134f7565b91507f455243313135353a2062616c616e636520717565727920666f7220746865207a60008301527f65726f20616464726573730000000000000000000000000000000000000000006020830152604082019050919050565b6000612b8f6010836134f7565b91507f4f6e6c79206d696e74657220726f6c65000000000000000000000000000000006000830152602082019050919050565b6000612bcf6029836134f7565b91507f455243313135353a2063616c6c6572206973206e6f74206f776e6572206e6f7260008301527f20617070726f76656400000000000000000000000000000000000000000000006020830152604082019050919050565b6000612c356025836134f7565b91507f455243313135353a207472616e7366657220746f20746865207a65726f20616460008301527f64726573730000000000000000000000000000000000000000000000000000006020830152604082019050919050565b6000612c9b6032836134f7565b91507f455243313135353a207472616e736665722063616c6c6572206973206e6f742060008301527f6f776e6572206e6f7220617070726f76656400000000000000000000000000006020830152604082019050919050565b6000612d01602a836134f7565b91507f455243313135353a20696e73756666696369656e742062616c616e636520666f60008301527f72207472616e73666572000000000000000000000000000000000000000000006020830152604082019050919050565b6000612d67601783613508565b91507f416363657373436f6e74726f6c3a206163636f756e74200000000000000000006000830152601782019050919050565b6000612da76029836134f7565b91507f455243313135353a2073657474696e6720617070726f76616c2073746174757360008301527f20666f722073656c6600000000000000000000000000000000000000000000006020830152604082019050919050565b6000612e0d6029836134f7565b91507f455243313135353a206163636f756e747320616e6420696473206c656e67746860008301527f206d69736d6174636800000000000000000000000000000000000000000000006020830152604082019050919050565b6000612e736028836134f7565b91507f455243313135353a2069647320616e6420616d6f756e7473206c656e6774682060008301527f6d69736d617463680000000000000000000000000000000000000000000000006020830152604082019050919050565b6000612ed96021836134f7565b91507f455243313135353a206d696e7420746f20746865207a65726f2061646472657360008301527f73000000000000000000000000000000000000000000000000000000000000006020830152604082019050919050565b6000612f3f601183613508565b91507f206973206d697373696e6720726f6c65200000000000000000000000000000006000830152601182019050919050565b6000612f7f602f836134f7565b91507f416363657373436f6e74726f6c3a2063616e206f6e6c792072656e6f756e636560008301527f20726f6c657320666f722073656c6600000000000000000000000000000000006020830152604082019050919050565b612fe181613637565b82525050565b612ff081613637565b82525050565b600061300182612d5a565b915061300d828561295f565b915061301882612f32565b9150613024828461295f565b91508190509392505050565b600060a0820190506130456000830188612862565b6130526020830187612862565b81810360408301526130648186612871565b905081810360608301526130788185612871565b9050818103608083015261308c81846128ed565b90509695505050505050565b600060a0820190506130ad6000830188612862565b6130ba6020830187612862565b6130c76040830186612fe7565b6130d46060830185612fe7565b81810360808301526130e681846128ed565b90509695505050505050565b6000602082019050818103600083015261310c8184612871565b905092915050565b6000604082019050818103600083015261312e8185612871565b905081810360208301526131428184612871565b90509392505050565b600060208201905061316060008301846128cf565b92915050565b600060208201905061317b60008301846128de565b92915050565b6000602082019050818103600083015261319b8184612926565b905092915050565b600060208201905081810360008301526131bd8184612990565b905092915050565b600060208201905081810360008301526131de81612a10565b9050919050565b600060208201905081810360008301526131fe81612a76565b9050919050565b6000602082019050818103600083015261321e81612ab6565b9050919050565b6000602082019050818103600083015261323e81612b1c565b9050919050565b6000602082019050818103600083015261325e81612b82565b9050919050565b6000602082019050818103600083015261327e81612bc2565b9050919050565b6000602082019050818103600083015261329e81612c28565b9050919050565b600060208201905081810360008301526132be81612c8e565b9050919050565b600060208201905081810360008301526132de81612cf4565b9050919050565b600060208201905081810360008301526132fe81612d9a565b9050919050565b6000602082019050818103600083015261331e81612e00565b9050919050565b6000602082019050818103600083015261333e81612e66565b9050919050565b6000602082019050818103600083015261335e81612ecc565b9050919050565b6000602082019050818103600083015261337e81612f72565b9050919050565b600060208201905061339a6000830184612fe7565b92915050565b60006040820190506133b56000830185612fe7565b6133c26020830184612fe7565b9392505050565b6000604051905081810181811067ffffffffffffffff821117156133f0576133ef613786565b5b8060405250919050565b600067ffffffffffffffff82111561341557613414613786565b5b602082029050602081019050919050565b600067ffffffffffffffff82111561344157613440613786565b5b602082029050602081019050919050565b600067ffffffffffffffff82111561346d5761346c613786565b5b601f19601f8301169050602081019050919050565b6000819050602082019050919050565b60008190508160005260206000209050919050565b600081519050919050565b600081519050919050565b600081519050919050565b6000602082019050919050565b600082825260208201905092915050565b600082825260208201905092915050565b600082825260208201905092915050565b600081905092915050565b600061351e82613637565b915061352983613637565b9250827fffffffffffffffffffffffffffffffffffffffffffffffffffffffffffffffff0382111561355e5761355d613728565b5b828201905092915050565b600061357482613637565b915061357f83613637565b9250817fffffffffffffffffffffffffffffffffffffffffffffffffffffffffffffffff04831182151516156135b8576135b7613728565b5b828202905092915050565b60006135ce82613617565b9050919050565b60008115159050919050565b6000819050919050565b60007fffffffff0000000000000000000000000000000000000000000000000000000082169050919050565b600073ffffffffffffffffffffffffffffffffffffffff82169050919050565b6000819050919050565b82818337600083830152505050565b60005b8381101561366e578082015181840152602081019050613653565b8381111561367d576000848401525b50505050565b600061368e82613637565b915060008214156136a2576136a1613728565b5b600182039050919050565b600060028204905060018216806136c557607f821691505b602082108114156136d9576136d8613757565b5b50919050565b60006136ea82613637565b91507fffffffffffffffffffffffffffffffffffffffffffffffffffffffffffffffff82141561371d5761371c613728565b5b600182019050919050565b7f4e487b7100000000000000000000000000000000000000000000000000000000600052601160045260246000fd5b7f4e487b7100000000000000000000000000000000000000000000000000000000600052602260045260246000fd5b7f4e487b7100000000000000000000000000000000000000000000000000000000600052604160045260246000fd5b6000601f19601f8301169050919050565b60008160e01c9050919050565b600060443d10156137e357613886565b60046000803e6137f46000516137c6565b6308c379a081146138055750613886565b60405160043d036004823e80513d602482011167ffffffffffffffff8211171561383157505050613886565b808201805167ffffffffffffffff811115613850575050505050613886565b8060208301013d850181111561386b57505050505050613886565b613874826137b5565b60208401016040528296505050505050505b90565b613892816135c3565b811461389d57600080fd5b50565b6138a9816135d5565b81146138b457600080fd5b50565b6138c0816135e1565b81146138cb57600080fd5b50565b6138d7816135eb565b81146138e257600080fd5b50565b6138ee81613637565b81146138f957600080fd5b5056fea26469706673582212205be10d3d03eaadd0409d557e7c3616687daa601345fe3b3834c23c4abd6bb77864736f6c63430008000033",
  "devdoc": {
    "author": "@author Gilbert Kim @gilbertk422",
    "kind": "dev",
    "methods": {
      "addMinter(address)": {
        "details": "Adds a new account to the minter role",
        "params": {
          "account": "The account that will have the minter role"
        }
      },
      "balanceOf(address,uint256)": {
        "details": "See {IERC1155-balanceOf}. Requirements: - `account` cannot be the zero address."
      },
      "balanceOfBatch(address[],uint256[])": {
        "details": "See {IERC1155-balanceOfBatch}. Requirements: - `accounts` and `ids` must have the same length."
      },
      "getRoleAdmin(bytes32)": {
        "details": "Returns the admin role that controls `role`. See {grantRole} and {revokeRole}. To change a role's admin, use {_setRoleAdmin}."
      },
      "grantRole(bytes32,address)": {
        "details": "Grants `role` to `account`. If `account` had not been already granted `role`, emits a {RoleGranted} event. Requirements: - the caller must have ``role``'s admin role."
      },
      "hasRole(bytes32,address)": {
        "details": "Returns `true` if `account` has been granted `role`."
      },
      "isApprovedForAll(address,address)": {
        "details": "See {IERC1155-isApprovedForAll}."
      },
      "isMinter(address)": {
        "details": "checks if the given account is a minter",
        "params": {
          "account": "The account that will be checked"
        }
      },
      "removeMinter(address)": {
        "details": "Removes the given account from the minter role, if msg.sender is admin",
        "params": {
          "minter": "The account that will have the minter role removed"
        }
      },
      "renounceMinter()": {
        "details": "Removes the sender from the list the minter role"
      },
      "renounceRole(bytes32,address)": {
        "details": "Revokes `role` from the calling account. Roles are often managed via {grantRole} and {revokeRole}: this function's purpose is to provide a mechanism for accounts to lose their privileges if they are compromised (such as when a trusted device is misplaced). If the calling account had been granted `role`, emits a {RoleRevoked} event. Requirements: - the caller must be `account`."
      },
      "revokeRole(bytes32,address)": {
        "details": "Revokes `role` from `account`. If `account` had been granted `role`, emits a {RoleRevoked} event. Requirements: - the caller must have ``role``'s admin role."
      },
      "safeBatchTransferFrom(address,address,uint256[],uint256[],bytes)": {
        "details": "See {IERC1155-safeBatchTransferFrom}."
      },
      "safeTransferFrom(address,address,uint256,uint256,bytes)": {
        "details": "See {IERC1155-safeTransferFrom}."
      },
      "setApprovalForAll(address,bool)": {
        "details": "See {IERC1155-setApprovalForAll}."
      },
      "uri(uint256)": {
        "details": "See {IERC1155MetadataURI-uri}. This implementation returns the same URI for *all* token types. It relies on the token type ID substitution mechanism https://eips.ethereum.org/EIPS/eip-1155#metadata[defined in the EIP]. Clients calling this function must replace the `\\{id\\}` substring with the actual token type ID."
      }
    },
    "title": "A mintable NFT ticekt for Coinburp Raffle",
    "version": 1
  },
  "userdoc": {
    "kind": "user",
    "methods": {},
    "version": 1
  },
  "storageLayout": {
    "storage": [
      {
        "astId": 803,
        "contract": "contracts/Raffle/RaffleTicket.sol:RaffleTicket",
        "label": "_balances",
        "offset": 0,
        "slot": "0",
        "type": "t_mapping(t_uint256,t_mapping(t_address,t_uint256))"
      },
      {
        "astId": 809,
        "contract": "contracts/Raffle/RaffleTicket.sol:RaffleTicket",
        "label": "_operatorApprovals",
        "offset": 0,
        "slot": "1",
        "type": "t_mapping(t_address,t_mapping(t_address,t_bool))"
      },
      {
        "astId": 811,
        "contract": "contracts/Raffle/RaffleTicket.sol:RaffleTicket",
        "label": "_uri",
        "offset": 0,
        "slot": "2",
        "type": "t_string_storage"
      },
      {
        "astId": 276,
        "contract": "contracts/Raffle/RaffleTicket.sol:RaffleTicket",
        "label": "_roles",
        "offset": 0,
        "slot": "3",
        "type": "t_mapping(t_bytes32,t_struct(RoleData)271_storage)"
      },
      {
        "astId": 7486,
        "contract": "contracts/Raffle/RaffleTicket.sol:RaffleTicket",
        "label": "minterOf",
        "offset": 0,
        "slot": "4",
        "type": "t_string_storage"
      }
    ],
    "types": {
      "t_address": {
        "encoding": "inplace",
        "label": "address",
        "numberOfBytes": "20"
      },
      "t_bool": {
        "encoding": "inplace",
        "label": "bool",
        "numberOfBytes": "1"
      },
      "t_bytes32": {
        "encoding": "inplace",
        "label": "bytes32",
        "numberOfBytes": "32"
      },
      "t_mapping(t_address,t_bool)": {
        "encoding": "mapping",
        "key": "t_address",
        "label": "mapping(address => bool)",
        "numberOfBytes": "32",
        "value": "t_bool"
      },
      "t_mapping(t_address,t_mapping(t_address,t_bool))": {
        "encoding": "mapping",
        "key": "t_address",
        "label": "mapping(address => mapping(address => bool))",
        "numberOfBytes": "32",
        "value": "t_mapping(t_address,t_bool)"
      },
      "t_mapping(t_address,t_uint256)": {
        "encoding": "mapping",
        "key": "t_address",
        "label": "mapping(address => uint256)",
        "numberOfBytes": "32",
        "value": "t_uint256"
      },
      "t_mapping(t_bytes32,t_struct(RoleData)271_storage)": {
        "encoding": "mapping",
        "key": "t_bytes32",
        "label": "mapping(bytes32 => struct AccessControl.RoleData)",
        "numberOfBytes": "32",
        "value": "t_struct(RoleData)271_storage"
      },
      "t_mapping(t_uint256,t_mapping(t_address,t_uint256))": {
        "encoding": "mapping",
        "key": "t_uint256",
        "label": "mapping(uint256 => mapping(address => uint256))",
        "numberOfBytes": "32",
        "value": "t_mapping(t_address,t_uint256)"
      },
      "t_string_storage": {
        "encoding": "bytes",
        "label": "string",
        "numberOfBytes": "32"
      },
      "t_struct(RoleData)271_storage": {
        "encoding": "inplace",
        "label": "struct AccessControl.RoleData",
        "members": [
          {
            "astId": 268,
            "contract": "contracts/Raffle/RaffleTicket.sol:RaffleTicket",
            "label": "members",
            "offset": 0,
            "slot": "0",
            "type": "t_mapping(t_address,t_bool)"
          },
          {
            "astId": 270,
            "contract": "contracts/Raffle/RaffleTicket.sol:RaffleTicket",
            "label": "adminRole",
            "offset": 0,
            "slot": "1",
            "type": "t_bytes32"
          }
        ],
        "numberOfBytes": "64"
      },
      "t_uint256": {
        "encoding": "inplace",
        "label": "uint256",
        "numberOfBytes": "32"
      }
    }
  }
}