{
  "address": "0xFa4EAb7B53B3530Ea1DdC871B1c02D3dB13d8625",
  "abi": [
    {
      "inputs": [
        {
          "internalType": "address",
          "name": "account",
          "type": "address"
        }
      ],
      "name": "_isContract",
      "outputs": [
        {
          "internalType": "bool",
          "name": "",
          "type": "bool"
        }
      ],
      "stateMutability": "view",
      "type": "function"
    }
  ],
  "transactionHash": "0x654a02a640843915bc46285bc02b6158b752fef822d756f8cf3f6e6185e9936c",
  "args": [],
  "solcInputHash": "9ed73cb8aea12ac13912a00e2d28ba22",
  "bytecode": "0x6117d6610053600b82828239805160001a607314610046577f4e487b7100000000000000000000000000000000000000000000000000000000600052600060045260246000fd5b30600052607381538281f3fe73000000000000000000000000000000000000000030146080604052600436106100925760003560e01c8063973ccf5b11610065578063973ccf5b1461015d578063b9718d4214610186578063c02ceb0a146101c3578063c6e4df7a146101f357610092565b8063284e433b146100975780633a09889a146100c05780637d48441f146100fd578063838410d01461012d575b600080fd5b8180156100a357600080fd5b506100be60048036038101906100b991906111fd565b610230565b005b8180156100cc57600080fd5b506100e760048036038101906100e29190611239565b61038c565b6040516100f49190611581565b60405180910390f35b61011760048036038101906101129190611198565b61043b565b6040516101249190611506565b60405180910390f35b610147600480360381019061014291906112eb565b61044e565b6040516101549190611581565b60405180910390f35b81801561016957600080fd5b50610184600480360381019061017f91906111c1565b610754565b005b81801561019257600080fd5b506101ad60048036038101906101a89190611288565b61079b565b6040516101ba9190611581565b60405180910390f35b6101dd60048036038101906101d89190611239565b610c9d565b6040516101ea9190611581565b60405180910390f35b8180156101ff57600080fd5b5061021a600480360381019061021591906112eb565b610d49565b6040516102279190611581565b60405180910390f35b81600001818154811061026c577f4e487b7100000000000000000000000000000000000000000000000000000000600052603260045260246000fd5b9060005260206000209060030201600001805490508260000182815481106102bd577f4e487b7100000000000000000000000000000000000000000000000000000000600052603260045260246000fd5b9060005260206000209060030201600201541015610388576103366001836000018381548110610316577f4e487b7100000000000000000000000000000000000000000000000000000000600052603260045260246000fd5b90600052602060002090600302016002015461105990919063ffffffff16565b826000018281548110610372577f4e487b7100000000000000000000000000000000000000000000000000000000600052603260045260246000fd5b9060005260206000209060030201600201819055505b5050565b60008060005b856000018054905081101561042f5761041a61040b87836103b7898b6002015461106f565b888b60000187815481106103f4577f4e487b7100000000000000000000000000000000000000000000000000000000600052603260045260246000fd5b906000526020600020906003020160020154610d49565b8361105990919063ffffffff16565b91508080610427906116e3565b915050610392565b50809150509392505050565b600080823b905060008111915050919050565b600085600001858154811061048c577f4e487b7100000000000000000000000000000000000000000000000000000000600052603260045260246000fd5b90600052602060002090600302016000018054905082106104b0576000905061074b565b60008660000186815481106104ee577f4e487b7100000000000000000000000000000000000000000000000000000000600052603260045260246000fd5b90600052602060002090600302016001018381548110610537577f4e487b7100000000000000000000000000000000000000000000000000000000600052603260045260246000fd5b906000526020600020015490506000876000018781548110610582577f4e487b7100000000000000000000000000000000000000000000000000000000600052603260045260246000fd5b906000526020600020906003020160000184815481106105cb577f4e487b7100000000000000000000000000000000000000000000000000000000600052603260045260246000fd5b906000526020600020015490506000808086146106835789600001898154811061061e577f4e487b7100000000000000000000000000000000000000000000000000000000600052603260045260246000fd5b906000526020600020906003020160010160018761063c919061165d565b81548110610673577f4e487b7100000000000000000000000000000000000000000000000000000000600052603260045260246000fd5b9060005260206000200154610689565b89600201545b90508388116106e257600061069e898361106f565b905060006106ac8987611089565b905060006106c383836110a290919063ffffffff16565b90506106d886826110b890919063ffffffff16565b945050505061070d565b6107028a8a8a8a6106fd60018c61105990919063ffffffff16565b61044e565b94505050505061074b565b83871115610743576107358a8a8a8a61073060018c61105990919063ffffffff16565b61044e565b8261074091906115ad565b91505b819450505050505b95945050505050565b808260030160006101000a81548173ffffffffffffffffffffffffffffffffffffffff021916908373ffffffffffffffffffffffffffffffffffffffff1602179055505050565b60006107b86001866000018054905061105990919063ffffffff16565b84106107f9576040517f08c379a00000000000000000000000000000000000000000000000000000000081526004016107f090611561565b60405180910390fd5b60008486600001805490501115610a27576000866000018681548110610848577f4e487b7100000000000000000000000000000000000000000000000000000000600052603260045260246000fd5b9060005260206000209060030201905060008160010190506000808280549050146108c657816001838054905061087f919061165d565b815481106108b6577f4e487b7100000000000000000000000000000000000000000000000000000000600052603260045260246000fd5b90600052602060002001546108cc565b88600201545b9050858110610910576040517f08c379a000000000000000000000000000000000000000000000000000000000815260040161090790611541565b60405180910390fd5b88600001888154811061094c577f4e487b7100000000000000000000000000000000000000000000000000000000600052603260045260246000fd5b90600052602060002090600302016001018690806001815401808255809150506001900390600052602060002001600090919091909150558860000188815481106109c0577f4e487b7100000000000000000000000000000000000000000000000000000000600052603260045260246000fd5b9060005260206000209060030201600001879080600181540180825580915050600190039060005260206000200160009091909190915055610a1d87610a0f83896110a290919063ffffffff16565b6110b890919063ffffffff16565b9350505050610c00565b610a2f6110ce565b600087600201549050848110610a7a576040517f08c379a0000000000000000000000000000000000000000000000000000000008152600401610a7190611541565b60405180910390fd5b876000018290806001815401808255809150506001900390600052602060002090600302016000909190919091506000820151816000019080519060200190610ac49291906110ef565b506020820151816001019080519060200190610ae19291906110ef565b50604082015181600201555050876000018781548110610b2a577f4e487b7100000000000000000000000000000000000000000000000000000000600052603260045260246000fd5b9060005260206000209060030201600101859080600181540180825580915050600190039060005260206000200160009091909190915055876000018781548110610b9e577f4e487b7100000000000000000000000000000000000000000000000000000000600052603260045260246000fd5b9060005260206000209060030201600001869080600181540180825580915050600190039060005260206000200160009091909190915055610bfb86610bed83886110a290919063ffffffff16565b6110b890919063ffffffff16565b925050505b734bba64b19dfef99994BD40B7C7e2D4C70CfB95FD63a1c011248760030160009054906101000a900473ffffffffffffffffffffffffffffffffffffffff163330856040518563ffffffff1660e01b8152600401610c6194939291906114c1565b60006040518083038186803b158015610c7957600080fd5b505af4158015610c8d573d6000803e3d6000fd5b5050505080915050949350505050565b6000610ca83361043b565b15610ce8576040517f08c379a0000000000000000000000000000000000000000000000000000000008152600401610cdf90611521565b60405180910390fd5b6000805b8560000180549050811015610d3d57610d28610d198783610d11898b6002015461106f565b88600061044e565b8361105990919063ffffffff16565b91508080610d35906116e3565b915050610cec565b50809150509392505050565b6000856000018581548110610d87577f4e487b7100000000000000000000000000000000000000000000000000000000600052603260045260246000fd5b9060005260206000209060030201600001805490508210610dab5760009050611050565b6000866000018681548110610de9577f4e487b7100000000000000000000000000000000000000000000000000000000600052603260045260246000fd5b90600052602060002090600302016001018381548110610e32577f4e487b7100000000000000000000000000000000000000000000000000000000600052603260045260246000fd5b906000526020600020015490506000876000018781548110610e7d577f4e487b7100000000000000000000000000000000000000000000000000000000600052603260045260246000fd5b90600052602060002090600302016000018481548110610ec6577f4e487b7100000000000000000000000000000000000000000000000000000000600052603260045260246000fd5b90600052602060002001549050600080808614610f7e57896000018981548110610f19577f4e487b7100000000000000000000000000000000000000000000000000000000600052603260045260246000fd5b9060005260206000209060030201600101600187610f37919061165d565b81548110610f6e577f4e487b7100000000000000000000000000000000000000000000000000000000600052603260045260246000fd5b9060005260206000200154610f84565b89600201545b9050838811610fdd576000610f99898361106f565b90506000610fa78987611089565b90506000610fbe83836110a290919063ffffffff16565b9050610fd386826110b890919063ffffffff16565b9450505050611012565b610fe78a8a610230565b6110078a8a8a8a61100260018c61105990919063ffffffff16565b61044e565b945050505050611050565b838711156110485761103a8a8a8a8a61103560018c61105990919063ffffffff16565b61044e565b8261104591906115ad565b91505b819450505050505b95945050505050565b6000818361106791906115ad565b905092915050565b60008183101561107f5781611081565b825b905092915050565b6000818310611098578161109a565b825b905092915050565b600081836110b0919061165d565b905092915050565b600081836110c69190611603565b905092915050565b60405180606001604052806060815260200160608152602001600081525090565b82805482825590600052602060002090810192821561112b579160200282015b8281111561112a57825182559160200191906001019061110f565b5b509050611138919061113c565b5090565b5b8082111561115557600081600090555060010161113d565b5090565b6000813590506111688161175b565b92915050565b60008135905061117d81611772565b92915050565b60008135905061119281611789565b92915050565b6000602082840312156111aa57600080fd5b60006111b884828501611159565b91505092915050565b600080604083850312156111d457600080fd5b60006111e28582860161116e565b92505060206111f385828601611159565b9150509250929050565b6000806040838503121561121057600080fd5b600061121e8582860161116e565b925050602061122f85828601611183565b9150509250929050565b60008060006060848603121561124e57600080fd5b600061125c8682870161116e565b935050602061126d86828701611183565b925050604061127e86828701611183565b9150509250925092565b6000806000806080858703121561129e57600080fd5b60006112ac8782880161116e565b94505060206112bd87828801611183565b93505060406112ce87828801611183565b92505060606112df87828801611183565b91505092959194509250565b600080600080600060a0868803121561130357600080fd5b60006113118882890161116e565b955050602061132288828901611183565b945050604061133388828901611183565b935050606061134488828901611183565b925050608061135588828901611183565b9150509295509295909350565b61136b81611691565b82525050565b61137a816116a3565b82525050565b600061138d60308361159c565b91507f5374616b696e675265776172643a20756e736166652066756e6374696f6e206660008301527f6f7220636f6e74726163742063616c6c000000000000000000000000000000006020830152604082019050919050565b60006113f360408361159c565b91507f52657761726453747265616d65723a20706572696f645374617274206d75737460008301527f20626520736d616c6c6572207468616e207265776172644c617374426c6f636b6020830152604082019050919050565b600061145960288361159c565b91507f52657761726453747265616d65723a20796f752063616e6e6f7420736b69702060008301527f616e20696e6465780000000000000000000000000000000000000000000000006020830152604082019050919050565b6114bb816116d9565b82525050565b60006080820190506114d66000830187611362565b6114e36020830186611362565b6114f06040830185611362565b6114fd60608301846114b2565b95945050505050565b600060208201905061151b6000830184611371565b92915050565b6000602082019050818103600083015261153a81611380565b9050919050565b6000602082019050818103600083015261155a816113e6565b9050919050565b6000602082019050818103600083015261157a8161144c565b9050919050565b600060208201905061159660008301846114b2565b92915050565b600082825260208201905092915050565b60006115b8826116d9565b91506115c3836116d9565b9250827fffffffffffffffffffffffffffffffffffffffffffffffffffffffffffffffff038211156115f8576115f761172c565b5b828201905092915050565b600061160e826116d9565b9150611619836116d9565b9250817fffffffffffffffffffffffffffffffffffffffffffffffffffffffffffffffff04831182151516156116525761165161172c565b5b828202905092915050565b6000611668826116d9565b9150611673836116d9565b9250828210156116865761168561172c565b5b828203905092915050565b600061169c826116b9565b9050919050565b60008115159050919050565b6000819050919050565b600073ffffffffffffffffffffffffffffffffffffffff82169050919050565b6000819050919050565b60006116ee826116d9565b91507fffffffffffffffffffffffffffffffffffffffffffffffffffffffffffffffff8214156117215761172061172c565b5b600182019050919050565b7f4e487b7100000000000000000000000000000000000000000000000000000000600052601160045260246000fd5b61176481611691565b811461176f57600080fd5b50565b61177b816116af565b811461178657600080fd5b50565b611792816116d9565b811461179d57600080fd5b5056fea2646970667358221220982df214e5a03ae8b1467ead8b39346ee29cdd722039700e17dafad47dcc428b64736f6c63430008000033",
  "deployedBytecode": "0x73000000000000000000000000000000000000000030146080604052600436106100925760003560e01c8063973ccf5b11610065578063973ccf5b1461015d578063b9718d4214610186578063c02ceb0a146101c3578063c6e4df7a146101f357610092565b8063284e433b146100975780633a09889a146100c05780637d48441f146100fd578063838410d01461012d575b600080fd5b8180156100a357600080fd5b506100be60048036038101906100b991906111fd565b610230565b005b8180156100cc57600080fd5b506100e760048036038101906100e29190611239565b61038c565b6040516100f49190611581565b60405180910390f35b61011760048036038101906101129190611198565b61043b565b6040516101249190611506565b60405180910390f35b610147600480360381019061014291906112eb565b61044e565b6040516101549190611581565b60405180910390f35b81801561016957600080fd5b50610184600480360381019061017f91906111c1565b610754565b005b81801561019257600080fd5b506101ad60048036038101906101a89190611288565b61079b565b6040516101ba9190611581565b60405180910390f35b6101dd60048036038101906101d89190611239565b610c9d565b6040516101ea9190611581565b60405180910390f35b8180156101ff57600080fd5b5061021a600480360381019061021591906112eb565b610d49565b6040516102279190611581565b60405180910390f35b81600001818154811061026c577f4e487b7100000000000000000000000000000000000000000000000000000000600052603260045260246000fd5b9060005260206000209060030201600001805490508260000182815481106102bd577f4e487b7100000000000000000000000000000000000000000000000000000000600052603260045260246000fd5b9060005260206000209060030201600201541015610388576103366001836000018381548110610316577f4e487b7100000000000000000000000000000000000000000000000000000000600052603260045260246000fd5b90600052602060002090600302016002015461105990919063ffffffff16565b826000018281548110610372577f4e487b7100000000000000000000000000000000000000000000000000000000600052603260045260246000fd5b9060005260206000209060030201600201819055505b5050565b60008060005b856000018054905081101561042f5761041a61040b87836103b7898b6002015461106f565b888b60000187815481106103f4577f4e487b7100000000000000000000000000000000000000000000000000000000600052603260045260246000fd5b906000526020600020906003020160020154610d49565b8361105990919063ffffffff16565b91508080610427906116e3565b915050610392565b50809150509392505050565b600080823b905060008111915050919050565b600085600001858154811061048c577f4e487b7100000000000000000000000000000000000000000000000000000000600052603260045260246000fd5b90600052602060002090600302016000018054905082106104b0576000905061074b565b60008660000186815481106104ee577f4e487b7100000000000000000000000000000000000000000000000000000000600052603260045260246000fd5b90600052602060002090600302016001018381548110610537577f4e487b7100000000000000000000000000000000000000000000000000000000600052603260045260246000fd5b906000526020600020015490506000876000018781548110610582577f4e487b7100000000000000000000000000000000000000000000000000000000600052603260045260246000fd5b906000526020600020906003020160000184815481106105cb577f4e487b7100000000000000000000000000000000000000000000000000000000600052603260045260246000fd5b906000526020600020015490506000808086146106835789600001898154811061061e577f4e487b7100000000000000000000000000000000000000000000000000000000600052603260045260246000fd5b906000526020600020906003020160010160018761063c919061165d565b81548110610673577f4e487b7100000000000000000000000000000000000000000000000000000000600052603260045260246000fd5b9060005260206000200154610689565b89600201545b90508388116106e257600061069e898361106f565b905060006106ac8987611089565b905060006106c383836110a290919063ffffffff16565b90506106d886826110b890919063ffffffff16565b945050505061070d565b6107028a8a8a8a6106fd60018c61105990919063ffffffff16565b61044e565b94505050505061074b565b83871115610743576107358a8a8a8a61073060018c61105990919063ffffffff16565b61044e565b8261074091906115ad565b91505b819450505050505b95945050505050565b808260030160006101000a81548173ffffffffffffffffffffffffffffffffffffffff021916908373ffffffffffffffffffffffffffffffffffffffff1602179055505050565b60006107b86001866000018054905061105990919063ffffffff16565b84106107f9576040517f08c379a00000000000000000000000000000000000000000000000000000000081526004016107f090611561565b60405180910390fd5b60008486600001805490501115610a27576000866000018681548110610848577f4e487b7100000000000000000000000000000000000000000000000000000000600052603260045260246000fd5b9060005260206000209060030201905060008160010190506000808280549050146108c657816001838054905061087f919061165d565b815481106108b6577f4e487b7100000000000000000000000000000000000000000000000000000000600052603260045260246000fd5b90600052602060002001546108cc565b88600201545b9050858110610910576040517f08c379a000000000000000000000000000000000000000000000000000000000815260040161090790611541565b60405180910390fd5b88600001888154811061094c577f4e487b7100000000000000000000000000000000000000000000000000000000600052603260045260246000fd5b90600052602060002090600302016001018690806001815401808255809150506001900390600052602060002001600090919091909150558860000188815481106109c0577f4e487b7100000000000000000000000000000000000000000000000000000000600052603260045260246000fd5b9060005260206000209060030201600001879080600181540180825580915050600190039060005260206000200160009091909190915055610a1d87610a0f83896110a290919063ffffffff16565b6110b890919063ffffffff16565b9350505050610c00565b610a2f6110ce565b600087600201549050848110610a7a576040517f08c379a0000000000000000000000000000000000000000000000000000000008152600401610a7190611541565b60405180910390fd5b876000018290806001815401808255809150506001900390600052602060002090600302016000909190919091506000820151816000019080519060200190610ac49291906110ef565b506020820151816001019080519060200190610ae19291906110ef565b50604082015181600201555050876000018781548110610b2a577f4e487b7100000000000000000000000000000000000000000000000000000000600052603260045260246000fd5b9060005260206000209060030201600101859080600181540180825580915050600190039060005260206000200160009091909190915055876000018781548110610b9e577f4e487b7100000000000000000000000000000000000000000000000000000000600052603260045260246000fd5b9060005260206000209060030201600001869080600181540180825580915050600190039060005260206000200160009091909190915055610bfb86610bed83886110a290919063ffffffff16565b6110b890919063ffffffff16565b925050505b73__$11791ee3c30036632c128bd6c5593b6470$__63a1c011248760030160009054906101000a900473ffffffffffffffffffffffffffffffffffffffff163330856040518563ffffffff1660e01b8152600401610c6194939291906114c1565b60006040518083038186803b158015610c7957600080fd5b505af4158015610c8d573d6000803e3d6000fd5b5050505080915050949350505050565b6000610ca83361043b565b15610ce8576040517f08c379a0000000000000000000000000000000000000000000000000000000008152600401610cdf90611521565b60405180910390fd5b6000805b8560000180549050811015610d3d57610d28610d198783610d11898b6002015461106f565b88600061044e565b8361105990919063ffffffff16565b91508080610d35906116e3565b915050610cec565b50809150509392505050565b6000856000018581548110610d87577f4e487b7100000000000000000000000000000000000000000000000000000000600052603260045260246000fd5b9060005260206000209060030201600001805490508210610dab5760009050611050565b6000866000018681548110610de9577f4e487b7100000000000000000000000000000000000000000000000000000000600052603260045260246000fd5b90600052602060002090600302016001018381548110610e32577f4e487b7100000000000000000000000000000000000000000000000000000000600052603260045260246000fd5b906000526020600020015490506000876000018781548110610e7d577f4e487b7100000000000000000000000000000000000000000000000000000000600052603260045260246000fd5b90600052602060002090600302016000018481548110610ec6577f4e487b7100000000000000000000000000000000000000000000000000000000600052603260045260246000fd5b90600052602060002001549050600080808614610f7e57896000018981548110610f19577f4e487b7100000000000000000000000000000000000000000000000000000000600052603260045260246000fd5b9060005260206000209060030201600101600187610f37919061165d565b81548110610f6e577f4e487b7100000000000000000000000000000000000000000000000000000000600052603260045260246000fd5b9060005260206000200154610f84565b89600201545b9050838811610fdd576000610f99898361106f565b90506000610fa78987611089565b90506000610fbe83836110a290919063ffffffff16565b9050610fd386826110b890919063ffffffff16565b9450505050611012565b610fe78a8a610230565b6110078a8a8a8a61100260018c61105990919063ffffffff16565b61044e565b945050505050611050565b838711156110485761103a8a8a8a8a61103560018c61105990919063ffffffff16565b61044e565b8261104591906115ad565b91505b819450505050505b95945050505050565b6000818361106791906115ad565b905092915050565b60008183101561107f5781611081565b825b905092915050565b6000818310611098578161109a565b825b905092915050565b600081836110b0919061165d565b905092915050565b600081836110c69190611603565b905092915050565b60405180606001604052806060815260200160608152602001600081525090565b82805482825590600052602060002090810192821561112b579160200282015b8281111561112a57825182559160200191906001019061110f565b5b509050611138919061113c565b5090565b5b8082111561115557600081600090555060010161113d565b5090565b6000813590506111688161175b565b92915050565b60008135905061117d81611772565b92915050565b60008135905061119281611789565b92915050565b6000602082840312156111aa57600080fd5b60006111b884828501611159565b91505092915050565b600080604083850312156111d457600080fd5b60006111e28582860161116e565b92505060206111f385828601611159565b9150509250929050565b6000806040838503121561121057600080fd5b600061121e8582860161116e565b925050602061122f85828601611183565b9150509250929050565b60008060006060848603121561124e57600080fd5b600061125c8682870161116e565b935050602061126d86828701611183565b925050604061127e86828701611183565b9150509250925092565b6000806000806080858703121561129e57600080fd5b60006112ac8782880161116e565b94505060206112bd87828801611183565b93505060406112ce87828801611183565b92505060606112df87828801611183565b91505092959194509250565b600080600080600060a0868803121561130357600080fd5b60006113118882890161116e565b955050602061132288828901611183565b945050604061133388828901611183565b935050606061134488828901611183565b925050608061135588828901611183565b9150509295509295909350565b61136b81611691565b82525050565b61137a816116a3565b82525050565b600061138d60308361159c565b91507f5374616b696e675265776172643a20756e736166652066756e6374696f6e206660008301527f6f7220636f6e74726163742063616c6c000000000000000000000000000000006020830152604082019050919050565b60006113f360408361159c565b91507f52657761726453747265616d65723a20706572696f645374617274206d75737460008301527f20626520736d616c6c6572207468616e207265776172644c617374426c6f636b6020830152604082019050919050565b600061145960288361159c565b91507f52657761726453747265616d65723a20796f752063616e6e6f7420736b69702060008301527f616e20696e6465780000000000000000000000000000000000000000000000006020830152604082019050919050565b6114bb816116d9565b82525050565b60006080820190506114d66000830187611362565b6114e36020830186611362565b6114f06040830185611362565b6114fd60608301846114b2565b95945050505050565b600060208201905061151b6000830184611371565b92915050565b6000602082019050818103600083015261153a81611380565b9050919050565b6000602082019050818103600083015261155a816113e6565b9050919050565b6000602082019050818103600083015261157a8161144c565b9050919050565b600060208201905061159660008301846114b2565b92915050565b600082825260208201905092915050565b60006115b8826116d9565b91506115c3836116d9565b9250827fffffffffffffffffffffffffffffffffffffffffffffffffffffffffffffffff038211156115f8576115f761172c565b5b828201905092915050565b600061160e826116d9565b9150611619836116d9565b9250817fffffffffffffffffffffffffffffffffffffffffffffffffffffffffffffffff04831182151516156116525761165161172c565b5b828202905092915050565b6000611668826116d9565b9150611673836116d9565b9250828210156116865761168561172c565b5b828203905092915050565b600061169c826116b9565b9050919050565b60008115159050919050565b6000819050919050565b600073ffffffffffffffffffffffffffffffffffffffff82169050919050565b6000819050919050565b60006116ee826116d9565b91507fffffffffffffffffffffffffffffffffffffffffffffffffffffffffffffffff8214156117215761172061172c565b5b600182019050919050565b7f4e487b7100000000000000000000000000000000000000000000000000000000600052601160045260246000fd5b61176481611691565b811461176f57600080fd5b50565b61177b816116af565b811461178657600080fd5b50565b611792816116d9565b811461179d57600080fd5b5056fea2646970667358221220982df214e5a03ae8b1467ead8b39346ee29cdd722039700e17dafad47dcc428b64736f6c63430008000033",
  "libraries": {
    "TokenHelper": "0x4bba64b19dfef99994BD40B7C7e2D4C70CfB95FD"
  },
  "devdoc": {
    "kind": "dev",
    "methods": {
      "_isContract(address)": {
        "details": "Returns true if `account` is a contract.",
        "params": {
          "account": "the address to check"
        },
        "returns": {
          "_0": "(bool) if the account is a contract"
        }
      },
      "addRewardStream(RewardStreamerLib.RewardStreamInfo storage,uint256,uint256,uint256)": {
        "params": {
          "rewardLastBlock": "The last block of the period",
          "rewardPerBlock": "The amount of tokens rewarded per block",
          "rewardStreamIndex": "The reward index"
        }
      },
      "iterateRewards(RewardStreamerLib.RewardStreamInfo storage,uint256,uint256,uint256,uint256)": {
        "params": {
          "fromBlock": "the block number from which the reward is calculated",
          "rewardIndex": "the ireward index",
          "rewardStreamIndex": "the index of the reward stream",
          "toBlock": "the block number till which the reward is calculated"
        },
        "returns": {
          "_0": "(uint256) the calculate reward"
        }
      },
      "setRewardToken(RewardStreamerLib.RewardStreamInfo storage,address)": {
        "params": {
          "rewardTokenAddress": "The reward token address"
        }
      },
      "unsafeGetRewardsFromRange(RewardStreamerLib.RewardStreamInfo storage,uint256,uint256)": {
        "params": {
          "fromBlock": "the block number from which the reward is calculated",
          "toBlock": "the block number till which the reward is calculated"
        },
        "returns": {
          "_0": "(uint256) the total reward"
        }
      }
    },
    "version": 1
  },
  "userdoc": {
    "kind": "user",
    "methods": {
      "addRewardStream(RewardStreamerLib.RewardStreamInfo storage,uint256,uint256,uint256)": {
        "notice": "Will create a new rewad stream"
      },
      "iterateRewards(RewardStreamerLib.RewardStreamInfo storage,uint256,uint256,uint256,uint256)": {
        "notice": "Iterate the rewards"
      },
      "setRewardToken(RewardStreamerLib.RewardStreamInfo storage,address)": {
        "notice": "Will setup the token to use for reward"
      },
      "unsafeGetRewardsFromRange(RewardStreamerLib.RewardStreamInfo storage,uint256,uint256)": {
        "notice": "Get the rewards for a period"
      }
    },
    "version": 1
  },
  "storageLayout": {
    "storage": [],
    "types": null
  }
}