{
  "address": "0x52d907fCA60E91159B632eA166e9ede71248f68D",
  "abi": [
    {
      "anonymous": false,
      "inputs": [
        {
          "indexed": false,
          "internalType": "uint256",
          "name": "lockIndex",
          "type": "uint256"
        },
        {
          "indexed": false,
          "internalType": "uint256",
          "name": "lockNumber",
          "type": "uint256"
        },
        {
          "indexed": false,
          "internalType": "uint256",
          "name": "lockMultiplier",
          "type": "uint256"
        }
      ],
      "name": "LocksUpdated",
      "type": "event"
    },
    {
      "anonymous": false,
      "inputs": [
        {
          "indexed": true,
          "internalType": "address",
          "name": "previousOwner",
          "type": "address"
        },
        {
          "indexed": true,
          "internalType": "address",
          "name": "newOwner",
          "type": "address"
        }
      ],
      "name": "OwnershipTransferred",
      "type": "event"
    },
    {
      "anonymous": false,
      "inputs": [
        {
          "indexed": false,
          "internalType": "address",
          "name": "rarityRegister",
          "type": "address"
        }
      ],
      "name": "RarityRegisterUpdated",
      "type": "event"
    },
    {
      "anonymous": false,
      "inputs": [
        {
          "indexed": false,
          "internalType": "uint256",
          "name": "rewardPerBlock",
          "type": "uint256"
        },
        {
          "indexed": false,
          "internalType": "uint256",
          "name": "rewardLastBlock",
          "type": "uint256"
        },
        {
          "indexed": false,
          "internalType": "uint256",
          "name": "rewardInStream",
          "type": "uint256"
        }
      ],
      "name": "RewardStreamAdded",
      "type": "event"
    },
    {
      "anonymous": false,
      "inputs": [
        {
          "indexed": true,
          "internalType": "address",
          "name": "user",
          "type": "address"
        },
        {
          "indexed": false,
          "internalType": "uint256",
          "name": "amount",
          "type": "uint256"
        },
        {
          "indexed": false,
          "internalType": "uint256",
          "name": "total",
          "type": "uint256"
        },
        {
          "indexed": false,
          "internalType": "bytes",
          "name": "data",
          "type": "bytes"
        }
      ],
      "name": "Staked",
      "type": "event"
    },
    {
      "anonymous": false,
      "inputs": [
        {
          "indexed": false,
          "internalType": "uint256",
          "name": "newValue",
          "type": "uint256"
        }
      ],
      "name": "TicketMintingChillPeriodUpdated",
      "type": "event"
    },
    {
      "anonymous": false,
      "inputs": [
        {
          "indexed": false,
          "internalType": "uint256",
          "name": "newValue",
          "type": "uint256"
        }
      ],
      "name": "TicketMintingRatioUpdated",
      "type": "event"
    },
    {
      "anonymous": false,
      "inputs": [
        {
          "indexed": true,
          "internalType": "address",
          "name": "user",
          "type": "address"
        },
        {
          "indexed": false,
          "internalType": "uint256",
          "name": "amount",
          "type": "uint256"
        },
        {
          "indexed": false,
          "internalType": "uint256",
          "name": "total",
          "type": "uint256"
        },
        {
          "indexed": false,
          "internalType": "bytes",
          "name": "data",
          "type": "bytes"
        }
      ],
      "name": "Unstaked",
      "type": "event"
    },
    {
      "inputs": [
        {
          "internalType": "uint256",
          "name": "lockNumber",
          "type": "uint256"
        },
        {
          "internalType": "uint256",
          "name": "lockMultiplier",
          "type": "uint256"
        }
      ],
      "name": "addLockDuration",
      "outputs": [],
      "stateMutability": "nonpayable",
      "type": "function"
    },
    {
      "inputs": [
        {
          "internalType": "address",
          "name": "staker",
          "type": "address"
        },
        {
          "internalType": "uint256",
          "name": "stakeIndex",
          "type": "uint256"
        },
        {
          "internalType": "address",
          "name": "tokenAddress",
          "type": "address"
        },
        {
          "internalType": "uint256",
          "name": "tokenId",
          "type": "uint256"
        }
      ],
      "name": "addNftToStake",
      "outputs": [],
      "stateMutability": "nonpayable",
      "type": "function"
    },
    {
      "inputs": [
        {
          "internalType": "uint256",
          "name": "rewardStreamIndex",
          "type": "uint256"
        },
        {
          "internalType": "uint256",
          "name": "periodBlockRate",
          "type": "uint256"
        },
        {
          "internalType": "uint256",
          "name": "periodLastBlock",
          "type": "uint256"
        }
      ],
      "name": "addRewardStream",
      "outputs": [],
      "stateMutability": "nonpayable",
      "type": "function"
    },
    {
      "inputs": [
        {
          "internalType": "uint256",
          "name": "stakeIndex",
          "type": "uint256"
        }
      ],
      "name": "claimTickets",
      "outputs": [],
      "stateMutability": "nonpayable",
      "type": "function"
    },
    {
      "inputs": [
        {
          "internalType": "address",
          "name": "staker",
          "type": "address"
        },
        {
          "internalType": "uint256",
          "name": "stakeIndex",
          "type": "uint256"
        }
      ],
      "name": "getClaimableTickets",
      "outputs": [
        {
          "internalType": "uint256",
          "name": "",
          "type": "uint256"
        }
      ],
      "stateMutability": "view",
      "type": "function"
    },
    {
      "inputs": [],
      "name": "getCurrentPeriodAverageReward",
      "outputs": [
        {
          "internalType": "uint256",
          "name": "",
          "type": "uint256"
        }
      ],
      "stateMutability": "view",
      "type": "function"
    },
    {
      "inputs": [],
      "name": "getCurrentPeriodLength",
      "outputs": [
        {
          "internalType": "uint256",
          "name": "",
          "type": "uint256"
        }
      ],
      "stateMutability": "view",
      "type": "function"
    },
    {
      "inputs": [
        {
          "internalType": "address",
          "name": "staker",
          "type": "address"
        },
        {
          "internalType": "uint256",
          "name": "stakeIndex",
          "type": "uint256"
        }
      ],
      "name": "getHistoryAverageForStake",
      "outputs": [
        {
          "internalType": "uint256",
          "name": "",
          "type": "uint256"
        }
      ],
      "stateMutability": "view",
      "type": "function"
    },
    {
      "inputs": [],
      "name": "getHistoryLength",
      "outputs": [
        {
          "internalType": "uint256",
          "name": "",
          "type": "uint256"
        }
      ],
      "stateMutability": "view",
      "type": "function"
    },
    {
      "inputs": [
        {
          "internalType": "address",
          "name": "staker",
          "type": "address"
        },
        {
          "internalType": "uint256",
          "name": "stakeIndex",
          "type": "uint256"
        }
      ],
      "name": "getHistoryLengthBeforeStakerEntered",
      "outputs": [
        {
          "internalType": "uint256",
          "name": "",
          "type": "uint256"
        }
      ],
      "stateMutability": "view",
      "type": "function"
    },
    {
      "inputs": [
        {
          "internalType": "address",
          "name": "staker",
          "type": "address"
        },
        {
          "internalType": "uint256",
          "name": "stakeIndex",
          "type": "uint256"
        }
      ],
      "name": "getStakerPoolShare",
      "outputs": [
        {
          "internalType": "uint256",
          "name": "",
          "type": "uint256"
        }
      ],
      "stateMutability": "view",
      "type": "function"
    },
    {
      "inputs": [
        {
          "internalType": "address",
          "name": "staker",
          "type": "address"
        },
        {
          "internalType": "uint256",
          "name": "stakeIndex",
          "type": "uint256"
        }
      ],
      "name": "getStakerReward",
      "outputs": [
        {
          "internalType": "uint256",
          "name": "",
          "type": "uint256"
        }
      ],
      "stateMutability": "view",
      "type": "function"
    },
    {
      "inputs": [
        {
          "internalType": "address",
          "name": "staker",
          "type": "address"
        },
        {
          "internalType": "uint256",
          "name": "stakeIndex",
          "type": "uint256"
        }
      ],
      "name": "getStakerRewardFromCurrent",
      "outputs": [
        {
          "internalType": "uint256",
          "name": "",
          "type": "uint256"
        }
      ],
      "stateMutability": "view",
      "type": "function"
    },
    {
      "inputs": [
        {
          "internalType": "address",
          "name": "staker",
          "type": "address"
        },
        {
          "internalType": "uint256",
          "name": "stakeIndex",
          "type": "uint256"
        }
      ],
      "name": "getStakerRewardFromHistory",
      "outputs": [
        {
          "internalType": "uint256",
          "name": "",
          "type": "uint256"
        }
      ],
      "stateMutability": "view",
      "type": "function"
    },
    {
      "inputs": [
        {
          "internalType": "address",
          "name": "staker",
          "type": "address"
        },
        {
          "internalType": "uint256",
          "name": "stakeIndex",
          "type": "uint256"
        }
      ],
      "name": "getStakerTimeInHistory",
      "outputs": [
        {
          "internalType": "uint256",
          "name": "",
          "type": "uint256"
        }
      ],
      "stateMutability": "view",
      "type": "function"
    },
    {
      "inputs": [],
      "name": "getTotalGeneratedReward",
      "outputs": [
        {
          "internalType": "uint256",
          "name": "",
          "type": "uint256"
        }
      ],
      "stateMutability": "view",
      "type": "function"
    },
    {
      "inputs": [],
      "name": "getTotalRewardInCurrentPeriod",
      "outputs": [
        {
          "internalType": "uint256",
          "name": "",
          "type": "uint256"
        }
      ],
      "stateMutability": "view",
      "type": "function"
    },
    {
      "inputs": [
        {
          "internalType": "address",
          "name": "staker",
          "type": "address"
        }
      ],
      "name": "getUserStakes",
      "outputs": [
        {
          "internalType": "uint256",
          "name": "",
          "type": "uint256"
        }
      ],
      "stateMutability": "view",
      "type": "function"
    },
    {
      "inputs": [],
      "name": "historyAverageReward",
      "outputs": [
        {
          "internalType": "uint256",
          "name": "",
          "type": "uint256"
        }
      ],
      "stateMutability": "view",
      "type": "function"
    },
    {
      "inputs": [],
      "name": "historyEndBlock",
      "outputs": [
        {
          "internalType": "uint256",
          "name": "",
          "type": "uint256"
        }
      ],
      "stateMutability": "view",
      "type": "function"
    },
    {
      "inputs": [],
      "name": "historyRewardPot",
      "outputs": [
        {
          "internalType": "uint256",
          "name": "",
          "type": "uint256"
        }
      ],
      "stateMutability": "view",
      "type": "function"
    },
    {
      "inputs": [],
      "name": "historyStartBlock",
      "outputs": [
        {
          "internalType": "uint256",
          "name": "",
          "type": "uint256"
        }
      ],
      "stateMutability": "view",
      "type": "function"
    },
    {
      "inputs": [
        {
          "internalType": "address",
          "name": "_rewardToken",
          "type": "address"
        },
        {
          "internalType": "address",
          "name": "_ticket",
          "type": "address"
        },
        {
          "internalType": "uint256[]",
          "name": "_locks",
          "type": "uint256[]"
        },
        {
          "internalType": "uint256[]",
          "name": "_locksMultiplier",
          "type": "uint256[]"
        },
        {
          "internalType": "uint256",
          "name": "_ticketsMintingRatio",
          "type": "uint256"
        },
        {
          "internalType": "uint256",
          "name": "_ticketsMintingChillPeriod",
          "type": "uint256"
        },
        {
          "internalType": "address",
          "name": "_rarityRegister",
          "type": "address"
        },
        {
          "internalType": "address",
          "name": "_defaultStaker",
          "type": "address"
        }
      ],
      "name": "initialize",
      "outputs": [],
      "stateMutability": "nonpayable",
      "type": "function"
    },
    {
      "inputs": [
        {
          "internalType": "uint256",
          "name": "i",
          "type": "uint256"
        }
      ],
      "name": "locks",
      "outputs": [
        {
          "internalType": "uint256",
          "name": "",
          "type": "uint256"
        }
      ],
      "stateMutability": "view",
      "type": "function"
    },
    {
      "inputs": [
        {
          "internalType": "uint256",
          "name": "i",
          "type": "uint256"
        }
      ],
      "name": "locksMultiplier",
      "outputs": [
        {
          "internalType": "uint256",
          "name": "",
          "type": "uint256"
        }
      ],
      "stateMutability": "view",
      "type": "function"
    },
    {
      "inputs": [],
      "name": "owner",
      "outputs": [
        {
          "internalType": "address",
          "name": "",
          "type": "address"
        }
      ],
      "stateMutability": "view",
      "type": "function"
    },
    {
      "inputs": [],
      "name": "rarityRegister",
      "outputs": [
        {
          "internalType": "address",
          "name": "",
          "type": "address"
        }
      ],
      "stateMutability": "view",
      "type": "function"
    },
    {
      "inputs": [],
      "name": "renounceOwnership",
      "outputs": [],
      "stateMutability": "nonpayable",
      "type": "function"
    },
    {
      "inputs": [],
      "name": "rewardStreamInfo",
      "outputs": [
        {
          "internalType": "uint256",
          "name": "rewardStreamsLength",
          "type": "uint256"
        },
        {
          "internalType": "uint256",
          "name": "deployedAtBlock",
          "type": "uint256"
        },
        {
          "internalType": "address",
          "name": "rewardToken",
          "type": "address"
        }
      ],
      "stateMutability": "view",
      "type": "function"
    },
    {
      "inputs": [],
      "name": "rewardToken",
      "outputs": [
        {
          "internalType": "address",
          "name": "",
          "type": "address"
        }
      ],
      "stateMutability": "view",
      "type": "function"
    },
    {
      "inputs": [
        {
          "internalType": "address",
          "name": "newRarityRegister",
          "type": "address"
        }
      ],
      "name": "setRarityRegister",
      "outputs": [],
      "stateMutability": "nonpayable",
      "type": "function"
    },
    {
      "inputs": [
        {
          "internalType": "address",
          "name": "ticketAddress",
          "type": "address"
        }
      ],
      "name": "setTicket",
      "outputs": [],
      "stateMutability": "nonpayable",
      "type": "function"
    },
    {
      "inputs": [
        {
          "internalType": "uint256",
          "name": "newTicketsMintingChillPeriod",
          "type": "uint256"
        }
      ],
      "name": "setTicketsMintingChillPeriod",
      "outputs": [],
      "stateMutability": "nonpayable",
      "type": "function"
    },
    {
      "inputs": [
        {
          "internalType": "uint256",
          "name": "newTicketsMintingRatio",
          "type": "uint256"
        }
      ],
      "name": "setTicketsMintingRatio",
      "outputs": [],
      "stateMutability": "nonpayable",
      "type": "function"
    },
    {
      "inputs": [
        {
          "internalType": "uint256",
          "name": "amount",
          "type": "uint256"
        },
        {
          "internalType": "bytes",
          "name": "data",
          "type": "bytes"
        }
      ],
      "name": "stake",
      "outputs": [],
      "stateMutability": "nonpayable",
      "type": "function"
    },
    {
      "inputs": [
        {
          "internalType": "address",
          "name": "user",
          "type": "address"
        },
        {
          "internalType": "uint256",
          "name": "amount",
          "type": "uint256"
        },
        {
          "internalType": "bytes",
          "name": "data",
          "type": "bytes"
        }
      ],
      "name": "stakeFor",
      "outputs": [],
      "stateMutability": "nonpayable",
      "type": "function"
    },
    {
      "inputs": [],
      "name": "supportsHistory",
      "outputs": [
        {
          "internalType": "bool",
          "name": "",
          "type": "bool"
        }
      ],
      "stateMutability": "pure",
      "type": "function"
    },
    {
      "inputs": [],
      "name": "ticketsMintingChillPeriod",
      "outputs": [
        {
          "internalType": "uint256",
          "name": "",
          "type": "uint256"
        }
      ],
      "stateMutability": "view",
      "type": "function"
    },
    {
      "inputs": [],
      "name": "ticketsMintingRatio",
      "outputs": [
        {
          "internalType": "uint256",
          "name": "",
          "type": "uint256"
        }
      ],
      "stateMutability": "view",
      "type": "function"
    },
    {
      "inputs": [],
      "name": "token",
      "outputs": [
        {
          "internalType": "address",
          "name": "",
          "type": "address"
        }
      ],
      "stateMutability": "view",
      "type": "function"
    },
    {
      "inputs": [],
      "name": "totalCurrentlyStaked",
      "outputs": [
        {
          "internalType": "uint256",
          "name": "",
          "type": "uint256"
        }
      ],
      "stateMutability": "view",
      "type": "function"
    },
    {
      "inputs": [],
      "name": "totalDistributedRewards",
      "outputs": [
        {
          "internalType": "uint256",
          "name": "",
          "type": "uint256"
        }
      ],
      "stateMutability": "view",
      "type": "function"
    },
    {
      "inputs": [],
      "name": "totalStaked",
      "outputs": [
        {
          "internalType": "uint256",
          "name": "",
          "type": "uint256"
        }
      ],
      "stateMutability": "view",
      "type": "function"
    },
    {
      "inputs": [
        {
          "internalType": "address",
          "name": "staker",
          "type": "address"
        }
      ],
      "name": "totalStakedFor",
      "outputs": [
        {
          "internalType": "uint256",
          "name": "",
          "type": "uint256"
        }
      ],
      "stateMutability": "view",
      "type": "function"
    },
    {
      "inputs": [],
      "name": "totalStakingUnits",
      "outputs": [
        {
          "internalType": "uint256",
          "name": "",
          "type": "uint256"
        }
      ],
      "stateMutability": "view",
      "type": "function"
    },
    {
      "inputs": [
        {
          "internalType": "address",
          "name": "newOwner",
          "type": "address"
        }
      ],
      "name": "transferOwnership",
      "outputs": [],
      "stateMutability": "nonpayable",
      "type": "function"
    },
    {
      "inputs": [
        {
          "internalType": "uint256",
          "name": "amount",
          "type": "uint256"
        },
        {
          "internalType": "bytes",
          "name": "data",
          "type": "bytes"
        }
      ],
      "name": "unstake",
      "outputs": [],
      "stateMutability": "nonpayable",
      "type": "function"
    },
    {
      "inputs": [
        {
          "internalType": "bytes",
          "name": "data",
          "type": "bytes"
        }
      ],
      "name": "unstakeERC721",
      "outputs": [],
      "stateMutability": "nonpayable",
      "type": "function"
    },
    {
      "inputs": [
        {
          "internalType": "uint256",
          "name": "lockIndex",
          "type": "uint256"
        },
        {
          "internalType": "uint256",
          "name": "lockNumber",
          "type": "uint256"
        },
        {
          "internalType": "uint256",
          "name": "lockMultiplier",
          "type": "uint256"
        }
      ],
      "name": "updateLocks",
      "outputs": [],
      "stateMutability": "nonpayable",
      "type": "function"
    },
    {
      "inputs": [
        {
          "internalType": "address",
          "name": "staker",
          "type": "address"
        },
        {
          "internalType": "uint256",
          "name": "stakeIndex",
          "type": "uint256"
        }
      ],
      "name": "userStakedTokens",
      "outputs": [
        {
          "components": [
            {
              "internalType": "address",
              "name": "tokenAddress",
              "type": "address"
            },
            {
              "internalType": "uint256",
              "name": "tokenId",
              "type": "uint256"
            }
          ],
          "internalType": "struct StakingLib.UserStakedToken",
          "name": "",
          "type": "tuple"
        }
      ],
      "stateMutability": "view",
      "type": "function"
    },
    {
      "inputs": [
        {
          "internalType": "address",
          "name": "staker",
          "type": "address"
        },
        {
          "internalType": "uint256",
          "name": "i",
          "type": "uint256"
        }
      ],
      "name": "userStakes",
      "outputs": [
        {
          "components": [
            {
              "internalType": "uint256",
              "name": "stakingUnits",
              "type": "uint256"
            },
            {
              "internalType": "uint256",
              "name": "amountStaked",
              "type": "uint256"
            },
            {
              "internalType": "uint256",
              "name": "enteredAtBlock",
              "type": "uint256"
            },
            {
              "internalType": "uint256",
              "name": "historyAverageRewardWhenEntered",
              "type": "uint256"
            },
            {
              "internalType": "uint256",
              "name": "ticketsMintingRatioWhenEntered",
              "type": "uint256"
            },
            {
              "internalType": "uint256",
              "name": "ticketsMintingChillPeriodWhenEntered",
              "type": "uint256"
            },
            {
              "internalType": "uint256",
              "name": "lockedTill",
              "type": "uint256"
            },
            {
              "internalType": "uint256",
              "name": "rewardCredit",
              "type": "uint256"
            },
            {
              "internalType": "uint256",
              "name": "ticketsMinted",
              "type": "uint256"
            },
            {
              "components": [
                {
                  "internalType": "address",
                  "name": "tokenAddress",
                  "type": "address"
                },
                {
                  "internalType": "uint256",
                  "name": "tokenId",
                  "type": "uint256"
                }
              ],
              "internalType": "struct StakingLib.UserStakedToken",
              "name": "userStakedToken",
              "type": "tuple"
            }
          ],
          "internalType": "struct StakingLib.UserStake",
          "name": "",
          "type": "tuple"
        }
      ],
      "stateMutability": "view",
      "type": "function"
    }
  ],
  "transactionHash": "0xc9fa27a22e9923147b28582a020aa0a56b394aff9a9735320cf9ebb0ec62c43d",
  "args": [],
  "solcInputHash": "5f6a90665f2f5529d057ebde09c84406",
  "bytecode": "0x608060405234801561001057600080fd5b5061482c806100206000396000f3fe608060405234801561001057600080fd5b50600436106102f15760003560e01c8063842e29811161019d578063c8fd6ed0116100e9578063f2fde38b116100a2578063f59cc39b1161007c578063f59cc39b14610946578063f7c618c114610964578063fa55df1814610982578063fc0c546a1461099e576102f1565b8063f2fde38b146108ca578063f3a35da1146108e6578063f4dadc6114610916576102f1565b8063c8fd6ed01461081e578063ca8df1101461083a578063cd459c8a14610856578063d91fe2ef14610874578063db53470514610892578063edac59f8146108ae576102f1565b80639fc41bb711610156578063ae0c6fd811610130578063ae0c6fd814610794578063b4db1720146107b2578063b5d5b5fa146107d2578063bf60f25714610802576102f1565b80639fc41bb71461072a578063a87df8321461075a578063aab9099e14610778576102f1565b8063842e298114610642578063892e7cfa146106725780638da5cb5b1461068e5780639189cdde146106ac57806399a9f1b5146106dc5780639f40bd63146106fa576102f1565b806352ceb0471161025c5780636d2196b51161021557806380dc439c116101ef57806380dc439c146105b8578063817b1cd2146105e857806382ccf18314610606578063839e794a14610624576102f1565b80636d2196b5146105725780637033e4a614610590578063715018a6146105ae576102f1565b806352ceb047146104ae5780635478f468146104ca5780635d003824146104e85780635df6fd1814610506578063682c3f55146105245780636c19b41c14610542576102f1565b806322178e8f116102ae57806322178e8f146103b65780632f43f4d1146103d25780634a0ef78b146103ee5780634b341aed1461041e5780635001c9bd1461044e57806352c4dc261461047e576102f1565b8063061886cd146102f657806309af60a7146103265780630e89439b146103445780630ef96356146103605780631c65c78b1461037c578063202bc5de14610398575b600080fd5b610310600480360381019061030b9190613923565b6109bc565b60405161031d9190614495565b60405180910390f35b61032e610b18565b60405161033b91906144d9565b60405180910390f35b61035e60048036038101906103599190613ac5565b610b25565b005b61037a600480360381019061037591906139c2565b610ca8565b005b61039660048036038101906103919190613818565b610e2c565b005b6103a0610eef565b6040516103ad919061405d565b60405180910390f35b6103d060048036038101906103cb9190613a2e565b610f1c565b005b6103ec60048036038101906103e79190613b59565b611168565b005b61040860048036038101906104039190613923565b6112bc565b60405161041591906144d9565b60405180910390f35b61043860048036038101906104339190613818565b611390565b60405161044591906144d9565b60405180910390f35b61046860048036038101906104639190613923565b61145e565b60405161047591906144d9565b60405180910390f35b61049860048036038101906104939190613923565b6115f7565b6040516104a591906144d9565b60405180910390f35b6104c860048036038101906104c39190613a73565b6116cf565b005b6104d261178f565b6040516104df91906144d9565b60405180910390f35b6104f061181e565b6040516104fd91906144d9565b60405180910390f35b61050e6118b6565b60405161051b91906144d9565b60405180910390f35b61052c6118c3565b60405161053991906144d9565b60405180910390f35b61055c60048036038101906105579190613923565b6118d0565b60405161056991906144d9565b60405180910390f35b61057a6119a7565b60405161058791906144d9565b60405180910390f35b6105986119b4565b6040516105a59190614101565b60405180910390f35b6105b66119b9565b005b6105d260048036038101906105cd9190613a73565b611a41565b6040516105df91906144d9565b60405180910390f35b6105f0611a92565b6040516105fd91906144d9565b60405180910390f35b61060e611a9f565b60405161061b91906144d9565b60405180910390f35b61062c611b2e565b60405161063991906144d9565b60405180910390f35b61065c60048036038101906106579190613818565b611b3b565b60405161066991906144d9565b60405180910390f35b61068c60048036038101906106879190613b1d565b611b87565b005b610696611cb5565b6040516106a3919061405d565b60405180910390f35b6106c660048036038101906106c19190613923565b611cdf565b6040516106d391906144d9565b60405180910390f35b6106e4611db3565b6040516106f191906144d9565b60405180910390f35b610714600480360381019061070f9190613923565b611dc0565b60405161072191906144d9565b60405180910390f35b610744600480360381019061073f9190613923565b611e94565b60405161075191906144d9565b60405180910390f35b610762611f68565b60405161076f91906144d9565b60405180910390f35b610792600480360381019061078d9190613b59565b611f75565b005b61079c612001565b6040516107a991906144d9565b60405180910390f35b6107ba61200e565b6040516107c9939291906144f4565b60405180910390f35b6107ec60048036038101906107e79190613923565b612046565b6040516107f9919061445e565b60405180910390f35b61081c6004803603810190610817919061395f565b61220e565b005b61083860048036038101906108339190613ac5565b6122c5565b005b610854600480360381019061084f9190613a73565b612522565b005b61085e6126bd565b60405161086b91906144d9565b60405180910390f35b61087c6126ca565b60405161088991906144d9565b60405180910390f35b6108ac60048036038101906108a79190613a73565b612762565b005b6108c860048036038101906108c39190613841565b612865565b005b6108e460048036038101906108df9190613818565b612a8b565b005b61090060048036038101906108fb9190613923565b612b83565b60405161090d91906144d9565b60405180910390f35b610930600480360381019061092b9190613a73565b612c5a565b60405161093d91906144d9565b60405180910390f35b61094e612cab565b60405161095b91906144d9565b60405180910390f35b61096c612d46565b604051610979919061405d565b60405180910390f35b61099c60048036038101906109979190613818565b612d73565b005b6109a6612e6d565b6040516109b3919061405d565b60405180910390f35b6109c4613606565b6109cc613606565b82607660008673ffffffffffffffffffffffffffffffffffffffff1673ffffffffffffffffffffffffffffffffffffffff1681526020019081526020016000208054905011610a1b5780610b0f565b607660008573ffffffffffffffffffffffffffffffffffffffff1673ffffffffffffffffffffffffffffffffffffffff1681526020019081526020016000208381548110610a92577f4e487b7100000000000000000000000000000000000000000000000000000000600052603260045260246000fd5b90600052602060002090600b02016009016040518060400160405290816000820160009054906101000a900473ffffffffffffffffffffffffffffffffffffffff1673ffffffffffffffffffffffffffffffffffffffff1673ffffffffffffffffffffffffffffffffffffffff1681526020016001820154815250505b91505092915050565b6000606960030154905090565b73cBE5ee787d60CfA0dde84F8cfb677827A11dd7C863e6c8af4b60656069607660003373ffffffffffffffffffffffffffffffffffffffff1673ffffffffffffffffffffffffffffffffffffffff168152602001908152602001600020338888886040518863ffffffff1660e01b8152600401610ba89796959493929190614249565b60006040518083038186803b158015610bc057600080fd5b505af4158015610bd4573d6000803e3d6000fd5b505050503373ffffffffffffffffffffffffffffffffffffffff167fc65e53b88159e7d2c0fc12a0600072e28ae53ff73b4c1715369c30f16093514284606960040154610c6d6001607660003373ffffffffffffffffffffffffffffffffffffffff1673ffffffffffffffffffffffffffffffffffffffff16815260200190815260200160002080549050612e9a90919063ffffffff16565b604051602001610c7d9190614042565b604051602081830303815290604052604051610c9b9392919061452b565b60405180910390a2505050565b73cBE5ee787d60CfA0dde84F8cfb677827A11dd7C863e6c8af4b60656069607660008973ffffffffffffffffffffffffffffffffffffffff1673ffffffffffffffffffffffffffffffffffffffff168152602001908152602001600020888888886040518863ffffffff1660e01b8152600401610d2b9796959493929190614249565b60006040518083038186803b158015610d4357600080fd5b505af4158015610d57573d6000803e3d6000fd5b505050508373ffffffffffffffffffffffffffffffffffffffff167fc65e53b88159e7d2c0fc12a0600072e28ae53ff73b4c1715369c30f16093514284606960040154610df06001607660008b73ffffffffffffffffffffffffffffffffffffffff1673ffffffffffffffffffffffffffffffffffffffff16815260200190815260200160002080549050612e9a90919063ffffffff16565b604051602001610e009190614042565b604051602081830303815290604052604051610e1e9392919061452b565b60405180910390a250505050565b610e34612eb0565b73ffffffffffffffffffffffffffffffffffffffff16610e52611cb5565b73ffffffffffffffffffffffffffffffffffffffff1614610ea8576040517f08c379a0000000000000000000000000000000000000000000000000000000008152600401610e9f906141e0565b60405180910390fd5b806069600b0160006101000a81548173ffffffffffffffffffffffffffffffffffffffff021916908373ffffffffffffffffffffffffffffffffffffffff16021790555050565b60006069600c0160009054906101000a900473ffffffffffffffffffffffffffffffffffffffff16905090565b600073cBE5ee787d60CfA0dde84F8cfb677827A11dd7C8637bc0bc9284846040518363ffffffff1660e01b8152600401610f5792919061411c565b60206040518083038186803b158015610f6f57600080fd5b505af4158015610f83573d6000803e3d6000fd5b505050506040513d601f19601f82011682018060405250810190610fa79190613a9c565b905043607660003373ffffffffffffffffffffffffffffffffffffffff1673ffffffffffffffffffffffffffffffffffffffff1681526020019081526020016000208281548110611021577f4e487b7100000000000000000000000000000000000000000000000000000000600052603260045260246000fd5b90600052602060002090600b02016006015410611073576040517f08c379a000000000000000000000000000000000000000000000000000000000815260040161106a90614140565b60405180910390fd5b73cBE5ee787d60CfA0dde84F8cfb677827A11dd7C863dd218078607660003373ffffffffffffffffffffffffffffffffffffffff1673ffffffffffffffffffffffffffffffffffffffff1681526020019081526020016000208381548110611104577f4e487b7100000000000000000000000000000000000000000000000000000000600052603260045260246000fd5b90600052602060002090600b0201600901336040518363ffffffff1660e01b81526004016111339291906144b0565b60006040518083038186803b15801561114b57600080fd5b505af415801561115f573d6000803e3d6000fd5b50505050505050565b611170612eb0565b73ffffffffffffffffffffffffffffffffffffffff1661118e611cb5565b73ffffffffffffffffffffffffffffffffffffffff16146111e4576040517f08c379a00000000000000000000000000000000000000000000000000000000081526004016111db906141e0565b60405180910390fd5b8160696007018481548110611222577f4e487b7100000000000000000000000000000000000000000000000000000000600052603260045260246000fd5b9060005260206000200181905550806069600801848154811061126e577f4e487b7100000000000000000000000000000000000000000000000000000000600052603260045260246000fd5b90600052602060002001819055507fb6bf12d706559fbee13bb278c735a72b00d839867b2b1a1d982ebf47babc09278383836040516112af93929190614569565b60405180910390a1505050565b600073cBE5ee787d60CfA0dde84F8cfb677827A11dd7C8638f3b32786069607660008773ffffffffffffffffffffffffffffffffffffffff1673ffffffffffffffffffffffffffffffffffffffff168152602001908152602001600020856040518463ffffffff1660e01b8152600401611338939291906143f0565b60206040518083038186803b15801561135057600080fd5b505af4158015611364573d6000803e3d6000fd5b505050506040513d601f19601f820116820180604052508101906113889190613a9c565b905092915050565b600073cBE5ee787d60CfA0dde84F8cfb677827A11dd7C8639ac9e04a607660008573ffffffffffffffffffffffffffffffffffffffff1673ffffffffffffffffffffffffffffffffffffffff1681526020019081526020016000206040518263ffffffff1660e01b815260040161140791906140af565b60206040518083038186803b15801561141f57600080fd5b505af4158015611433573d6000803e3d6000fd5b505050506040513d601f19601f820116820180604052508101906114579190613a9c565b9050919050565b600081607660008573ffffffffffffffffffffffffffffffffffffffff1673ffffffffffffffffffffffffffffffffffffffff16815260200190815260200160002080549050116114e4576040517f08c379a00000000000000000000000000000000000000000000000000000000081526004016114db90614200565b60405180910390fd5b73cBE5ee787d60CfA0dde84F8cfb677827A11dd7C8637946fbde607660008673ffffffffffffffffffffffffffffffffffffffff1673ffffffffffffffffffffffffffffffffffffffff1681526020019081526020016000208481548110611575577f4e487b7100000000000000000000000000000000000000000000000000000000600052603260045260246000fd5b90600052602060002090600b02016040518263ffffffff1660e01b815260040161159f919061447a565b60206040518083038186803b1580156115b757600080fd5b505af41580156115cb573d6000803e3d6000fd5b505050506040513d601f19601f820116820180604052508101906115ef9190613a9c565b905092915050565b600073cBE5ee787d60CfA0dde84F8cfb677827A11dd7C8639c2cbc8d607660008673ffffffffffffffffffffffffffffffffffffffff1673ffffffffffffffffffffffffffffffffffffffff168152602001908152602001600020846069600501546040518463ffffffff1660e01b8152600401611677939291906140ca565b60206040518083038186803b15801561168f57600080fd5b505af41580156116a3573d6000803e3d6000fd5b505050506040513d601f19601f820116820180604052508101906116c79190613a9c565b905092915050565b6116d7612eb0565b73ffffffffffffffffffffffffffffffffffffffff166116f5611cb5565b73ffffffffffffffffffffffffffffffffffffffff161461174b576040517f08c379a0000000000000000000000000000000000000000000000000000000008152600401611742906141e0565b60405180910390fd5b806069600901819055507f7a452c2a10e8d62d109ecca1814d427d1cc00b6f7f4c33210dec6b37a3807f0f8160405161178491906144d9565b60405180910390a150565b600073cBE5ee787d60CfA0dde84F8cfb677827A11dd7C8631388950060696040518263ffffffff1660e01b81526004016117c991906143d5565b60206040518083038186803b1580156117e157600080fd5b505af41580156117f5573d6000803e3d6000fd5b505050506040513d601f19601f820116820180604052508101906118199190613a9c565b905090565b600073Fa4EAb7B53B3530Ea1DdC871B1c02D3dB13d862563c02ceb0a6065606960000154436040518463ffffffff1660e01b815260040161186193929190614359565b60206040518083038186803b15801561187957600080fd5b505af415801561188d573d6000803e3d6000fd5b505050506040513d601f19601f820116820180604052508101906118b19190613a9c565b905090565b60006069600a0154905090565b6000606960040154905090565b600073cBE5ee787d60CfA0dde84F8cfb677827A11dd7C8637a54ff4160656069607660008873ffffffffffffffffffffffffffffffffffffffff1673ffffffffffffffffffffffffffffffffffffffff168152602001908152602001600020866040518563ffffffff1660e01b815260040161194f94939291906142b3565b60206040518083038186803b15801561196757600080fd5b505af415801561197b573d6000803e3d6000fd5b505050506040513d601f19601f8201168201806040525081019061199f9190613a9c565b905092915050565b6000606960090154905090565b600090565b6119c1612eb0565b73ffffffffffffffffffffffffffffffffffffffff166119df611cb5565b73ffffffffffffffffffffffffffffffffffffffff1614611a35576040517f08c379a0000000000000000000000000000000000000000000000000000000008152600401611a2c906141e0565b60405180910390fd5b611a3f6000612eb8565b565b600060696008018281548110611a80577f4e487b7100000000000000000000000000000000000000000000000000000000600052603260045260246000fd5b90600052602060002001549050919050565b6000606960040154905090565b600073cBE5ee787d60CfA0dde84F8cfb677827A11dd7C8631dccbf8760696040518263ffffffff1660e01b8152600401611ad991906143d5565b60206040518083038186803b158015611af157600080fd5b505af4158015611b05573d6000803e3d6000fd5b505050506040513d601f19601f82011682018060405250810190611b299190613a9c565b905090565b6000606960010154905090565b6000607660008373ffffffffffffffffffffffffffffffffffffffff1673ffffffffffffffffffffffffffffffffffffffff168152602001908152602001600020805490509050919050565b611b8f612eb0565b73ffffffffffffffffffffffffffffffffffffffff16611bad611cb5565b73ffffffffffffffffffffffffffffffffffffffff1614611c03576040517f08c379a0000000000000000000000000000000000000000000000000000000008152600401611bfa906141e0565b60405180910390fd5b606960070182908060018154018082558091505060019003906000526020600020016000909190919091505560696008018190806001815401808255809150506001900390600052602060002001600090919091909150557fb6bf12d706559fbee13bb278c735a72b00d839867b2b1a1d982ebf47babc0927611c986001606960070180549050612e9a90919063ffffffff16565b8383604051611ca993929190614569565b60405180910390a15050565b6000603360009054906101000a900473ffffffffffffffffffffffffffffffffffffffff16905090565b600073cBE5ee787d60CfA0dde84F8cfb677827A11dd7C863d85b41f66069607660008773ffffffffffffffffffffffffffffffffffffffff1673ffffffffffffffffffffffffffffffffffffffff168152602001908152602001600020856040518463ffffffff1660e01b8152600401611d5b939291906143f0565b60206040518083038186803b158015611d7357600080fd5b505af4158015611d87573d6000803e3d6000fd5b505050506040513d601f19601f82011682018060405250810190611dab9190613a9c565b905092915050565b6000606960050154905090565b600073cBE5ee787d60CfA0dde84F8cfb677827A11dd7C863ca72a6fd6069607660008773ffffffffffffffffffffffffffffffffffffffff1673ffffffffffffffffffffffffffffffffffffffff168152602001908152602001600020856040518463ffffffff1660e01b8152600401611e3c939291906143f0565b60206040518083038186803b158015611e5457600080fd5b505af4158015611e68573d6000803e3d6000fd5b505050506040513d601f19601f82011682018060405250810190611e8c9190613a9c565b905092915050565b600073cBE5ee787d60CfA0dde84F8cfb677827A11dd7C863607082a36069607660008773ffffffffffffffffffffffffffffffffffffffff1673ffffffffffffffffffffffffffffffffffffffff168152602001908152602001600020856040518463ffffffff1660e01b8152600401611f10939291906143f0565b60206040518083038186803b158015611f2857600080fd5b505af4158015611f3c573d6000803e3d6000fd5b505050506040513d601f19601f82011682018060405250810190611f609190613a9c565b905092915050565b6000606960060154905090565b611f7d612eb0565b73ffffffffffffffffffffffffffffffffffffffff16611f9b611cb5565b73ffffffffffffffffffffffffffffffffffffffff1614611ff1576040517f08c379a0000000000000000000000000000000000000000000000000000000008152600401611fe8906141e0565b60405180910390fd5b611ffc838383612f7e565b505050565b6000606960020154905090565b60658060010154908060020154908060030160009054906101000a900473ffffffffffffffffffffffffffffffffffffffff16905083565b61204e613636565b612056613636565b82607660008673ffffffffffffffffffffffffffffffffffffffff1673ffffffffffffffffffffffffffffffffffffffff16815260200190815260200160002080549050116120a55780612205565b607660008573ffffffffffffffffffffffffffffffffffffffff1673ffffffffffffffffffffffffffffffffffffffff168152602001908152602001600020838154811061211c577f4e487b7100000000000000000000000000000000000000000000000000000000600052603260045260246000fd5b90600052602060002090600b020160405180610140016040529081600082015481526020016001820154815260200160028201548152602001600382015481526020016004820154815260200160058201548152602001600682015481526020016007820154815260200160088201548152602001600982016040518060400160405290816000820160009054906101000a900473ffffffffffffffffffffffffffffffffffffffff1673ffffffffffffffffffffffffffffffffffffffff1673ffffffffffffffffffffffffffffffffffffffff168152602001600182015481525050815250505b91505092915050565b73cBE5ee787d60CfA0dde84F8cfb677827A11dd7C863e64a80e860656069607660008973ffffffffffffffffffffffffffffffffffffffff1673ffffffffffffffffffffffffffffffffffffffff1681526020019081526020016000208787876040518763ffffffff1660e01b815260040161228f969594939291906142f8565b60006040518083038186803b1580156122a757600080fd5b505af41580156122bb573d6000803e3d6000fd5b5050505050505050565b600073cBE5ee787d60CfA0dde84F8cfb677827A11dd7C863fd9d95ce60656069607660003373ffffffffffffffffffffffffffffffffffffffff1673ffffffffffffffffffffffffffffffffffffffff16815260200190815260200160002073cBE5ee787d60CfA0dde84F8cfb677827A11dd7C8637bc0bc9289896040518363ffffffff1660e01b815260040161235d92919061411c565b60206040518083038186803b15801561237557600080fd5b505af4158015612389573d6000803e3d6000fd5b505050506040513d601f19601f820116820180604052508101906123ad9190613a9c565b6040518563ffffffff1660e01b81526004016123cc94939291906142b3565b60206040518083038186803b1580156123e457600080fd5b505af41580156123f8573d6000803e3d6000fd5b505050506040513d601f19601f8201168201806040525081019061241c9190613a9c565b90503373ffffffffffffffffffffffffffffffffffffffff167faf01bfc8475df280aca00b578c4a948e6d95700f0db8c13365240f7f973c87548260696004015473cBE5ee787d60CfA0dde84F8cfb677827A11dd7C8637bc0bc9288886040518363ffffffff1660e01b815260040161249692919061411c565b60206040518083038186803b1580156124ae57600080fd5b505af41580156124c2573d6000803e3d6000fd5b505050506040513d601f19601f820116820180604052508101906124e69190613a9c565b6040516020016124f69190614042565b6040516020818303038152906040526040516125149392919061452b565b60405180910390a250505050565b80607660003373ffffffffffffffffffffffffffffffffffffffff1673ffffffffffffffffffffffffffffffffffffffff16815260200190815260200160002080549050116125a6576040517f08c379a000000000000000000000000000000000000000000000000000000000815260040161259d90614200565b60405180910390fd5b73cBE5ee787d60CfA0dde84F8cfb677827A11dd7C8639e5236506069600b0160009054906101000a900473ffffffffffffffffffffffffffffffffffffffff16607660003373ffffffffffffffffffffffffffffffffffffffff1673ffffffffffffffffffffffffffffffffffffffff168152602001908152602001600020848154811061265d577f4e487b7100000000000000000000000000000000000000000000000000000000600052603260045260246000fd5b90600052602060002090600b0201336040518463ffffffff1660e01b815260040161268a93929190614078565b60006040518083038186803b1580156126a257600080fd5b505af41580156126b6573d6000803e3d6000fd5b5050505050565b6000606960000154905090565b600073Fa4EAb7B53B3530Ea1DdC871B1c02D3dB13d862563c02ceb0a6065606960010154436040518463ffffffff1660e01b815260040161270d93929190614359565b60206040518083038186803b15801561272557600080fd5b505af4158015612739573d6000803e3d6000fd5b505050506040513d601f19601f8201168201806040525081019061275d9190613a9c565b905090565b61276a612eb0565b73ffffffffffffffffffffffffffffffffffffffff16612788611cb5565b73ffffffffffffffffffffffffffffffffffffffff16146127de576040517f08c379a00000000000000000000000000000000000000000000000000000000081526004016127d5906141e0565b60405180910390fd5b60008111612821576040517f08c379a000000000000000000000000000000000000000000000000000000000815260040161281890614180565b60405180910390fd5b806069600a01819055507ff1f5ae77540b6589b1d7d2229d1090fe3218df85d839b22034e4204ebec02b808160405161285a91906144d9565b60405180910390a150565b600060019054906101000a900460ff168061288b575060008054906101000a900460ff16155b6128ca576040517f08c379a00000000000000000000000000000000000000000000000000000000081526004016128c1906141c0565b60405180910390fd5b60008060019054906101000a900460ff16159050801561291a576001600060016101000a81548160ff02191690831515021790555060016000806101000a81548160ff0219169083151502179055505b855187511461295e576040517f08c379a0000000000000000000000000000000000000000000000000000000008152600401612955906141a0565b60405180910390fd5b612966613050565b61296f89613139565b61299782670de0b6b3a76400006129906001436131a690919063ffffffff16565b60006131bc565b6129b7670de0b6b3a76400006069600501546131a690919063ffffffff16565b6069600501819055506129e0670de0b6b3a76400006069600401546131a690919063ffffffff16565b6069600401819055508660696007019080519060200190612a0292919061368f565b508560696008019080519060200190612a1c92919061368f565b504360696000018190555043606960010181905550612a3a84612762565b612a43856116cf565b612a4c88610e2c565b612a5583612d73565b436065600201819055508015612a805760008060016101000a81548160ff0219169083151502179055505b505050505050505050565b612a93612eb0565b73ffffffffffffffffffffffffffffffffffffffff16612ab1611cb5565b73ffffffffffffffffffffffffffffffffffffffff1614612b07576040517f08c379a0000000000000000000000000000000000000000000000000000000008152600401612afe906141e0565b60405180910390fd5b600073ffffffffffffffffffffffffffffffffffffffff168173ffffffffffffffffffffffffffffffffffffffff161415612b77576040517f08c379a0000000000000000000000000000000000000000000000000000000008152600401612b6e90614160565b60405180910390fd5b612b8081612eb8565b50565b600073cBE5ee787d60CfA0dde84F8cfb677827A11dd7C86355facecf60656069607660008873ffffffffffffffffffffffffffffffffffffffff1673ffffffffffffffffffffffffffffffffffffffff168152602001908152602001600020866040518563ffffffff1660e01b8152600401612c0294939291906142b3565b60206040518083038186803b158015612c1a57600080fd5b505af4158015612c2e573d6000803e3d6000fd5b505050506040513d601f19601f82011682018060405250810190612c529190613a9c565b905092915050565b600060696007018281548110612c99577f4e487b7100000000000000000000000000000000000000000000000000000000600052603260045260246000fd5b90600052602060002001549050919050565b600073cBE5ee787d60CfA0dde84F8cfb677827A11dd7C8638714b7676069612cd16126ca565b60006040518463ffffffff1660e01b8152600401612cf193929190614427565b60206040518083038186803b158015612d0957600080fd5b505af4158015612d1d573d6000803e3d6000fd5b505050506040513d601f19601f82011682018060405250810190612d419190613a9c565b905090565b6000606560030160009054906101000a900473ffffffffffffffffffffffffffffffffffffffff16905090565b612d7b612eb0565b73ffffffffffffffffffffffffffffffffffffffff16612d99611cb5565b73ffffffffffffffffffffffffffffffffffffffff1614612def576040517f08c379a0000000000000000000000000000000000000000000000000000000008152600401612de6906141e0565b60405180910390fd5b806069600c0160006101000a81548173ffffffffffffffffffffffffffffffffffffffff021916908373ffffffffffffffffffffffffffffffffffffffff1602179055507fc18194c6c34249ab46b40f342dc0b94dc875bfb79a6078e7e97a265b280c86c581604051612e62919061405d565b60405180910390a150565b6000606560030160009054906101000a900473ffffffffffffffffffffffffffffffffffffffff16905090565b60008183612ea89190614691565b905092915050565b600033905090565b6000603360009054906101000a900473ffffffffffffffffffffffffffffffffffffffff16905081603360006101000a81548173ffffffffffffffffffffffffffffffffffffffff021916908373ffffffffffffffffffffffffffffffffffffffff1602179055508173ffffffffffffffffffffffffffffffffffffffff168173ffffffffffffffffffffffffffffffffffffffff167f8be0079c531659141344cd1fd0a4f28419497f9722a3daafe3b4186f6b6457e060405160405180910390a35050565b600073Fa4EAb7B53B3530Ea1DdC871B1c02D3dB13d862563b9718d4260658686866040518563ffffffff1660e01b8152600401612fbe9493929190614390565b60206040518083038186803b158015612fd657600080fd5b505af4158015612fea573d6000803e3d6000fd5b505050506040513d601f19601f8201168201806040525081019061300e9190613a9c565b90507eea3fed021bf73e9d965a834bae8937340da031a31743fc4b6dc656a78fcc0583838360405161304293929190614569565b60405180910390a150505050565b600060019054906101000a900460ff1680613076575060008054906101000a900460ff16155b6130b5576040517f08c379a00000000000000000000000000000000000000000000000000000000081526004016130ac906141c0565b60405180910390fd5b60008060019054906101000a900460ff161590508015613105576001600060016101000a81548160ff02191690831515021790555060016000806101000a81548160ff0219169083151502179055505b61310d613444565b61311561351d565b80156131365760008060016101000a81548160ff0219169083151502179055505b50565b73Fa4EAb7B53B3530Ea1DdC871B1c02D3dB13d862563973ccf5b6065836040518363ffffffff1660e01b8152600401613173929190614220565b60006040518083038186803b15801561318b57600080fd5b505af415801561319f573d6000803e3d6000fd5b5050505050565b600081836131b4919061463b565b905092915050565b607660008573ffffffffffffffffffffffffffffffffffffffff1673ffffffffffffffffffffffffffffffffffffffff168152602001908152602001600020604051806101400160405280858152602001858152602001848152602001606960020154815260200160696009015481526020016069600a0154815260200161324d84866131a690919063ffffffff16565b815260200160008152602001600081526020016040518060400160405280600073ffffffffffffffffffffffffffffffffffffffff168152602001600081525081525090806001815401808255809150506001900390600052602060002090600b0201600090919091909150600082015181600001556020820151816001015560408201518160020155606082015181600301556080820151816004015560a0820151816005015560c0820151816006015560e0820151816007015561010082015181600801556101208201518160090160008201518160000160006101000a81548173ffffffffffffffffffffffffffffffffffffffff021916908373ffffffffffffffffffffffffffffffffffffffff16021790555060208201518160010155505050508373ffffffffffffffffffffffffffffffffffffffff167fc65e53b88159e7d2c0fc12a0600072e28ae53ff73b4c1715369c30f160935142846069600401546134086001607660008b73ffffffffffffffffffffffffffffffffffffffff1673ffffffffffffffffffffffffffffffffffffffff16815260200190815260200160002080549050612e9a90919063ffffffff16565b6040516020016134189190614042565b6040516020818303038152906040526040516134369392919061452b565b60405180910390a250505050565b600060019054906101000a900460ff168061346a575060008054906101000a900460ff16155b6134a9576040517f08c379a00000000000000000000000000000000000000000000000000000000081526004016134a0906141c0565b60405180910390fd5b60008060019054906101000a900460ff1615905080156134f9576001600060016101000a81548160ff02191690831515021790555060016000806101000a81548160ff0219169083151502179055505b801561351a5760008060016101000a81548160ff0219169083151502179055505b50565b600060019054906101000a900460ff1680613543575060008054906101000a900460ff16155b613582576040517f08c379a0000000000000000000000000000000000000000000000000000000008152600401613579906141c0565b60405180910390fd5b60008060019054906101000a900460ff1615905080156135d2576001600060016101000a81548160ff02191690831515021790555060016000806101000a81548160ff0219169083151502179055505b6135e26135dd612eb0565b612eb8565b80156136035760008060016101000a81548160ff0219169083151502179055505b50565b6040518060400160405280600073ffffffffffffffffffffffffffffffffffffffff168152602001600081525090565b604051806101400160405280600081526020016000815260200160008152602001600081526020016000815260200160008152602001600081526020016000815260200160008152602001613689613606565b81525090565b8280548282559060005260206000209081019282156136cb579160200282015b828111156136ca5782518255916020019190600101906136af565b5b5090506136d891906136dc565b5090565b5b808211156136f55760008160009055506001016136dd565b5090565b600061370c613707846145d1565b6145a0565b9050808382526020820190508285602086028201111561372b57600080fd5b60005b8581101561375b578161374188826137ee565b84526020840193506020830192505060018101905061372e565b5050509392505050565b600081359050613774816147c8565b92915050565b600082601f83011261378b57600080fd5b813561379b8482602086016136f9565b91505092915050565b60008083601f8401126137b657600080fd5b8235905067ffffffffffffffff8111156137cf57600080fd5b6020830191508360018202830111156137e757600080fd5b9250929050565b6000813590506137fd816147df565b92915050565b600081519050613812816147df565b92915050565b60006020828403121561382a57600080fd5b600061383884828501613765565b91505092915050565b600080600080600080600080610100898b03121561385e57600080fd5b600061386c8b828c01613765565b985050602061387d8b828c01613765565b975050604089013567ffffffffffffffff81111561389a57600080fd5b6138a68b828c0161377a565b965050606089013567ffffffffffffffff8111156138c357600080fd5b6138cf8b828c0161377a565b95505060806138e08b828c016137ee565b94505060a06138f18b828c016137ee565b93505060c06139028b828c01613765565b92505060e06139138b828c01613765565b9150509295985092959890939650565b6000806040838503121561393657600080fd5b600061394485828601613765565b9250506020613955858286016137ee565b9150509250929050565b6000806000806080858703121561397557600080fd5b600061398387828801613765565b9450506020613994878288016137ee565b93505060406139a587828801613765565b92505060606139b6878288016137ee565b91505092959194509250565b600080600080606085870312156139d857600080fd5b60006139e687828801613765565b94505060206139f7878288016137ee565b935050604085013567ffffffffffffffff811115613a1457600080fd5b613a20878288016137a4565b925092505092959194509250565b60008060208385031215613a4157600080fd5b600083013567ffffffffffffffff811115613a5b57600080fd5b613a67858286016137a4565b92509250509250929050565b600060208284031215613a8557600080fd5b6000613a93848285016137ee565b91505092915050565b600060208284031215613aae57600080fd5b6000613abc84828501613803565b91505092915050565b600080600060408486031215613ada57600080fd5b6000613ae8868287016137ee565b935050602084013567ffffffffffffffff811115613b0557600080fd5b613b11868287016137a4565b92509250509250925092565b60008060408385031215613b3057600080fd5b6000613b3e858286016137ee565b9250506020613b4f858286016137ee565b9150509250929050565b600080600060608486031215613b6e57600080fd5b6000613b7c868287016137ee565b9350506020613b8d868287016137ee565b9250506040613b9e868287016137ee565b9150509250925092565b613bb1816146c5565b82525050565b613bc0816146c5565b82525050565b613bcf816146c5565b82525050565b8082525050565b613be5816146d7565b82525050565b613bf4816146d7565b82525050565b6000613c068385614619565b9350613c1383858461470d565b613c1c836147b7565b840190509392505050565b6000613c32826145fd565b613c3c8185614608565b9350613c4c81856020860161471c565b613c55816147b7565b840191505092915050565b6000613c6d601e8361462a565b91507f5374616b696e673a205374616b65206973207374696c6c206c6f636b656400006000830152602082019050919050565b6000613cad60268361462a565b91507f4f776e61626c653a206e6577206f776e657220697320746865207a65726f206160008301527f64647265737300000000000000000000000000000000000000000000000000006020830152604082019050919050565b6000613d1360308361462a565b91507f5374616b696e673a207469636b6574734d696e74696e674368696c6c5065726960008301527f6f642063616e2774206265207a65726f000000000000000000000000000000006020830152604082019050919050565b6000613d79603b8361462a565b91507f5374616b653a206c6f636b206d756c7469706c6965722073686f756c6420686160008301527f7665207468652073616d65206c656e677468206164206c6f636b7300000000006020830152604082019050919050565b6000613ddf602e8361462a565b91507f496e697469616c697a61626c653a20636f6e747261637420697320616c72656160008301527f647920696e697469616c697a65640000000000000000000000000000000000006020830152604082019050919050565b6000613e4560208361462a565b91507f4f776e61626c653a2063616c6c6572206973206e6f7420746865206f776e65726000830152602082019050919050565b6000613e85601d8361462a565b91507f5374616b696e673a207374616b6520646f6573206e6f742065786973740000006000830152602082019050919050565b8082525050565b8082525050565b61016082016000820151613edd6000850182613ffe565b506020820151613ef06020850182613ffe565b506040820151613f036040850182613ffe565b506060820151613f166060850182613ffe565b506080820151613f296080850182613ffe565b5060a0820151613f3c60a0850182613ffe565b5060c0820151613f4f60c0850182613ffe565b5060e0820151613f6260e0850182613ffe565b50610100820151613f77610100850182613ffe565b50610120820151613f8c610120850182613f99565b50505050565b8082525050565b604082016000820151613faf6000850182613ba8565b506020820151613fc26020850182613ffe565b50505050565b604082016000820151613fde6000850182613ba8565b506020820151613ff16020850182613ffe565b50505050565b8082525050565b61400781614703565b82525050565b61401681614703565b82525050565b61402581614703565b82525050565b61403c61403782614703565b61474f565b82525050565b600061404e828461402b565b60208201915081905092915050565b60006020820190506140726000830184613bb7565b92915050565b600060608201905061408d6000830186613bc6565b61409a6020830185613f92565b6140a76040830184613bc6565b949350505050565b60006020820190506140c46000830184613bd5565b92915050565b60006060820190506140df6000830186613bd5565b6140ec602083018561401c565b6140f9604083018461401c565b949350505050565b60006020820190506141166000830184613bdc565b92915050565b60006020820190508181036000830152614137818486613bfa565b90509392505050565b6000602082019050818103600083015261415981613c60565b9050919050565b6000602082019050818103600083015261417981613ca0565b9050919050565b6000602082019050818103600083015261419981613d06565b9050919050565b600060208201905081810360008301526141b981613d6c565b9050919050565b600060208201905081810360008301526141d981613dd2565b9050919050565b600060208201905081810360008301526141f981613e38565b9050919050565b6000602082019050818103600083015261421981613e78565b9050919050565b60006040820190506142356000830185613eb8565b6142426020830184613bc6565b9392505050565b600060c08201905061425e600083018a613eb8565b61426b6020830189613ebf565b6142786040830188613bd5565b6142856060830187613bc6565b614292608083018661401c565b81810360a08301526142a5818486613bfa565b905098975050505050505050565b60006080820190506142c86000830187613eb8565b6142d56020830186613ebf565b6142e26040830185613bd5565b6142ef606083018461401c565b95945050505050565b600060c08201905061430d6000830189613eb8565b61431a6020830188613ebf565b6143276040830187613bd5565b614334606083018661401c565b6143416080830185613bc6565b61434e60a083018461401c565b979650505050505050565b600060608201905061436e6000830186613eb8565b61437b602083018561401c565b614388604083018461401c565b949350505050565b60006080820190506143a56000830187613eb8565b6143b2602083018661401c565b6143bf604083018561401c565b6143cc606083018461401c565b95945050505050565b60006020820190506143ea6000830184613ebf565b92915050565b60006060820190506144056000830186613ebf565b6144126020830185613bd5565b61441f604083018461401c565b949350505050565b600060608201905061443c6000830186613ebf565b614449602083018561401c565b6144566040830184613beb565b949350505050565b6000610160820190506144746000830184613ec6565b92915050565b600060208201905061448f6000830184613f92565b92915050565b60006040820190506144aa6000830184613fc8565b92915050565b60006040820190506144c56000830185613ff7565b6144d26020830184613bc6565b9392505050565b60006020820190506144ee600083018461400d565b92915050565b6000606082019050614509600083018661400d565b614516602083018561400d565b6145236040830184613bb7565b949350505050565b6000606082019050614540600083018661400d565b61454d602083018561400d565b818103604083015261455f8184613c27565b9050949350505050565b600060608201905061457e600083018661400d565b61458b602083018561400d565b614598604083018461400d565b949350505050565b6000604051905081810181811067ffffffffffffffff821117156145c7576145c6614788565b5b8060405250919050565b600067ffffffffffffffff8211156145ec576145eb614788565b5b602082029050602081019050919050565b600081519050919050565b600082825260208201905092915050565b600082825260208201905092915050565b600082825260208201905092915050565b600061464682614703565b915061465183614703565b9250827fffffffffffffffffffffffffffffffffffffffffffffffffffffffffffffffff0382111561468657614685614759565b5b828201905092915050565b600061469c82614703565b91506146a783614703565b9250828210156146ba576146b9614759565b5b828203905092915050565b60006146d0826146e3565b9050919050565b60008115159050919050565b600073ffffffffffffffffffffffffffffffffffffffff82169050919050565b6000819050919050565b82818337600083830152505050565b60005b8381101561473a57808201518184015260208101905061471f565b83811115614749576000848401525b50505050565b6000819050919050565b7f4e487b7100000000000000000000000000000000000000000000000000000000600052601160045260246000fd5b7f4e487b7100000000000000000000000000000000000000000000000000000000600052604160045260246000fd5b6000601f19601f8301169050919050565b6147d1816146c5565b81146147dc57600080fd5b50565b6147e881614703565b81146147f357600080fd5b5056fea26469706673582212200cbca98b946c164697aaf5b5685b9511ccc227fedac387d649760c46be60690a64736f6c63430008000033",
  "deployedBytecode": "0x608060405234801561001057600080fd5b50600436106102f15760003560e01c8063842e29811161019d578063c8fd6ed0116100e9578063f2fde38b116100a2578063f59cc39b1161007c578063f59cc39b14610946578063f7c618c114610964578063fa55df1814610982578063fc0c546a1461099e576102f1565b8063f2fde38b146108ca578063f3a35da1146108e6578063f4dadc6114610916576102f1565b8063c8fd6ed01461081e578063ca8df1101461083a578063cd459c8a14610856578063d91fe2ef14610874578063db53470514610892578063edac59f8146108ae576102f1565b80639fc41bb711610156578063ae0c6fd811610130578063ae0c6fd814610794578063b4db1720146107b2578063b5d5b5fa146107d2578063bf60f25714610802576102f1565b80639fc41bb71461072a578063a87df8321461075a578063aab9099e14610778576102f1565b8063842e298114610642578063892e7cfa146106725780638da5cb5b1461068e5780639189cdde146106ac57806399a9f1b5146106dc5780639f40bd63146106fa576102f1565b806352ceb0471161025c5780636d2196b51161021557806380dc439c116101ef57806380dc439c146105b8578063817b1cd2146105e857806382ccf18314610606578063839e794a14610624576102f1565b80636d2196b5146105725780637033e4a614610590578063715018a6146105ae576102f1565b806352ceb047146104ae5780635478f468146104ca5780635d003824146104e85780635df6fd1814610506578063682c3f55146105245780636c19b41c14610542576102f1565b806322178e8f116102ae57806322178e8f146103b65780632f43f4d1146103d25780634a0ef78b146103ee5780634b341aed1461041e5780635001c9bd1461044e57806352c4dc261461047e576102f1565b8063061886cd146102f657806309af60a7146103265780630e89439b146103445780630ef96356146103605780631c65c78b1461037c578063202bc5de14610398575b600080fd5b610310600480360381019061030b9190613923565b6109bc565b60405161031d9190614495565b60405180910390f35b61032e610b18565b60405161033b91906144d9565b60405180910390f35b61035e60048036038101906103599190613ac5565b610b25565b005b61037a600480360381019061037591906139c2565b610ca8565b005b61039660048036038101906103919190613818565b610e2c565b005b6103a0610eef565b6040516103ad919061405d565b60405180910390f35b6103d060048036038101906103cb9190613a2e565b610f1c565b005b6103ec60048036038101906103e79190613b59565b611168565b005b61040860048036038101906104039190613923565b6112bc565b60405161041591906144d9565b60405180910390f35b61043860048036038101906104339190613818565b611390565b60405161044591906144d9565b60405180910390f35b61046860048036038101906104639190613923565b61145e565b60405161047591906144d9565b60405180910390f35b61049860048036038101906104939190613923565b6115f7565b6040516104a591906144d9565b60405180910390f35b6104c860048036038101906104c39190613a73565b6116cf565b005b6104d261178f565b6040516104df91906144d9565b60405180910390f35b6104f061181e565b6040516104fd91906144d9565b60405180910390f35b61050e6118b6565b60405161051b91906144d9565b60405180910390f35b61052c6118c3565b60405161053991906144d9565b60405180910390f35b61055c60048036038101906105579190613923565b6118d0565b60405161056991906144d9565b60405180910390f35b61057a6119a7565b60405161058791906144d9565b60405180910390f35b6105986119b4565b6040516105a59190614101565b60405180910390f35b6105b66119b9565b005b6105d260048036038101906105cd9190613a73565b611a41565b6040516105df91906144d9565b60405180910390f35b6105f0611a92565b6040516105fd91906144d9565b60405180910390f35b61060e611a9f565b60405161061b91906144d9565b60405180910390f35b61062c611b2e565b60405161063991906144d9565b60405180910390f35b61065c60048036038101906106579190613818565b611b3b565b60405161066991906144d9565b60405180910390f35b61068c60048036038101906106879190613b1d565b611b87565b005b610696611cb5565b6040516106a3919061405d565b60405180910390f35b6106c660048036038101906106c19190613923565b611cdf565b6040516106d391906144d9565b60405180910390f35b6106e4611db3565b6040516106f191906144d9565b60405180910390f35b610714600480360381019061070f9190613923565b611dc0565b60405161072191906144d9565b60405180910390f35b610744600480360381019061073f9190613923565b611e94565b60405161075191906144d9565b60405180910390f35b610762611f68565b60405161076f91906144d9565b60405180910390f35b610792600480360381019061078d9190613b59565b611f75565b005b61079c612001565b6040516107a991906144d9565b60405180910390f35b6107ba61200e565b6040516107c9939291906144f4565b60405180910390f35b6107ec60048036038101906107e79190613923565b612046565b6040516107f9919061445e565b60405180910390f35b61081c6004803603810190610817919061395f565b61220e565b005b61083860048036038101906108339190613ac5565b6122c5565b005b610854600480360381019061084f9190613a73565b612522565b005b61085e6126bd565b60405161086b91906144d9565b60405180910390f35b61087c6126ca565b60405161088991906144d9565b60405180910390f35b6108ac60048036038101906108a79190613a73565b612762565b005b6108c860048036038101906108c39190613841565b612865565b005b6108e460048036038101906108df9190613818565b612a8b565b005b61090060048036038101906108fb9190613923565b612b83565b60405161090d91906144d9565b60405180910390f35b610930600480360381019061092b9190613a73565b612c5a565b60405161093d91906144d9565b60405180910390f35b61094e612cab565b60405161095b91906144d9565b60405180910390f35b61096c612d46565b604051610979919061405d565b60405180910390f35b61099c60048036038101906109979190613818565b612d73565b005b6109a6612e6d565b6040516109b3919061405d565b60405180910390f35b6109c4613606565b6109cc613606565b82607660008673ffffffffffffffffffffffffffffffffffffffff1673ffffffffffffffffffffffffffffffffffffffff1681526020019081526020016000208054905011610a1b5780610b0f565b607660008573ffffffffffffffffffffffffffffffffffffffff1673ffffffffffffffffffffffffffffffffffffffff1681526020019081526020016000208381548110610a92577f4e487b7100000000000000000000000000000000000000000000000000000000600052603260045260246000fd5b90600052602060002090600b02016009016040518060400160405290816000820160009054906101000a900473ffffffffffffffffffffffffffffffffffffffff1673ffffffffffffffffffffffffffffffffffffffff1673ffffffffffffffffffffffffffffffffffffffff1681526020016001820154815250505b91505092915050565b6000606960030154905090565b73__$16107f05d8fa5d4ffb36ab8866f0e3fbf5$__63e6c8af4b60656069607660003373ffffffffffffffffffffffffffffffffffffffff1673ffffffffffffffffffffffffffffffffffffffff168152602001908152602001600020338888886040518863ffffffff1660e01b8152600401610ba89796959493929190614249565b60006040518083038186803b158015610bc057600080fd5b505af4158015610bd4573d6000803e3d6000fd5b505050503373ffffffffffffffffffffffffffffffffffffffff167fc65e53b88159e7d2c0fc12a0600072e28ae53ff73b4c1715369c30f16093514284606960040154610c6d6001607660003373ffffffffffffffffffffffffffffffffffffffff1673ffffffffffffffffffffffffffffffffffffffff16815260200190815260200160002080549050612e9a90919063ffffffff16565b604051602001610c7d9190614042565b604051602081830303815290604052604051610c9b9392919061452b565b60405180910390a2505050565b73__$16107f05d8fa5d4ffb36ab8866f0e3fbf5$__63e6c8af4b60656069607660008973ffffffffffffffffffffffffffffffffffffffff1673ffffffffffffffffffffffffffffffffffffffff168152602001908152602001600020888888886040518863ffffffff1660e01b8152600401610d2b9796959493929190614249565b60006040518083038186803b158015610d4357600080fd5b505af4158015610d57573d6000803e3d6000fd5b505050508373ffffffffffffffffffffffffffffffffffffffff167fc65e53b88159e7d2c0fc12a0600072e28ae53ff73b4c1715369c30f16093514284606960040154610df06001607660008b73ffffffffffffffffffffffffffffffffffffffff1673ffffffffffffffffffffffffffffffffffffffff16815260200190815260200160002080549050612e9a90919063ffffffff16565b604051602001610e009190614042565b604051602081830303815290604052604051610e1e9392919061452b565b60405180910390a250505050565b610e34612eb0565b73ffffffffffffffffffffffffffffffffffffffff16610e52611cb5565b73ffffffffffffffffffffffffffffffffffffffff1614610ea8576040517f08c379a0000000000000000000000000000000000000000000000000000000008152600401610e9f906141e0565b60405180910390fd5b806069600b0160006101000a81548173ffffffffffffffffffffffffffffffffffffffff021916908373ffffffffffffffffffffffffffffffffffffffff16021790555050565b60006069600c0160009054906101000a900473ffffffffffffffffffffffffffffffffffffffff16905090565b600073__$16107f05d8fa5d4ffb36ab8866f0e3fbf5$__637bc0bc9284846040518363ffffffff1660e01b8152600401610f5792919061411c565b60206040518083038186803b158015610f6f57600080fd5b505af4158015610f83573d6000803e3d6000fd5b505050506040513d601f19601f82011682018060405250810190610fa79190613a9c565b905043607660003373ffffffffffffffffffffffffffffffffffffffff1673ffffffffffffffffffffffffffffffffffffffff1681526020019081526020016000208281548110611021577f4e487b7100000000000000000000000000000000000000000000000000000000600052603260045260246000fd5b90600052602060002090600b02016006015410611073576040517f08c379a000000000000000000000000000000000000000000000000000000000815260040161106a90614140565b60405180910390fd5b73__$16107f05d8fa5d4ffb36ab8866f0e3fbf5$__63dd218078607660003373ffffffffffffffffffffffffffffffffffffffff1673ffffffffffffffffffffffffffffffffffffffff1681526020019081526020016000208381548110611104577f4e487b7100000000000000000000000000000000000000000000000000000000600052603260045260246000fd5b90600052602060002090600b0201600901336040518363ffffffff1660e01b81526004016111339291906144b0565b60006040518083038186803b15801561114b57600080fd5b505af415801561115f573d6000803e3d6000fd5b50505050505050565b611170612eb0565b73ffffffffffffffffffffffffffffffffffffffff1661118e611cb5565b73ffffffffffffffffffffffffffffffffffffffff16146111e4576040517f08c379a00000000000000000000000000000000000000000000000000000000081526004016111db906141e0565b60405180910390fd5b8160696007018481548110611222577f4e487b7100000000000000000000000000000000000000000000000000000000600052603260045260246000fd5b9060005260206000200181905550806069600801848154811061126e577f4e487b7100000000000000000000000000000000000000000000000000000000600052603260045260246000fd5b90600052602060002001819055507fb6bf12d706559fbee13bb278c735a72b00d839867b2b1a1d982ebf47babc09278383836040516112af93929190614569565b60405180910390a1505050565b600073__$16107f05d8fa5d4ffb36ab8866f0e3fbf5$__638f3b32786069607660008773ffffffffffffffffffffffffffffffffffffffff1673ffffffffffffffffffffffffffffffffffffffff168152602001908152602001600020856040518463ffffffff1660e01b8152600401611338939291906143f0565b60206040518083038186803b15801561135057600080fd5b505af4158015611364573d6000803e3d6000fd5b505050506040513d601f19601f820116820180604052508101906113889190613a9c565b905092915050565b600073__$16107f05d8fa5d4ffb36ab8866f0e3fbf5$__639ac9e04a607660008573ffffffffffffffffffffffffffffffffffffffff1673ffffffffffffffffffffffffffffffffffffffff1681526020019081526020016000206040518263ffffffff1660e01b815260040161140791906140af565b60206040518083038186803b15801561141f57600080fd5b505af4158015611433573d6000803e3d6000fd5b505050506040513d601f19601f820116820180604052508101906114579190613a9c565b9050919050565b600081607660008573ffffffffffffffffffffffffffffffffffffffff1673ffffffffffffffffffffffffffffffffffffffff16815260200190815260200160002080549050116114e4576040517f08c379a00000000000000000000000000000000000000000000000000000000081526004016114db90614200565b60405180910390fd5b73__$16107f05d8fa5d4ffb36ab8866f0e3fbf5$__637946fbde607660008673ffffffffffffffffffffffffffffffffffffffff1673ffffffffffffffffffffffffffffffffffffffff1681526020019081526020016000208481548110611575577f4e487b7100000000000000000000000000000000000000000000000000000000600052603260045260246000fd5b90600052602060002090600b02016040518263ffffffff1660e01b815260040161159f919061447a565b60206040518083038186803b1580156115b757600080fd5b505af41580156115cb573d6000803e3d6000fd5b505050506040513d601f19601f820116820180604052508101906115ef9190613a9c565b905092915050565b600073__$16107f05d8fa5d4ffb36ab8866f0e3fbf5$__639c2cbc8d607660008673ffffffffffffffffffffffffffffffffffffffff1673ffffffffffffffffffffffffffffffffffffffff168152602001908152602001600020846069600501546040518463ffffffff1660e01b8152600401611677939291906140ca565b60206040518083038186803b15801561168f57600080fd5b505af41580156116a3573d6000803e3d6000fd5b505050506040513d601f19601f820116820180604052508101906116c79190613a9c565b905092915050565b6116d7612eb0565b73ffffffffffffffffffffffffffffffffffffffff166116f5611cb5565b73ffffffffffffffffffffffffffffffffffffffff161461174b576040517f08c379a0000000000000000000000000000000000000000000000000000000008152600401611742906141e0565b60405180910390fd5b806069600901819055507f7a452c2a10e8d62d109ecca1814d427d1cc00b6f7f4c33210dec6b37a3807f0f8160405161178491906144d9565b60405180910390a150565b600073__$16107f05d8fa5d4ffb36ab8866f0e3fbf5$__631388950060696040518263ffffffff1660e01b81526004016117c991906143d5565b60206040518083038186803b1580156117e157600080fd5b505af41580156117f5573d6000803e3d6000fd5b505050506040513d601f19601f820116820180604052508101906118199190613a9c565b905090565b600073__$8a1be47e59849b3a56075319f035db0fe2$__63c02ceb0a6065606960000154436040518463ffffffff1660e01b815260040161186193929190614359565b60206040518083038186803b15801561187957600080fd5b505af415801561188d573d6000803e3d6000fd5b505050506040513d601f19601f820116820180604052508101906118b19190613a9c565b905090565b60006069600a0154905090565b6000606960040154905090565b600073__$16107f05d8fa5d4ffb36ab8866f0e3fbf5$__637a54ff4160656069607660008873ffffffffffffffffffffffffffffffffffffffff1673ffffffffffffffffffffffffffffffffffffffff168152602001908152602001600020866040518563ffffffff1660e01b815260040161194f94939291906142b3565b60206040518083038186803b15801561196757600080fd5b505af415801561197b573d6000803e3d6000fd5b505050506040513d601f19601f8201168201806040525081019061199f9190613a9c565b905092915050565b6000606960090154905090565b600090565b6119c1612eb0565b73ffffffffffffffffffffffffffffffffffffffff166119df611cb5565b73ffffffffffffffffffffffffffffffffffffffff1614611a35576040517f08c379a0000000000000000000000000000000000000000000000000000000008152600401611a2c906141e0565b60405180910390fd5b611a3f6000612eb8565b565b600060696008018281548110611a80577f4e487b7100000000000000000000000000000000000000000000000000000000600052603260045260246000fd5b90600052602060002001549050919050565b6000606960040154905090565b600073__$16107f05d8fa5d4ffb36ab8866f0e3fbf5$__631dccbf8760696040518263ffffffff1660e01b8152600401611ad991906143d5565b60206040518083038186803b158015611af157600080fd5b505af4158015611b05573d6000803e3d6000fd5b505050506040513d601f19601f82011682018060405250810190611b299190613a9c565b905090565b6000606960010154905090565b6000607660008373ffffffffffffffffffffffffffffffffffffffff1673ffffffffffffffffffffffffffffffffffffffff168152602001908152602001600020805490509050919050565b611b8f612eb0565b73ffffffffffffffffffffffffffffffffffffffff16611bad611cb5565b73ffffffffffffffffffffffffffffffffffffffff1614611c03576040517f08c379a0000000000000000000000000000000000000000000000000000000008152600401611bfa906141e0565b60405180910390fd5b606960070182908060018154018082558091505060019003906000526020600020016000909190919091505560696008018190806001815401808255809150506001900390600052602060002001600090919091909150557fb6bf12d706559fbee13bb278c735a72b00d839867b2b1a1d982ebf47babc0927611c986001606960070180549050612e9a90919063ffffffff16565b8383604051611ca993929190614569565b60405180910390a15050565b6000603360009054906101000a900473ffffffffffffffffffffffffffffffffffffffff16905090565b600073__$16107f05d8fa5d4ffb36ab8866f0e3fbf5$__63d85b41f66069607660008773ffffffffffffffffffffffffffffffffffffffff1673ffffffffffffffffffffffffffffffffffffffff168152602001908152602001600020856040518463ffffffff1660e01b8152600401611d5b939291906143f0565b60206040518083038186803b158015611d7357600080fd5b505af4158015611d87573d6000803e3d6000fd5b505050506040513d601f19601f82011682018060405250810190611dab9190613a9c565b905092915050565b6000606960050154905090565b600073__$16107f05d8fa5d4ffb36ab8866f0e3fbf5$__63ca72a6fd6069607660008773ffffffffffffffffffffffffffffffffffffffff1673ffffffffffffffffffffffffffffffffffffffff168152602001908152602001600020856040518463ffffffff1660e01b8152600401611e3c939291906143f0565b60206040518083038186803b158015611e5457600080fd5b505af4158015611e68573d6000803e3d6000fd5b505050506040513d601f19601f82011682018060405250810190611e8c9190613a9c565b905092915050565b600073__$16107f05d8fa5d4ffb36ab8866f0e3fbf5$__63607082a36069607660008773ffffffffffffffffffffffffffffffffffffffff1673ffffffffffffffffffffffffffffffffffffffff168152602001908152602001600020856040518463ffffffff1660e01b8152600401611f10939291906143f0565b60206040518083038186803b158015611f2857600080fd5b505af4158015611f3c573d6000803e3d6000fd5b505050506040513d601f19601f82011682018060405250810190611f609190613a9c565b905092915050565b6000606960060154905090565b611f7d612eb0565b73ffffffffffffffffffffffffffffffffffffffff16611f9b611cb5565b73ffffffffffffffffffffffffffffffffffffffff1614611ff1576040517f08c379a0000000000000000000000000000000000000000000000000000000008152600401611fe8906141e0565b60405180910390fd5b611ffc838383612f7e565b505050565b6000606960020154905090565b60658060010154908060020154908060030160009054906101000a900473ffffffffffffffffffffffffffffffffffffffff16905083565b61204e613636565b612056613636565b82607660008673ffffffffffffffffffffffffffffffffffffffff1673ffffffffffffffffffffffffffffffffffffffff16815260200190815260200160002080549050116120a55780612205565b607660008573ffffffffffffffffffffffffffffffffffffffff1673ffffffffffffffffffffffffffffffffffffffff168152602001908152602001600020838154811061211c577f4e487b7100000000000000000000000000000000000000000000000000000000600052603260045260246000fd5b90600052602060002090600b020160405180610140016040529081600082015481526020016001820154815260200160028201548152602001600382015481526020016004820154815260200160058201548152602001600682015481526020016007820154815260200160088201548152602001600982016040518060400160405290816000820160009054906101000a900473ffffffffffffffffffffffffffffffffffffffff1673ffffffffffffffffffffffffffffffffffffffff1673ffffffffffffffffffffffffffffffffffffffff168152602001600182015481525050815250505b91505092915050565b73__$16107f05d8fa5d4ffb36ab8866f0e3fbf5$__63e64a80e860656069607660008973ffffffffffffffffffffffffffffffffffffffff1673ffffffffffffffffffffffffffffffffffffffff1681526020019081526020016000208787876040518763ffffffff1660e01b815260040161228f969594939291906142f8565b60006040518083038186803b1580156122a757600080fd5b505af41580156122bb573d6000803e3d6000fd5b5050505050505050565b600073__$16107f05d8fa5d4ffb36ab8866f0e3fbf5$__63fd9d95ce60656069607660003373ffffffffffffffffffffffffffffffffffffffff1673ffffffffffffffffffffffffffffffffffffffff16815260200190815260200160002073__$16107f05d8fa5d4ffb36ab8866f0e3fbf5$__637bc0bc9289896040518363ffffffff1660e01b815260040161235d92919061411c565b60206040518083038186803b15801561237557600080fd5b505af4158015612389573d6000803e3d6000fd5b505050506040513d601f19601f820116820180604052508101906123ad9190613a9c565b6040518563ffffffff1660e01b81526004016123cc94939291906142b3565b60206040518083038186803b1580156123e457600080fd5b505af41580156123f8573d6000803e3d6000fd5b505050506040513d601f19601f8201168201806040525081019061241c9190613a9c565b90503373ffffffffffffffffffffffffffffffffffffffff167faf01bfc8475df280aca00b578c4a948e6d95700f0db8c13365240f7f973c87548260696004015473__$16107f05d8fa5d4ffb36ab8866f0e3fbf5$__637bc0bc9288886040518363ffffffff1660e01b815260040161249692919061411c565b60206040518083038186803b1580156124ae57600080fd5b505af41580156124c2573d6000803e3d6000fd5b505050506040513d601f19601f820116820180604052508101906124e69190613a9c565b6040516020016124f69190614042565b6040516020818303038152906040526040516125149392919061452b565b60405180910390a250505050565b80607660003373ffffffffffffffffffffffffffffffffffffffff1673ffffffffffffffffffffffffffffffffffffffff16815260200190815260200160002080549050116125a6576040517f08c379a000000000000000000000000000000000000000000000000000000000815260040161259d90614200565b60405180910390fd5b73__$16107f05d8fa5d4ffb36ab8866f0e3fbf5$__639e5236506069600b0160009054906101000a900473ffffffffffffffffffffffffffffffffffffffff16607660003373ffffffffffffffffffffffffffffffffffffffff1673ffffffffffffffffffffffffffffffffffffffff168152602001908152602001600020848154811061265d577f4e487b7100000000000000000000000000000000000000000000000000000000600052603260045260246000fd5b90600052602060002090600b0201336040518463ffffffff1660e01b815260040161268a93929190614078565b60006040518083038186803b1580156126a257600080fd5b505af41580156126b6573d6000803e3d6000fd5b5050505050565b6000606960000154905090565b600073__$8a1be47e59849b3a56075319f035db0fe2$__63c02ceb0a6065606960010154436040518463ffffffff1660e01b815260040161270d93929190614359565b60206040518083038186803b15801561272557600080fd5b505af4158015612739573d6000803e3d6000fd5b505050506040513d601f19601f8201168201806040525081019061275d9190613a9c565b905090565b61276a612eb0565b73ffffffffffffffffffffffffffffffffffffffff16612788611cb5565b73ffffffffffffffffffffffffffffffffffffffff16146127de576040517f08c379a00000000000000000000000000000000000000000000000000000000081526004016127d5906141e0565b60405180910390fd5b60008111612821576040517f08c379a000000000000000000000000000000000000000000000000000000000815260040161281890614180565b60405180910390fd5b806069600a01819055507ff1f5ae77540b6589b1d7d2229d1090fe3218df85d839b22034e4204ebec02b808160405161285a91906144d9565b60405180910390a150565b600060019054906101000a900460ff168061288b575060008054906101000a900460ff16155b6128ca576040517f08c379a00000000000000000000000000000000000000000000000000000000081526004016128c1906141c0565b60405180910390fd5b60008060019054906101000a900460ff16159050801561291a576001600060016101000a81548160ff02191690831515021790555060016000806101000a81548160ff0219169083151502179055505b855187511461295e576040517f08c379a0000000000000000000000000000000000000000000000000000000008152600401612955906141a0565b60405180910390fd5b612966613050565b61296f89613139565b61299782670de0b6b3a76400006129906001436131a690919063ffffffff16565b60006131bc565b6129b7670de0b6b3a76400006069600501546131a690919063ffffffff16565b6069600501819055506129e0670de0b6b3a76400006069600401546131a690919063ffffffff16565b6069600401819055508660696007019080519060200190612a0292919061368f565b508560696008019080519060200190612a1c92919061368f565b504360696000018190555043606960010181905550612a3a84612762565b612a43856116cf565b612a4c88610e2c565b612a5583612d73565b436065600201819055508015612a805760008060016101000a81548160ff0219169083151502179055505b505050505050505050565b612a93612eb0565b73ffffffffffffffffffffffffffffffffffffffff16612ab1611cb5565b73ffffffffffffffffffffffffffffffffffffffff1614612b07576040517f08c379a0000000000000000000000000000000000000000000000000000000008152600401612afe906141e0565b60405180910390fd5b600073ffffffffffffffffffffffffffffffffffffffff168173ffffffffffffffffffffffffffffffffffffffff161415612b77576040517f08c379a0000000000000000000000000000000000000000000000000000000008152600401612b6e90614160565b60405180910390fd5b612b8081612eb8565b50565b600073__$16107f05d8fa5d4ffb36ab8866f0e3fbf5$__6355facecf60656069607660008873ffffffffffffffffffffffffffffffffffffffff1673ffffffffffffffffffffffffffffffffffffffff168152602001908152602001600020866040518563ffffffff1660e01b8152600401612c0294939291906142b3565b60206040518083038186803b158015612c1a57600080fd5b505af4158015612c2e573d6000803e3d6000fd5b505050506040513d601f19601f82011682018060405250810190612c529190613a9c565b905092915050565b600060696007018281548110612c99577f4e487b7100000000000000000000000000000000000000000000000000000000600052603260045260246000fd5b90600052602060002001549050919050565b600073__$16107f05d8fa5d4ffb36ab8866f0e3fbf5$__638714b7676069612cd16126ca565b60006040518463ffffffff1660e01b8152600401612cf193929190614427565b60206040518083038186803b158015612d0957600080fd5b505af4158015612d1d573d6000803e3d6000fd5b505050506040513d601f19601f82011682018060405250810190612d419190613a9c565b905090565b6000606560030160009054906101000a900473ffffffffffffffffffffffffffffffffffffffff16905090565b612d7b612eb0565b73ffffffffffffffffffffffffffffffffffffffff16612d99611cb5565b73ffffffffffffffffffffffffffffffffffffffff1614612def576040517f08c379a0000000000000000000000000000000000000000000000000000000008152600401612de6906141e0565b60405180910390fd5b806069600c0160006101000a81548173ffffffffffffffffffffffffffffffffffffffff021916908373ffffffffffffffffffffffffffffffffffffffff1602179055507fc18194c6c34249ab46b40f342dc0b94dc875bfb79a6078e7e97a265b280c86c581604051612e62919061405d565b60405180910390a150565b6000606560030160009054906101000a900473ffffffffffffffffffffffffffffffffffffffff16905090565b60008183612ea89190614691565b905092915050565b600033905090565b6000603360009054906101000a900473ffffffffffffffffffffffffffffffffffffffff16905081603360006101000a81548173ffffffffffffffffffffffffffffffffffffffff021916908373ffffffffffffffffffffffffffffffffffffffff1602179055508173ffffffffffffffffffffffffffffffffffffffff168173ffffffffffffffffffffffffffffffffffffffff167f8be0079c531659141344cd1fd0a4f28419497f9722a3daafe3b4186f6b6457e060405160405180910390a35050565b600073__$8a1be47e59849b3a56075319f035db0fe2$__63b9718d4260658686866040518563ffffffff1660e01b8152600401612fbe9493929190614390565b60206040518083038186803b158015612fd657600080fd5b505af4158015612fea573d6000803e3d6000fd5b505050506040513d601f19601f8201168201806040525081019061300e9190613a9c565b90507eea3fed021bf73e9d965a834bae8937340da031a31743fc4b6dc656a78fcc0583838360405161304293929190614569565b60405180910390a150505050565b600060019054906101000a900460ff1680613076575060008054906101000a900460ff16155b6130b5576040517f08c379a00000000000000000000000000000000000000000000000000000000081526004016130ac906141c0565b60405180910390fd5b60008060019054906101000a900460ff161590508015613105576001600060016101000a81548160ff02191690831515021790555060016000806101000a81548160ff0219169083151502179055505b61310d613444565b61311561351d565b80156131365760008060016101000a81548160ff0219169083151502179055505b50565b73__$8a1be47e59849b3a56075319f035db0fe2$__63973ccf5b6065836040518363ffffffff1660e01b8152600401613173929190614220565b60006040518083038186803b15801561318b57600080fd5b505af415801561319f573d6000803e3d6000fd5b5050505050565b600081836131b4919061463b565b905092915050565b607660008573ffffffffffffffffffffffffffffffffffffffff1673ffffffffffffffffffffffffffffffffffffffff168152602001908152602001600020604051806101400160405280858152602001858152602001848152602001606960020154815260200160696009015481526020016069600a0154815260200161324d84866131a690919063ffffffff16565b815260200160008152602001600081526020016040518060400160405280600073ffffffffffffffffffffffffffffffffffffffff168152602001600081525081525090806001815401808255809150506001900390600052602060002090600b0201600090919091909150600082015181600001556020820151816001015560408201518160020155606082015181600301556080820151816004015560a0820151816005015560c0820151816006015560e0820151816007015561010082015181600801556101208201518160090160008201518160000160006101000a81548173ffffffffffffffffffffffffffffffffffffffff021916908373ffffffffffffffffffffffffffffffffffffffff16021790555060208201518160010155505050508373ffffffffffffffffffffffffffffffffffffffff167fc65e53b88159e7d2c0fc12a0600072e28ae53ff73b4c1715369c30f160935142846069600401546134086001607660008b73ffffffffffffffffffffffffffffffffffffffff1673ffffffffffffffffffffffffffffffffffffffff16815260200190815260200160002080549050612e9a90919063ffffffff16565b6040516020016134189190614042565b6040516020818303038152906040526040516134369392919061452b565b60405180910390a250505050565b600060019054906101000a900460ff168061346a575060008054906101000a900460ff16155b6134a9576040517f08c379a00000000000000000000000000000000000000000000000000000000081526004016134a0906141c0565b60405180910390fd5b60008060019054906101000a900460ff1615905080156134f9576001600060016101000a81548160ff02191690831515021790555060016000806101000a81548160ff0219169083151502179055505b801561351a5760008060016101000a81548160ff0219169083151502179055505b50565b600060019054906101000a900460ff1680613543575060008054906101000a900460ff16155b613582576040517f08c379a0000000000000000000000000000000000000000000000000000000008152600401613579906141c0565b60405180910390fd5b60008060019054906101000a900460ff1615905080156135d2576001600060016101000a81548160ff02191690831515021790555060016000806101000a81548160ff0219169083151502179055505b6135e26135dd612eb0565b612eb8565b80156136035760008060016101000a81548160ff0219169083151502179055505b50565b6040518060400160405280600073ffffffffffffffffffffffffffffffffffffffff168152602001600081525090565b604051806101400160405280600081526020016000815260200160008152602001600081526020016000815260200160008152602001600081526020016000815260200160008152602001613689613606565b81525090565b8280548282559060005260206000209081019282156136cb579160200282015b828111156136ca5782518255916020019190600101906136af565b5b5090506136d891906136dc565b5090565b5b808211156136f55760008160009055506001016136dd565b5090565b600061370c613707846145d1565b6145a0565b9050808382526020820190508285602086028201111561372b57600080fd5b60005b8581101561375b578161374188826137ee565b84526020840193506020830192505060018101905061372e565b5050509392505050565b600081359050613774816147c8565b92915050565b600082601f83011261378b57600080fd5b813561379b8482602086016136f9565b91505092915050565b60008083601f8401126137b657600080fd5b8235905067ffffffffffffffff8111156137cf57600080fd5b6020830191508360018202830111156137e757600080fd5b9250929050565b6000813590506137fd816147df565b92915050565b600081519050613812816147df565b92915050565b60006020828403121561382a57600080fd5b600061383884828501613765565b91505092915050565b600080600080600080600080610100898b03121561385e57600080fd5b600061386c8b828c01613765565b985050602061387d8b828c01613765565b975050604089013567ffffffffffffffff81111561389a57600080fd5b6138a68b828c0161377a565b965050606089013567ffffffffffffffff8111156138c357600080fd5b6138cf8b828c0161377a565b95505060806138e08b828c016137ee565b94505060a06138f18b828c016137ee565b93505060c06139028b828c01613765565b92505060e06139138b828c01613765565b9150509295985092959890939650565b6000806040838503121561393657600080fd5b600061394485828601613765565b9250506020613955858286016137ee565b9150509250929050565b6000806000806080858703121561397557600080fd5b600061398387828801613765565b9450506020613994878288016137ee565b93505060406139a587828801613765565b92505060606139b6878288016137ee565b91505092959194509250565b600080600080606085870312156139d857600080fd5b60006139e687828801613765565b94505060206139f7878288016137ee565b935050604085013567ffffffffffffffff811115613a1457600080fd5b613a20878288016137a4565b925092505092959194509250565b60008060208385031215613a4157600080fd5b600083013567ffffffffffffffff811115613a5b57600080fd5b613a67858286016137a4565b92509250509250929050565b600060208284031215613a8557600080fd5b6000613a93848285016137ee565b91505092915050565b600060208284031215613aae57600080fd5b6000613abc84828501613803565b91505092915050565b600080600060408486031215613ada57600080fd5b6000613ae8868287016137ee565b935050602084013567ffffffffffffffff811115613b0557600080fd5b613b11868287016137a4565b92509250509250925092565b60008060408385031215613b3057600080fd5b6000613b3e858286016137ee565b9250506020613b4f858286016137ee565b9150509250929050565b600080600060608486031215613b6e57600080fd5b6000613b7c868287016137ee565b9350506020613b8d868287016137ee565b9250506040613b9e868287016137ee565b9150509250925092565b613bb1816146c5565b82525050565b613bc0816146c5565b82525050565b613bcf816146c5565b82525050565b8082525050565b613be5816146d7565b82525050565b613bf4816146d7565b82525050565b6000613c068385614619565b9350613c1383858461470d565b613c1c836147b7565b840190509392505050565b6000613c32826145fd565b613c3c8185614608565b9350613c4c81856020860161471c565b613c55816147b7565b840191505092915050565b6000613c6d601e8361462a565b91507f5374616b696e673a205374616b65206973207374696c6c206c6f636b656400006000830152602082019050919050565b6000613cad60268361462a565b91507f4f776e61626c653a206e6577206f776e657220697320746865207a65726f206160008301527f64647265737300000000000000000000000000000000000000000000000000006020830152604082019050919050565b6000613d1360308361462a565b91507f5374616b696e673a207469636b6574734d696e74696e674368696c6c5065726960008301527f6f642063616e2774206265207a65726f000000000000000000000000000000006020830152604082019050919050565b6000613d79603b8361462a565b91507f5374616b653a206c6f636b206d756c7469706c6965722073686f756c6420686160008301527f7665207468652073616d65206c656e677468206164206c6f636b7300000000006020830152604082019050919050565b6000613ddf602e8361462a565b91507f496e697469616c697a61626c653a20636f6e747261637420697320616c72656160008301527f647920696e697469616c697a65640000000000000000000000000000000000006020830152604082019050919050565b6000613e4560208361462a565b91507f4f776e61626c653a2063616c6c6572206973206e6f7420746865206f776e65726000830152602082019050919050565b6000613e85601d8361462a565b91507f5374616b696e673a207374616b6520646f6573206e6f742065786973740000006000830152602082019050919050565b8082525050565b8082525050565b61016082016000820151613edd6000850182613ffe565b506020820151613ef06020850182613ffe565b506040820151613f036040850182613ffe565b506060820151613f166060850182613ffe565b506080820151613f296080850182613ffe565b5060a0820151613f3c60a0850182613ffe565b5060c0820151613f4f60c0850182613ffe565b5060e0820151613f6260e0850182613ffe565b50610100820151613f77610100850182613ffe565b50610120820151613f8c610120850182613f99565b50505050565b8082525050565b604082016000820151613faf6000850182613ba8565b506020820151613fc26020850182613ffe565b50505050565b604082016000820151613fde6000850182613ba8565b506020820151613ff16020850182613ffe565b50505050565b8082525050565b61400781614703565b82525050565b61401681614703565b82525050565b61402581614703565b82525050565b61403c61403782614703565b61474f565b82525050565b600061404e828461402b565b60208201915081905092915050565b60006020820190506140726000830184613bb7565b92915050565b600060608201905061408d6000830186613bc6565b61409a6020830185613f92565b6140a76040830184613bc6565b949350505050565b60006020820190506140c46000830184613bd5565b92915050565b60006060820190506140df6000830186613bd5565b6140ec602083018561401c565b6140f9604083018461401c565b949350505050565b60006020820190506141166000830184613bdc565b92915050565b60006020820190508181036000830152614137818486613bfa565b90509392505050565b6000602082019050818103600083015261415981613c60565b9050919050565b6000602082019050818103600083015261417981613ca0565b9050919050565b6000602082019050818103600083015261419981613d06565b9050919050565b600060208201905081810360008301526141b981613d6c565b9050919050565b600060208201905081810360008301526141d981613dd2565b9050919050565b600060208201905081810360008301526141f981613e38565b9050919050565b6000602082019050818103600083015261421981613e78565b9050919050565b60006040820190506142356000830185613eb8565b6142426020830184613bc6565b9392505050565b600060c08201905061425e600083018a613eb8565b61426b6020830189613ebf565b6142786040830188613bd5565b6142856060830187613bc6565b614292608083018661401c565b81810360a08301526142a5818486613bfa565b905098975050505050505050565b60006080820190506142c86000830187613eb8565b6142d56020830186613ebf565b6142e26040830185613bd5565b6142ef606083018461401c565b95945050505050565b600060c08201905061430d6000830189613eb8565b61431a6020830188613ebf565b6143276040830187613bd5565b614334606083018661401c565b6143416080830185613bc6565b61434e60a083018461401c565b979650505050505050565b600060608201905061436e6000830186613eb8565b61437b602083018561401c565b614388604083018461401c565b949350505050565b60006080820190506143a56000830187613eb8565b6143b2602083018661401c565b6143bf604083018561401c565b6143cc606083018461401c565b95945050505050565b60006020820190506143ea6000830184613ebf565b92915050565b60006060820190506144056000830186613ebf565b6144126020830185613bd5565b61441f604083018461401c565b949350505050565b600060608201905061443c6000830186613ebf565b614449602083018561401c565b6144566040830184613beb565b949350505050565b6000610160820190506144746000830184613ec6565b92915050565b600060208201905061448f6000830184613f92565b92915050565b60006040820190506144aa6000830184613fc8565b92915050565b60006040820190506144c56000830185613ff7565b6144d26020830184613bc6565b9392505050565b60006020820190506144ee600083018461400d565b92915050565b6000606082019050614509600083018661400d565b614516602083018561400d565b6145236040830184613bb7565b949350505050565b6000606082019050614540600083018661400d565b61454d602083018561400d565b818103604083015261455f8184613c27565b9050949350505050565b600060608201905061457e600083018661400d565b61458b602083018561400d565b614598604083018461400d565b949350505050565b6000604051905081810181811067ffffffffffffffff821117156145c7576145c6614788565b5b8060405250919050565b600067ffffffffffffffff8211156145ec576145eb614788565b5b602082029050602081019050919050565b600081519050919050565b600082825260208201905092915050565b600082825260208201905092915050565b600082825260208201905092915050565b600061464682614703565b915061465183614703565b9250827fffffffffffffffffffffffffffffffffffffffffffffffffffffffffffffffff0382111561468657614685614759565b5b828201905092915050565b600061469c82614703565b91506146a783614703565b9250828210156146ba576146b9614759565b5b828203905092915050565b60006146d0826146e3565b9050919050565b60008115159050919050565b600073ffffffffffffffffffffffffffffffffffffffff82169050919050565b6000819050919050565b82818337600083830152505050565b60005b8381101561473a57808201518184015260208101905061471f565b83811115614749576000848401525b50505050565b6000819050919050565b7f4e487b7100000000000000000000000000000000000000000000000000000000600052601160045260246000fd5b7f4e487b7100000000000000000000000000000000000000000000000000000000600052604160045260246000fd5b6000601f19601f8301169050919050565b6147d1816146c5565b81146147dc57600080fd5b50565b6147e881614703565b81146147f357600080fd5b5056fea26469706673582212200cbca98b946c164697aaf5b5685b9511ccc227fedac387d649760c46be60690a64736f6c63430008000033",
  "libraries": {
    "StakingLib": "0xcBE5ee787d60CfA0dde84F8cfb677827A11dd7C8",
    "RewardStreamerLib": "0xFa4EAb7B53B3530Ea1DdC871B1c02D3dB13d8625"
  },
  "devdoc": {
    "author": "@author Gilbert Kim @gilbertk422",
    "kind": "dev",
    "methods": {
      "addLockDuration(uint256,uint256)": {
        "params": {
          "lockNumber": "the new lock duration value"
        }
      },
      "addNftToStake(address,uint256,address,uint256)": {
        "details": "The stake should existwhen adding the NFT we need to simulate an untake/stake because we need to recalculate the new historyAverageAmount, stakingInfo.totalStakingUnits and stakingInfo.historyRewardPot",
        "params": {
          "stakeIndex": "the index of the stake",
          "staker": "the address of the owner of the stake",
          "tokenAddress": "the address of the NFT",
          "tokenId": "the id of the NFT token"
        }
      },
      "addRewardStream(uint256,uint256,uint256)": {
        "params": {
          "periodBlockRate": "The reward per block",
          "periodLastBlock": "The last block of the period",
          "rewardStreamIndex": "The reward index"
        }
      },
      "getCurrentPeriodAverageReward()": {
        "returns": {
          "_0": "(uint256) The current period average"
        }
      },
      "getCurrentPeriodLength()": {
        "returns": {
          "_0": "(uint256) The current period length"
        }
      },
      "getHistoryAverageForStake(address,uint256)": {
        "params": {
          "stakeIndex": "the index of the stake",
          "staker": "the address of the owner of the stake"
        },
        "returns": {
          "_0": "(uint256) The calculated history average"
        }
      },
      "getHistoryLength()": {
        "returns": {
          "_0": "(uint256) The history length"
        }
      },
      "getHistoryLengthBeforeStakerEntered(address,uint256)": {
        "params": {
          "stakeIndex": "the index of the stake",
          "staker": "the address of the owner of the stake"
        },
        "returns": {
          "_0": "(uint256) The length of the history"
        }
      },
      "getStakerPoolShare(address,uint256)": {
        "params": {
          "stakeIndex": "the index of the stake",
          "staker": "the address of the owner of the stake"
        },
        "returns": {
          "_0": "(uint256) The userPoolShare"
        }
      },
      "getStakerReward(address,uint256)": {
        "params": {
          "stakeIndex": "the index of the stake",
          "staker": "the address of the owner of the stake"
        },
        "returns": {
          "_0": "(uint256) The total rewards acumulated till now"
        }
      },
      "getStakerRewardFromCurrent(address,uint256)": {
        "params": {
          "stakeIndex": "the index of the stake",
          "staker": "the address of the owner of the stake"
        },
        "returns": {
          "_0": "(uint256) The reward for current period"
        }
      },
      "getStakerRewardFromHistory(address,uint256)": {
        "params": {
          "stakeIndex": "the index of the stake",
          "staker": "the address of the staker you wish to get the rewards"
        },
        "returns": {
          "_0": "uint256 The amount of tokes user will get from history"
        }
      },
      "getStakerTimeInHistory(address,uint256)": {
        "params": {
          "stakeIndex": "the index of the stake",
          "staker": "the address of the owner of the stake"
        },
        "returns": {
          "_0": "(uint256) The number of blocks in history"
        }
      },
      "getTotalGeneratedReward()": {
        "returns": {
          "_0": "(uint256) The the calculated reward"
        }
      },
      "getTotalRewardInCurrentPeriod()": {
        "returns": {
          "_0": "(uint256) The current period total reward"
        }
      },
      "getUserStakes(address)": {
        "returns": {
          "_0": "(uint256) The number of all the stakes user has ever staked"
        }
      },
      "initialize(address,address,uint256[],uint256[],uint256,uint256,address,address)": {
        "params": {
          "_locks": "The array with the locks durations values",
          "_rarityRegister": "The rarity register address",
          "_rewardToken": "The reward token address",
          "_ticket": "The raffle ticket address"
        }
      },
      "owner()": {
        "details": "Returns the address of the current owner."
      },
      "renounceOwnership()": {
        "details": "Leaves the contract without owner. It will not be possible to call `onlyOwner` functions anymore. Can only be called by the current owner. NOTE: Renouncing ownership will leave the contract without an owner, thereby removing any functionality that is only available to the owner."
      },
      "setRarityRegister(address)": {
        "params": {
          "newRarityRegister": "the new value"
        }
      },
      "setTicket(address)": {
        "params": {
          "ticketAddress": "the new value"
        }
      },
      "setTicketsMintingChillPeriod(uint256)": {
        "params": {
          "newTicketsMintingChillPeriod": "the new value"
        }
      },
      "setTicketsMintingRatio(uint256)": {
        "params": {
          "newTicketsMintingRatio": "the new value"
        }
      },
      "stake(uint256,bytes)": {
        "details": "Users wil be able to unstake only after the lock durationn has pased.The lock duration in the data bytes is required, its the index of the locks array Should be the fist 32 bytes in the bytes array",
        "params": {
          "amount": "the inumber of tokens to be staked",
          "data": "the bytes containig extra information about the staking lock duration index: fist 32 bytes (Number) - Required NFT address: next 20 bytes (address) NFT tokenId: next 32 bytes (Number)"
        }
      },
      "stakeFor(address,uint256,bytes)": {
        "params": {
          "amount": "uint256 the amount of tokens to stake",
          "data": "bytes aditional for the stake and to include in the Stake event lock duration index: fist 32 bytes (Number) - Required NFT address: next 20 bytes (address) NFT tokenId: next 32 bytes (Number)",
          "user": "the address the tokens are staked for"
        }
      },
      "supportsHistory()": {
        "details": "Since we don't implement the optional interface, this always returns false",
        "returns": {
          "_0": "bool Whether or not the optional history functions are implemented"
        }
      },
      "token()": {
        "returns": {
          "_0": "address The address of the ERC20 token used for staking"
        }
      },
      "totalStaked()": {
        "returns": {
          "_0": "uint256 The number of tokens staked in the contract"
        }
      },
      "totalStakedFor(address)": {
        "params": {
          "staker": "address The address to query"
        },
        "returns": {
          "_0": "uint256 The number of tokens staked for the given address"
        }
      },
      "transferOwnership(address)": {
        "details": "Transfers ownership of the contract to a new account (`newOwner`). Can only be called by the current owner."
      },
      "unstake(uint256,bytes)": {
        "details": "Unstaking tokens is an atomic operationeither all of the tokens in a stake, or none of the tokens.Users can only unstake a single stake at a time, it is must be their oldest active stake. Upon releasing that stake, the tokens will be   transferred back to their account, and their personalStakeIndex will increment to the next active stake.",
        "params": {
          "amount": "uint256 the amount of tokens to unstake",
          "data": "bytes optional data to include in the Unstake event"
        }
      },
      "unstakeERC721(bytes)": {
        "params": {
          "data": "bytes optional data to include in the Unstake event"
        }
      },
      "updateLocks(uint256,uint256,uint256)": {
        "params": {
          "lockIndex": "the lock index",
          "lockNumber": "the new lock duration value"
        }
      }
    },
    "title": "A Staking smart contract",
    "version": 1
  },
  "userdoc": {
    "kind": "user",
    "methods": {
      "addLockDuration(uint256,uint256)": {
        "notice": "Will add a new lock duration value"
      },
      "addNftToStake(address,uint256,address,uint256)": {
        "notice": "Allows user to stake an nft to an existing stake for extra rewardit MUST revert if the added token has no multiplier"
      },
      "addRewardStream(uint256,uint256,uint256)": {
        "notice": "Will create a new rewad stream"
      },
      "getCurrentPeriodAverageReward()": {
        "notice": "Will calculate the current period average reward"
      },
      "getCurrentPeriodLength()": {
        "notice": "Will calculate the current period length"
      },
      "getHistoryAverageForStake(address,uint256)": {
        "notice": "Will calculate and return the history average for a stake"
      },
      "getHistoryLength()": {
        "notice": "Will calculate the history length in blocks"
      },
      "getHistoryLengthBeforeStakerEntered(address,uint256)": {
        "notice": "Will calculate and return what the history length was a the moment the stake was created"
      },
      "getStakerPoolShare(address,uint256)": {
        "notice": "Will get the pool share for a specific stake"
      },
      "getStakerReward(address,uint256)": {
        "notice": "Will calculate and return the total reward user has accumulated till now for a specific stake"
      },
      "getStakerRewardFromCurrent(address,uint256)": {
        "notice": "Will get the reward of a stake for the curent period"
      },
      "getStakerRewardFromHistory(address,uint256)": {
        "notice": "Will calculate the rewards that user will get from history"
      },
      "getStakerTimeInHistory(address,uint256)": {
        "notice": "Will calculate and return for how many block the stake has in history"
      },
      "getTotalGeneratedReward()": {
        "notice": "Will calculate the total reward generated from start till now"
      },
      "getTotalRewardInCurrentPeriod()": {
        "notice": "Will calculate the current period total reward"
      },
      "initialize(address,address,uint256[],uint256[],uint256,uint256,address,address)": {
        "notice": "Constructor"
      },
      "setRarityRegister(address)": {
        "notice": "Will update the rarityRegister address"
      },
      "setTicket(address)": {
        "notice": "Will update the ticket address"
      },
      "setTicketsMintingChillPeriod(uint256)": {
        "notice": "Will update the ticketsMintingChillPeriod"
      },
      "setTicketsMintingRatio(uint256)": {
        "notice": "Will update the numebr of stakingUnits needed to earn one ticket"
      },
      "stake(uint256,bytes)": {
        "notice": "Allows user to stake tokensOptionaly user can stake a NFT token for extra reward"
      },
      "stakeFor(address,uint256,bytes)": {
        "notice": "Stakes a certain amount of tokens, this MUST transfer the given amount from the callerMUST trigger Staked event"
      },
      "supportsHistory()": {
        "notice": "MUST return true if the optional history functions are implemented, otherwise false"
      },
      "token()": {
        "notice": "Address of the token being used by the staking interface"
      },
      "totalStaked()": {
        "notice": "Returns the current total of tokens staked"
      },
      "totalStakedFor(address)": {
        "notice": "Returns the current total of tokens staked for an address"
      },
      "unstake(uint256,bytes)": {
        "notice": "Unstakes a certain amount of tokens, this SHOULD return the given amount of tokens to the user, if unstaking is currently not possible the function MUST revertMUST trigger Unstaked event"
      },
      "unstakeERC721(bytes)": {
        "notice": "This function offers a way to withdraw a ERC721 after using failsafeUnstakeERC20.If for any reason the ERC721 should function again, this function allows to withdraw it."
      },
      "updateLocks(uint256,uint256,uint256)": {
        "notice": "Will update an existing lock value"
      }
    },
    "version": 1
  },
  "storageLayout": {
    "storage": [
      {
        "astId": 130,
        "contract": "contracts/Staking/Staking.sol:Staking",
        "label": "_initialized",
        "offset": 0,
        "slot": "0",
        "type": "t_bool"
      },
      {
        "astId": 133,
        "contract": "contracts/Staking/Staking.sol:Staking",
        "label": "_initializing",
        "offset": 1,
        "slot": "0",
        "type": "t_bool"
      },
      {
        "astId": 212,
        "contract": "contracts/Staking/Staking.sol:Staking",
        "label": "__gap",
        "offset": 0,
        "slot": "1",
        "type": "t_array(t_uint256)50_storage"
      },
      {
        "astId": 10,
        "contract": "contracts/Staking/Staking.sol:Staking",
        "label": "_owner",
        "offset": 0,
        "slot": "51",
        "type": "t_address"
      },
      {
        "astId": 123,
        "contract": "contracts/Staking/Staking.sol:Staking",
        "label": "__gap",
        "offset": 0,
        "slot": "52",
        "type": "t_array(t_uint256)49_storage"
      },
      {
        "astId": 1105,
        "contract": "contracts/Staking/Staking.sol:Staking",
        "label": "rewardStreamInfo",
        "offset": 0,
        "slot": "101",
        "type": "t_struct(RewardStreamInfo)1223_storage"
      },
      {
        "astId": 1908,
        "contract": "contracts/Staking/Staking.sol:Staking",
        "label": "stakingInfo",
        "offset": 0,
        "slot": "105",
        "type": "t_struct(StakingInfo)3064_storage"
      },
      {
        "astId": 1914,
        "contract": "contracts/Staking/Staking.sol:Staking",
        "label": "_userStakes",
        "offset": 0,
        "slot": "118",
        "type": "t_mapping(t_address,t_array(t_struct(UserStake)3921_storage)dyn_storage)"
      }
    ],
    "types": {
      "t_address": {
        "encoding": "inplace",
        "label": "address",
        "numberOfBytes": "20"
      },
      "t_array(t_struct(RewardStream)1232_storage)dyn_storage": {
        "base": "t_struct(RewardStream)1232_storage",
        "encoding": "dynamic_array",
        "label": "struct RewardStreamerLib.RewardStream[]",
        "numberOfBytes": "32"
      },
      "t_array(t_struct(UserStake)3921_storage)dyn_storage": {
        "base": "t_struct(UserStake)3921_storage",
        "encoding": "dynamic_array",
        "label": "struct StakingLib.UserStake[]",
        "numberOfBytes": "32"
      },
      "t_array(t_uint256)49_storage": {
        "base": "t_uint256",
        "encoding": "inplace",
        "label": "uint256[49]",
        "numberOfBytes": "1568"
      },
      "t_array(t_uint256)50_storage": {
        "base": "t_uint256",
        "encoding": "inplace",
        "label": "uint256[50]",
        "numberOfBytes": "1600"
      },
      "t_array(t_uint256)dyn_storage": {
        "base": "t_uint256",
        "encoding": "dynamic_array",
        "label": "uint256[]",
        "numberOfBytes": "32"
      },
      "t_bool": {
        "encoding": "inplace",
        "label": "bool",
        "numberOfBytes": "1"
      },
      "t_mapping(t_address,t_array(t_struct(UserStake)3921_storage)dyn_storage)": {
        "encoding": "mapping",
        "key": "t_address",
        "label": "mapping(address => struct StakingLib.UserStake[])",
        "numberOfBytes": "32",
        "value": "t_array(t_struct(UserStake)3921_storage)dyn_storage"
      },
      "t_struct(RewardStream)1232_storage": {
        "encoding": "inplace",
        "label": "struct RewardStreamerLib.RewardStream",
        "members": [
          {
            "astId": 1226,
            "contract": "contracts/Staking/Staking.sol:Staking",
            "label": "periodRewards",
            "offset": 0,
            "slot": "0",
            "type": "t_array(t_uint256)dyn_storage"
          },
          {
            "astId": 1229,
            "contract": "contracts/Staking/Staking.sol:Staking",
            "label": "periodEnds",
            "offset": 0,
            "slot": "1",
            "type": "t_array(t_uint256)dyn_storage"
          },
          {
            "astId": 1231,
            "contract": "contracts/Staking/Staking.sol:Staking",
            "label": "rewardStreamCursor",
            "offset": 0,
            "slot": "2",
            "type": "t_uint256"
          }
        ],
        "numberOfBytes": "96"
      },
      "t_struct(RewardStreamInfo)1223_storage": {
        "encoding": "inplace",
        "label": "struct RewardStreamerLib.RewardStreamInfo",
        "members": [
          {
            "astId": 1216,
            "contract": "contracts/Staking/Staking.sol:Staking",
            "label": "rewardStreams",
            "offset": 0,
            "slot": "0",
            "type": "t_array(t_struct(RewardStream)1232_storage)dyn_storage"
          },
          {
            "astId": 1218,
            "contract": "contracts/Staking/Staking.sol:Staking",
            "label": "rewardStreamsLength",
            "offset": 0,
            "slot": "1",
            "type": "t_uint256"
          },
          {
            "astId": 1220,
            "contract": "contracts/Staking/Staking.sol:Staking",
            "label": "deployedAtBlock",
            "offset": 0,
            "slot": "2",
            "type": "t_uint256"
          },
          {
            "astId": 1222,
            "contract": "contracts/Staking/Staking.sol:Staking",
            "label": "rewardToken",
            "offset": 0,
            "slot": "3",
            "type": "t_address"
          }
        ],
        "numberOfBytes": "128"
      },
      "t_struct(StakingInfo)3064_storage": {
        "encoding": "inplace",
        "label": "struct StakingLib.StakingInfo",
        "members": [
          {
            "astId": 3037,
            "contract": "contracts/Staking/Staking.sol:Staking",
            "label": "historyStartBlock",
            "offset": 0,
            "slot": "0",
            "type": "t_uint256"
          },
          {
            "astId": 3039,
            "contract": "contracts/Staking/Staking.sol:Staking",
            "label": "historyEndBlock",
            "offset": 0,
            "slot": "1",
            "type": "t_uint256"
          },
          {
            "astId": 3041,
            "contract": "contracts/Staking/Staking.sol:Staking",
            "label": "historyAverageReward",
            "offset": 0,
            "slot": "2",
            "type": "t_uint256"
          },
          {
            "astId": 3043,
            "contract": "contracts/Staking/Staking.sol:Staking",
            "label": "historyRewardPot",
            "offset": 0,
            "slot": "3",
            "type": "t_uint256"
          },
          {
            "astId": 3045,
            "contract": "contracts/Staking/Staking.sol:Staking",
            "label": "totalCurrentlyStaked",
            "offset": 0,
            "slot": "4",
            "type": "t_uint256"
          },
          {
            "astId": 3047,
            "contract": "contracts/Staking/Staking.sol:Staking",
            "label": "totalStakingUnits",
            "offset": 0,
            "slot": "5",
            "type": "t_uint256"
          },
          {
            "astId": 3049,
            "contract": "contracts/Staking/Staking.sol:Staking",
            "label": "totalDistributedRewards",
            "offset": 0,
            "slot": "6",
            "type": "t_uint256"
          },
          {
            "astId": 3052,
            "contract": "contracts/Staking/Staking.sol:Staking",
            "label": "locks",
            "offset": 0,
            "slot": "7",
            "type": "t_array(t_uint256)dyn_storage"
          },
          {
            "astId": 3055,
            "contract": "contracts/Staking/Staking.sol:Staking",
            "label": "locksMultiplier",
            "offset": 0,
            "slot": "8",
            "type": "t_array(t_uint256)dyn_storage"
          },
          {
            "astId": 3057,
            "contract": "contracts/Staking/Staking.sol:Staking",
            "label": "ticketsMintingRatio",
            "offset": 0,
            "slot": "9",
            "type": "t_uint256"
          },
          {
            "astId": 3059,
            "contract": "contracts/Staking/Staking.sol:Staking",
            "label": "ticketsMintingChillPeriod",
            "offset": 0,
            "slot": "10",
            "type": "t_uint256"
          },
          {
            "astId": 3061,
            "contract": "contracts/Staking/Staking.sol:Staking",
            "label": "ticket",
            "offset": 0,
            "slot": "11",
            "type": "t_address"
          },
          {
            "astId": 3063,
            "contract": "contracts/Staking/Staking.sol:Staking",
            "label": "rarityRegister",
            "offset": 0,
            "slot": "12",
            "type": "t_address"
          }
        ],
        "numberOfBytes": "416"
      },
      "t_struct(UserStake)3921_storage": {
        "encoding": "inplace",
        "label": "struct StakingLib.UserStake",
        "members": [
          {
            "astId": 3901,
            "contract": "contracts/Staking/Staking.sol:Staking",
            "label": "stakingUnits",
            "offset": 0,
            "slot": "0",
            "type": "t_uint256"
          },
          {
            "astId": 3903,
            "contract": "contracts/Staking/Staking.sol:Staking",
            "label": "amountStaked",
            "offset": 0,
            "slot": "1",
            "type": "t_uint256"
          },
          {
            "astId": 3905,
            "contract": "contracts/Staking/Staking.sol:Staking",
            "label": "enteredAtBlock",
            "offset": 0,
            "slot": "2",
            "type": "t_uint256"
          },
          {
            "astId": 3907,
            "contract": "contracts/Staking/Staking.sol:Staking",
            "label": "historyAverageRewardWhenEntered",
            "offset": 0,
            "slot": "3",
            "type": "t_uint256"
          },
          {
            "astId": 3909,
            "contract": "contracts/Staking/Staking.sol:Staking",
            "label": "ticketsMintingRatioWhenEntered",
            "offset": 0,
            "slot": "4",
            "type": "t_uint256"
          },
          {
            "astId": 3911,
            "contract": "contracts/Staking/Staking.sol:Staking",
            "label": "ticketsMintingChillPeriodWhenEntered",
            "offset": 0,
            "slot": "5",
            "type": "t_uint256"
          },
          {
            "astId": 3913,
            "contract": "contracts/Staking/Staking.sol:Staking",
            "label": "lockedTill",
            "offset": 0,
            "slot": "6",
            "type": "t_uint256"
          },
          {
            "astId": 3915,
            "contract": "contracts/Staking/Staking.sol:Staking",
            "label": "rewardCredit",
            "offset": 0,
            "slot": "7",
            "type": "t_uint256"
          },
          {
            "astId": 3917,
            "contract": "contracts/Staking/Staking.sol:Staking",
            "label": "ticketsMinted",
            "offset": 0,
            "slot": "8",
            "type": "t_uint256"
          },
          {
            "astId": 3920,
            "contract": "contracts/Staking/Staking.sol:Staking",
            "label": "userStakedToken",
            "offset": 0,
            "slot": "9",
            "type": "t_struct(UserStakedToken)3899_storage"
          }
        ],
        "numberOfBytes": "352"
      },
      "t_struct(UserStakedToken)3899_storage": {
        "encoding": "inplace",
        "label": "struct StakingLib.UserStakedToken",
        "members": [
          {
            "astId": 3896,
            "contract": "contracts/Staking/Staking.sol:Staking",
            "label": "tokenAddress",
            "offset": 0,
            "slot": "0",
            "type": "t_address"
          },
          {
            "astId": 3898,
            "contract": "contracts/Staking/Staking.sol:Staking",
            "label": "tokenId",
            "offset": 0,
            "slot": "1",
            "type": "t_uint256"
          }
        ],
        "numberOfBytes": "64"
      },
      "t_uint256": {
        "encoding": "inplace",
        "label": "uint256",
        "numberOfBytes": "32"
      }
    }
  }
}