{
  "address": "0xcBE5ee787d60CfA0dde84F8cfb677827A11dd7C8",
  "abi": [
    {
      "inputs": [
        {
          "internalType": "uint256",
          "name": "number",
          "type": "uint256"
        },
        {
          "internalType": "uint256",
          "name": "percent",
          "type": "uint256"
        }
      ],
      "name": "applyPercent",
      "outputs": [
        {
          "internalType": "uint256",
          "name": "",
          "type": "uint256"
        }
      ],
      "stateMutability": "pure",
      "type": "function"
    },
    {
      "inputs": [
        {
          "internalType": "uint256",
          "name": "currentPeriodLength",
          "type": "uint256"
        },
        {
          "internalType": "uint256",
          "name": "currentPeriodAverageReward",
          "type": "uint256"
        },
        {
          "internalType": "uint256",
          "name": "currentHistoryLength",
          "type": "uint256"
        },
        {
          "internalType": "uint256",
          "name": "historyStartBlock",
          "type": "uint256"
        },
        {
          "internalType": "uint256",
          "name": "historyAverageReward",
          "type": "uint256"
        }
      ],
      "name": "getNewHistoryAverageReward",
      "outputs": [
        {
          "internalType": "uint256",
          "name": "",
          "type": "uint256"
        }
      ],
      "stateMutability": "view",
      "type": "function"
    },
    {
      "inputs": [
        {
          "internalType": "bytes",
          "name": "data",
          "type": "bytes"
        }
      ],
      "name": "getStakeIndexFromCalldata",
      "outputs": [
        {
          "internalType": "uint256",
          "name": "",
          "type": "uint256"
        }
      ],
      "stateMutability": "pure",
      "type": "function"
    },
    {
      "inputs": [
        {
          "internalType": "bytes",
          "name": "data",
          "type": "bytes"
        }
      ],
      "name": "getTokenAddressFromCalldata",
      "outputs": [
        {
          "internalType": "address",
          "name": "",
          "type": "address"
        }
      ],
      "stateMutability": "pure",
      "type": "function"
    },
    {
      "inputs": [
        {
          "internalType": "bytes",
          "name": "data",
          "type": "bytes"
        }
      ],
      "name": "getTokenIdFromCalldata",
      "outputs": [
        {
          "internalType": "uint256",
          "name": "",
          "type": "uint256"
        }
      ],
      "stateMutability": "pure",
      "type": "function"
    },
    {
      "inputs": [
        {
          "internalType": "uint256",
          "name": "oldHistoryRewardPot",
          "type": "uint256"
        },
        {
          "internalType": "uint256",
          "name": "totalRewardInCurrentPeriod",
          "type": "uint256"
        },
        {
          "internalType": "uint256",
          "name": "stakerReward",
          "type": "uint256"
        }
      ],
      "name": "historyRewardPot",
      "outputs": [
        {
          "internalType": "uint256",
          "name": "",
          "type": "uint256"
        }
      ],
      "stateMutability": "pure",
      "type": "function"
    },
    {
      "inputs": [
        {
          "internalType": "bytes",
          "name": "data",
          "type": "bytes"
        },
        {
          "internalType": "uint256",
          "name": "from",
          "type": "uint256"
        }
      ],
      "name": "parse32BytesToUint256",
      "outputs": [
        {
          "internalType": "uint256",
          "name": "parsed",
          "type": "uint256"
        }
      ],
      "stateMutability": "pure",
      "type": "function"
    },
    {
      "inputs": [
        {
          "internalType": "bytes",
          "name": "data",
          "type": "bytes"
        },
        {
          "internalType": "uint256",
          "name": "from",
          "type": "uint256"
        }
      ],
      "name": "parseBytesToAddress",
      "outputs": [
        {
          "internalType": "address",
          "name": "parsed",
          "type": "address"
        }
      ],
      "stateMutability": "pure",
      "type": "function"
    },
    {
      "inputs": [
        {
          "internalType": "uint256",
          "name": "_block",
          "type": "uint256"
        },
        {
          "internalType": "uint256",
          "name": "historyStartBlock",
          "type": "uint256"
        },
        {
          "internalType": "uint256",
          "name": "rewardPerBlock",
          "type": "uint256"
        }
      ],
      "name": "totalGeneratedReward",
      "outputs": [
        {
          "internalType": "uint256",
          "name": "",
          "type": "uint256"
        }
      ],
      "stateMutability": "pure",
      "type": "function"
    }
  ],
  "transactionHash": "0x58d882092f7c6e680d2872b1f0dfd05a726f17dbfa0b250a355a6b5fd1d06f6c",
  "args": [],
  "solcInputHash": "85900dad8b31d7fd657884e07c2180f9",
  "bytecode": "0x613a41610053600b82828239805160001a607314610046577f4e487b7100000000000000000000000000000000000000000000000000000000600052600060045260246000fd5b30600052607381538281f3fe73000000000000000000000000000000000000000030146080604052600436106101e45760003560e01c80639c2cbc8d1161010e578063c668e345116100ac578063e64a80e81161007b578063e64a80e8146106ae578063e6c8af4b146106d7578063f58dd31c14610700578063fd9d95ce14610730576101e4565b8063c668e345146105f5578063ca72a6fd14610625578063d85b41f614610655578063dd21807814610685576101e4565b8063bba44c9b116100e8578063bba44c9b14610534578063bcb4969214610564578063c0318f9a14610594578063c157f480146105c4576101e4565b80639c2cbc8d146104ab5780639c8ba815146104db5780639e5236501461050b576101e4565b80637946fbde116101865780638714b767116101555780638714b767146103eb5780638c138d071461041b5780638f3b32781461044b5780639ac9e04a1461047b576101e4565b80637946fbde14610332578063795737b5146103625780637a54ff411461038b5780637bc0bc92146103bb576101e4565b806355facecf116101c257806355facecf14610279578063607082a3146102a957806360fa09dd146102d9578063653e5d2614610302576101e4565b806313889500146101e95780631dccbf87146102195780632861e3e214610249575b600080fd5b61020360048036038101906101fe9190612c96565b61076d565b6040516102109190613605565b60405180910390f35b610233600480360381019061022e9190612c96565b610791565b6040516102409190613605565b60405180910390f35b610263600480360381019061025e9190612a73565b6107b1565b6040516102709190613389565b60405180910390f35b610293600480360381019061028e9190612baa565b6107c2565b6040516102a09190613605565b60405180910390f35b6102c360048036038101906102be9190612cbf565b6108d6565b6040516102d09190613605565b60405180910390f35b8180156102e557600080fd5b5061030060048036038101906102fb9190612d9e565b6109d5565b005b61031c60048036038101906103179190612eb7565b6109e2565b6040516103299190613605565b60405180910390f35b61034c60048036038101906103479190612e29565b610a12565b6040516103599190613605565b60405180910390f35b81801561036e57600080fd5b5061038960048036038101906103849190612ac7565b610b29565b005b6103a560048036038101906103a09190612baa565b610c48565b6040516103b29190613605565b60405180910390f35b6103d560048036038101906103d09190612a32565b610c87565b6040516103e29190613605565b60405180910390f35b61040560048036038101906104009190612dda565b610c9b565b6040516104129190613605565b60405180910390f35b61043560048036038101906104309190612d0e565b610d21565b6040516104429190613605565b60405180910390f35b61046560048036038101906104609190612cbf565b610d5b565b6040516104729190613605565b60405180910390f35b61049560048036038101906104909190612991565b610e9e565b6040516104a29190613605565b60405180910390f35b6104c560048036038101906104c091906129ba565b610f2c565b6040516104d29190613605565b60405180910390f35b6104f560048036038101906104f09190612a73565b611020565b6040516105029190613605565b60405180910390f35b81801561051757600080fd5b50610532600480360381019061052d9190612942565b611031565b005b61054e60048036038101906105499190612ef3565b6110d8565b60405161055b9190613605565b60405180910390f35b61057e60048036038101906105799190612ef3565b611108565b60405161058b9190613605565b60405180910390f35b6105ae60048036038101906105a99190612f42565b611138565b6040516105bb9190613605565b60405180910390f35b6105de60048036038101906105d99190612d4a565b6111d0565b6040516105ec929190613620565b60405180910390f35b61060f600480360381019061060a9190612a32565b6112c2565b60405161061c9190613605565b60405180910390f35b61063f600480360381019061063a9190612cbf565b6112d6565b60405161064c9190613605565b60405180910390f35b61066f600480360381019061066a9190612cbf565b6113b8565b60405161067c9190613605565b60405180910390f35b81801561069157600080fd5b506106ac60048036038101906106a79190612e52565b611450565b005b8180156106ba57600080fd5b506106d560048036038101906106d09190612c0d565b61156f565b005b8180156106e357600080fd5b506106fe60048036038101906106f99190612b03565b61182c565b005b61071a60048036038101906107159190612a32565b611b26565b6040516107279190613389565b60405180910390f35b81801561073c57600080fd5b5061075760048036038101906107529190612baa565b611b3a565b6040516107649190613605565b60405180910390f35b600061078a8260000154836001015461209290919063ffffffff16565b9050919050565b60006107aa82600101544361209290919063ffffffff16565b9050919050565b600060148284010151905092915050565b6000828054905082106107d857600090506108ce565b6000838381548110610813577f4e487b7100000000000000000000000000000000000000000000000000000000600052603260045260246000fd5b90600052602060002090600b0201600001549050600073Fa4EAb7B53B3530Ea1DdC871B1c02D3dB13d862563c02ceb0a888860010154436040518463ffffffff1660e01b8152600401610868939291906135ce565b60206040518083038186803b15801561088057600080fd5b505af4158015610894573d6000803e3d6000fd5b505050506040513d601f19601f820116820180604052508101906108b89190612e8e565b90506108c9818388600501546120a8565b925050505b949350505050565b6000828054905082106108ec57600090506109ce565b6000838381548110610927577f4e487b7100000000000000000000000000000000000000000000000000000000600052603260045260246000fd5b90600052602060002090600b02016003015490506000610948868686610d5b565b9050600081141561095e576000925050506109ce565b60006109698761076d565b905060006109788888886113b8565b90506109c7836109b961099484886120d890919063ffffffff16565b6109ab868d600201546120d890919063ffffffff16565b61209290919063ffffffff16565b6120ee90919063ffffffff16565b9450505050505b9392505050565b8082600901819055505050565b6000610a0a60646109fc84866120d890919063ffffffff16565b6120ee90919063ffffffff16565b905092915050565b600080826000015490506000836005015490506000846004015490506000856008015490506000841480610a465750600082145b80610a515750600083145b15610a63576000945050505050610b24565b6000866002015490506000876006015490506000610ab786610aa9610a91864361209290919063ffffffff16565b610aa4878761209290919063ffffffff16565b612104565b61211d90919063ffffffff16565b90506000610ace87836120ee90919063ffffffff16565b90506000610ae5828a6120d890919063ffffffff16565b90506000610afc88836120ee90919063ffffffff16565b90506000610b13888361209290919063ffffffff16565b9050809b5050505050505050505050505b919050565b600073Fa4EAb7B53B3530Ea1DdC871B1c02D3dB13d8625633a09889a848460010154610b5f60014361209290919063ffffffff16565b6040518463ffffffff1660e01b8152600401610b7d939291906135ce565b60206040518083038186803b158015610b9557600080fd5b505af4158015610ba9573d6000803e3d6000fd5b505050506040513d601f19601f82011682018060405250810190610bcd9190612e8e565b90506000610bdd83836001610c9b565b9050610c06610bed846001610d21565b82610bf78661076d565b86600001548760020154611138565b8360020181905550610c1e83600301548360006110d8565b8360030181905550610c3a60014361209290919063ffffffff16565b836001018190555050505050565b600080610c57868686866107c2565b90506000610c668686866112d6565b9050610c7b818361211d90919063ffffffff16565b92505050949350505050565b6000610c94826000611020565b9050919050565b60008084600501541415610cb25760009050610d1a565b6000610cbe8584610d21565b90506000811415610cd3576000915050610d1a565b610d1681610d088760050154610cfa670de0b6b3a7640000896120d890919063ffffffff16565b6120ee90919063ffffffff16565b6120ee90919063ffffffff16565b9150505b9392505050565b600081610d3657610d3183610791565b610d53565b610d526001610d4485610791565b61209290919063ffffffff16565b5b905092915050565b6000828054905082101580610dba57506000838381548110610da6577f4e487b7100000000000000000000000000000000000000000000000000000000600052603260045260246000fd5b90600052602060002090600b020160020154145b80610e1257508360010154838381548110610dfe577f4e487b7100000000000000000000000000000000000000000000000000000000600052603260045260246000fd5b90600052602060002090600b020160020154115b15610e205760009050610e97565b610e946001610e86858581548110610e61577f4e487b7100000000000000000000000000000000000000000000000000000000600052603260045260246000fd5b90600052602060002090600b020160020154876001015461209290919063ffffffff16565b61211d90919063ffffffff16565b90505b9392505050565b60008060005b8380549050811015610f2257610f0d848281548110610eec577f4e487b7100000000000000000000000000000000000000000000000000000000600052603260045260246000fd5b90600052602060002090600b0201600101548361211d90919063ffffffff16565b91508080610f1a90613866565b915050610ea4565b5080915050919050565b6000838054905083101580610f8b57506000848481548110610f77577f4e487b7100000000000000000000000000000000000000000000000000000000600052603260045260246000fd5b90600052602060002090600b020160000154145b15610f995760009050611019565b6000848481548110610fd4577f4e487b7100000000000000000000000000000000000000000000000000000000600052603260045260246000fd5b90600052602060002090600b020160000154905061101583611007670de0b6b3a7640000846120d890919063ffffffff16565b6120ee90919063ffffffff16565b9150505b9392505050565b600060208284010151905092915050565b600061103c83610a12565b905060008111156110d257734bba64b19dfef99994BD40B7C7e2D4C70CfB95FD635043eee68584846040518463ffffffff1660e01b8152600401611082939291906133e9565b60006040518083038186803b15801561109a57600080fd5b505af41580156110ae573d6000803e3d6000fd5b505050506110c981846008015461211d90919063ffffffff16565b83600801819055505b50505050565b60006110ff826110f1858761211d90919063ffffffff16565b61209290919063ffffffff16565b90509392505050565b600061112f82611121858761209290919063ffffffff16565b6120d890919063ffffffff16565b90509392505050565b60008043905060006111668561115860018561209290919063ffffffff16565b61209290919063ffffffff16565b9050600061117d888a6120d890919063ffffffff16565b9050600061119486896120d890919063ffffffff16565b905060006111bd846111af848661211d90919063ffffffff16565b6120ee90919063ffffffff16565b9050809550505050505095945050505050565b600080602083511015611218576040517f08c379a000000000000000000000000000000000000000000000000000000000815260040161120f9061352e565b60405180910390fd5b600061122384610c87565b90508460070180549050811061126e576040517f08c379a00000000000000000000000000000000000000000000000000000000081526004016112659061354e565b60405180910390fd5b8460070181815481106112aa577f4e487b7100000000000000000000000000000000000000000000000000000000600052603260045260246000fd5b90600052602060002001548192509250509250929050565b60006112cf826034611020565b9050919050565b6000828054905082106112ec57600090506113b1565b6000838381548110611327577f4e487b7100000000000000000000000000000000000000000000000000000000600052603260045260246000fd5b90600052602060002090600b0201600001549050600081141561134e5760009150506113b1565b600061135b8686866108d6565b9050600061136a878787610d5b565b90506113ab670de0b6b3a764000061139d8561138f86866120d890919063ffffffff16565b6120d890919063ffffffff16565b6120ee90919063ffffffff16565b93505050505b9392505050565b6000808383815481106113f4577f4e487b7100000000000000000000000000000000000000000000000000000000600052603260045260246000fd5b90600052602060002090600b0201600201549050600081141561141b576000915050611449565b611445600161143787600001548461209290919063ffffffff16565b61209290919063ffffffff16565b9150505b9392505050565b600073ffffffffffffffffffffffffffffffffffffffff168260000160009054906101000a900473ffffffffffffffffffffffffffffffffffffffff1673ffffffffffffffffffffffffffffffffffffffff161461156b5760008260010154905060008360000160009054906101000a900473ffffffffffffffffffffffffffffffffffffffff169050734bba64b19dfef99994BD40B7C7e2D4C70CfB95FD639059b154828430876040518563ffffffff1660e01b81526004016115179493929190613449565b60206040518083038186803b15801561152f57600080fd5b505af4158015611543573d6000803e3d6000fd5b505050506040513d601f19601f820116820180604052508101906115679190612a09565b5050505b5050565b60008484815481106115aa577f4e487b7100000000000000000000000000000000000000000000000000000000600052603260045260246000fd5b90600052602060002090600b020160000154905060008111611601576040517f08c379a00000000000000000000000000000000000000000000000000000000081526004016115f8906134ae565b60405180910390fd5b600061160f88888888612133565b905061168787600c0160009054906101000a900473ffffffffffffffffffffffffffffffffffffffff16878781548110611672577f4e487b7100000000000000000000000000000000000000000000000000000000600052603260045260246000fd5b90600052602060002090600b02018686612174565b60008686815481106116c2577f4e487b7100000000000000000000000000000000000000000000000000000000600052603260045260246000fd5b90600052602060002090600b02016000015490506116e08989610b29565b4387878154811061171a577f4e487b7100000000000000000000000000000000000000000000000000000000600052603260045260246000fd5b90600052602060002090600b020160020181905550876002015487878154811061176d577f4e487b7100000000000000000000000000000000000000000000000000000000600052603260045260246000fd5b90600052602060002090600b020160030181905550818787815481106117bc577f4e487b7100000000000000000000000000000000000000000000000000000000600052603260045260246000fd5b90600052602060002090600b0201600701819055506117fa816117ec858b6005015461209290919063ffffffff16565b61211d90919063ffffffff16565b886005018190555061181982896003015461209290919063ffffffff16565b8860030181905550505050505050505050565b60008061187d8885858080601f016020809104026020016040519081016040528093929190818152602001838380828437600081840152601f19601f820116905080830192505050505050506111d0565b91509150734bba64b19dfef99994BD40B7C7e2D4C70CfB95FD63a1c011248a60030160009054906101000a900473ffffffffffffffffffffffffffffffffffffffff163330896040518563ffffffff1660e01b81526004016118e294939291906133a4565b60006040518083038186803b1580156118fa57600080fd5b505af415801561190e573d6000803e3d6000fd5b5050505061191c8989610b29565b600088600801828154811061195a577f4e487b7100000000000000000000000000000000000000000000000000000000600052603260045260246000fd5b9060005260206000200154905061198761197487836109e2565b8a6005015461211d90919063ffffffff16565b89600501819055506119a6868a6004015461211d90919063ffffffff16565b89600401819055506119c58989886119be8a866109e2565b43886124b0565b60548585905010611a8e57611a8d8a8a8a6119ee60018d8054905061209290919063ffffffff16565b611a3b8a8a8080601f016020809104026020016040519081016040528093929190818152602001838380828437600081840152601f19601f82011690508083019250505050505050611b26565b611a888b8b8080601f016020809104026020016040519081016040528093929190818152602001838380828437600081840152601f19601f820116905080830192505050505050506112c2565b61156f565b5b611b1a89600b0160009054906101000a900473ffffffffffffffffffffffffffffffffffffffff1689611acf60018c8054905061209290919063ffffffff16565b81548110611b06577f4e487b7100000000000000000000000000000000000000000000000000000000600052603260045260246000fd5b90600052602060002090600b020189611031565b50505050505050505050565b6000611b338260206107b1565b9050919050565b600082805490508210611b82576040517f08c379a0000000000000000000000000000000000000000000000000000000008152600401611b79906134ce565b60405180910390fd5b43838381548110611bbc577f4e487b7100000000000000000000000000000000000000000000000000000000600052603260045260246000fd5b90600052602060002090600b02016006015410611c0e576040517f08c379a0000000000000000000000000000000000000000000000000000000008152600401611c059061348e565b60405180910390fd5b6000838381548110611c49577f4e487b7100000000000000000000000000000000000000000000000000000000600052603260045260246000fd5b90600052602060002090600b0201600101541415611c9c576040517f08c379a0000000000000000000000000000000000000000000000000000000008152600401611c93906134ce565b60405180910390fd5b6000611caa86868686612133565b9050611cff848481548110611ce8577f4e487b7100000000000000000000000000000000000000000000000000000000600052603260045260246000fd5b90600052602060002090600b020160090133611450565b6000611dba858581548110611d3d577f4e487b7100000000000000000000000000000000000000000000000000000000600052603260045260246000fd5b90600052602060002090600b020160070154611dac878781548110611d8b577f4e487b7100000000000000000000000000000000000000000000000000000000600052603260045260246000fd5b90600052602060002090600b0201600101548561211d90919063ffffffff16565b61211d90919063ffffffff16565b9050734bba64b19dfef99994BD40B7C7e2D4C70CfB95FD63e59fdd368860030160009054906101000a900473ffffffffffffffffffffffffffffffffffffffff1633846040518463ffffffff1660e01b8152600401611e1b939291906133e9565b60006040518083038186803b158015611e3357600080fd5b505af4158015611e47573d6000803e3d6000fd5b50505050611e558787610b29565b611ec8858581548110611e91577f4e487b7100000000000000000000000000000000000000000000000000000000600052603260045260246000fd5b90600052602060002090600b020160070154611eba84896006015461211d90919063ffffffff16565b61211d90919063ffffffff16565b8660060181905550611f31858581548110611f0c577f4e487b7100000000000000000000000000000000000000000000000000000000600052603260045260246000fd5b90600052602060002090600b020160010154876004015461209290919063ffffffff16565b8660040181905550611f9a858581548110611f75577f4e487b7100000000000000000000000000000000000000000000000000000000600052603260045260246000fd5b90600052602060002090600b020160000154876005015461209290919063ffffffff16565b866005018190555061201786600b0160009054906101000a900473ffffffffffffffffffffffffffffffffffffffff16868681548110612003577f4e487b7100000000000000000000000000000000000000000000000000000000600052603260045260246000fd5b90600052602060002090600b020133611031565b612066858581548110612053577f4e487b7100000000000000000000000000000000000000000000000000000000600052603260045260246000fd5b90600052602060002090600b020161262e565b61207d82876003015461209290919063ffffffff16565b86600301819055508192505050949350505050565b600081836120a0919061379c565b905092915050565b60006120cf826120c185876120d890919063ffffffff16565b6120ee90919063ffffffff16565b90509392505050565b600081836120e69190613742565b905092915050565b600081836120fc9190613711565b905092915050565b60008183106121135781612115565b825b905092915050565b6000818361212b91906136bb565b905092915050565b600080612144868686866001612681565b905060006121538686866112d6565b9050612168818361211d90919063ffffffff16565b92505050949350505050565b60008473ffffffffffffffffffffffffffffffffffffffff1663fe6f249b84846040518363ffffffff1660e01b81526004016121b1929190613420565b60206040518083038186803b1580156121c957600080fd5b505afa1580156121dd573d6000803e3d6000fd5b505050506040513d601f19601f820116820180604052508101906122019190612fb9565b60ff16905060008111612249576040517f08c379a0000000000000000000000000000000000000000000000000000000008152600401612240906135ae565b60405180910390fd5b606481101561228d576040517f08c379a00000000000000000000000000000000000000000000000000000000081526004016122849061358e565b60405180910390fd5b600073ffffffffffffffffffffffffffffffffffffffff168460090160000160009054906101000a900473ffffffffffffffffffffffffffffffffffffffff1673ffffffffffffffffffffffffffffffffffffffff1614612323576040517f08c379a000000000000000000000000000000000000000000000000000000000815260040161231a906134ee565b60405180910390fd5b43846006015411612369576040517f08c379a00000000000000000000000000000000000000000000000000000000081526004016123609061350e565b60405180910390fd5b6000846000015490506000734bba64b19dfef99994BD40B7C7e2D4C70CfB95FD639059b154868633306040518563ffffffff1660e01b81526004016123b19493929190613449565b60206040518083038186803b1580156123c957600080fd5b505af41580156123dd573d6000803e3d6000fd5b505050506040513d601f19601f820116820180604052508101906124019190612a09565b905080612443576040517f08c379a000000000000000000000000000000000000000000000000000000000815260040161243a9061356e565b60405180910390fd5b848660090160000160006101000a81548173ffffffffffffffffffffffffffffffffffffffff021916908373ffffffffffffffffffffffffffffffffffffffff16021790555083866009016001018190555061249f82846109e2565b866000018190555050505050505050565b84604051806101400160405280858152602001868152602001848152602001886002015481526020018860090154815260200188600a01548152602001612500848661211d90919063ffffffff16565b815260200160008152602001600081526020016040518060400160405280600073ffffffffffffffffffffffffffffffffffffffff168152602001600081525081525090806001815401808255809150506001900390600052602060002090600b0201600090919091909150600082015181600001556020820151816001015560408201518160020155606082015181600301556080820151816004015560a0820151816005015560c0820151816006015560e0820151816007015561010082015181600801556101208201518160090160008201518160000160006101000a81548173ffffffffffffffffffffffffffffffffffffffff021916908373ffffffffffffffffffffffffffffffffffffffff1602179055506020820151816001015550505050505050505050565b600081600001819055506000816007018190555060008160010181905550600081600201819055506000816006018190555060008160040181905550600081600301819055506000816005018190555050565b60008380549050831061269757600090506127a0565b60008484815481106126d2577f4e487b7100000000000000000000000000000000000000000000000000000000600052603260045260246000fd5b90600052602060002090600b0201600001549050600073Fa4EAb7B53B3530Ea1DdC871B1c02D3dB13d8625633a09889a89896001015461271c60014361209290919063ffffffff16565b6040518463ffffffff1660e01b815260040161273a939291906135ce565b60206040518083038186803b15801561275257600080fd5b505af4158015612766573d6000803e3d6000fd5b505050506040513d601f19601f8201168201806040525081019061278a9190612e8e565b905061279b818389600501546120a8565b925050505b95945050505050565b60006127bc6127b78461367a565b613649565b9050828152602081018484840111156127d457600080fd5b6127df848285613857565b509392505050565b6000813590506127f68161393c565b92915050565b60008135905061280b81613953565b92915050565b6000813590506128208161396a565b92915050565b6000815190506128358161396a565b92915050565b60008083601f84011261284d57600080fd5b8235905067ffffffffffffffff81111561286657600080fd5b60208301915083600182028301111561287e57600080fd5b9250929050565b600082601f83011261289657600080fd5b81356128a68482602086016127a9565b91505092915050565b6000813590506128be81613981565b92915050565b6000813590506128d381613998565b92915050565b6000813590506128e8816139af565b92915050565b6000813590506128fd816139c6565b92915050565b600081359050612912816139dd565b92915050565b600081519050612927816139dd565b92915050565b60008151905061293c816139f4565b92915050565b60008060006060848603121561295757600080fd5b6000612965868287016127e7565b9350506020612976868287016128d9565b9250506040612987868287016127e7565b9150509250925092565b6000602082840312156129a357600080fd5b60006129b1848285016127fc565b91505092915050565b6000806000606084860312156129cf57600080fd5b60006129dd868287016127fc565b93505060206129ee86828701612903565b92505060406129ff86828701612903565b9150509250925092565b600060208284031215612a1b57600080fd5b6000612a2984828501612826565b91505092915050565b600060208284031215612a4457600080fd5b600082013567ffffffffffffffff811115612a5e57600080fd5b612a6a84828501612885565b91505092915050565b60008060408385031215612a8657600080fd5b600083013567ffffffffffffffff811115612aa057600080fd5b612aac85828601612885565b9250506020612abd85828601612903565b9150509250929050565b60008060408385031215612ada57600080fd5b6000612ae8858286016128af565b9250506020612af9858286016128c4565b9150509250929050565b600080600080600080600060c0888a031215612b1e57600080fd5b6000612b2c8a828b016128af565b9750506020612b3d8a828b016128c4565b9650506040612b4e8a828b016127fc565b9550506060612b5f8a828b016127e7565b9450506080612b708a828b01612903565b93505060a088013567ffffffffffffffff811115612b8d57600080fd5b612b998a828b0161283b565b925092505092959891949750929550565b60008060008060808587031215612bc057600080fd5b6000612bce878288016128af565b9450506020612bdf878288016128c4565b9350506040612bf0878288016127fc565b9250506060612c0187828801612903565b91505092959194509250565b60008060008060008060c08789031215612c2657600080fd5b6000612c3489828a016128af565b9650506020612c4589828a016128c4565b9550506040612c5689828a016127fc565b9450506060612c6789828a01612903565b9350506080612c7889828a016127e7565b92505060a0612c8989828a01612903565b9150509295509295509295565b600060208284031215612ca857600080fd5b6000612cb6848285016128c4565b91505092915050565b600080600060608486031215612cd457600080fd5b6000612ce2868287016128c4565b9350506020612cf3868287016127fc565b9250506040612d0486828701612903565b9150509250925092565b60008060408385031215612d2157600080fd5b6000612d2f858286016128c4565b9250506020612d4085828601612811565b9150509250929050565b60008060408385031215612d5d57600080fd5b6000612d6b858286016128c4565b925050602083013567ffffffffffffffff811115612d8857600080fd5b612d9485828601612885565b9150509250929050565b60008060408385031215612db157600080fd5b6000612dbf858286016128c4565b9250506020612dd085828601612903565b9150509250929050565b600080600060608486031215612def57600080fd5b6000612dfd868287016128c4565b9350506020612e0e86828701612903565b9250506040612e1f86828701612811565b9150509250925092565b600060208284031215612e3b57600080fd5b6000612e49848285016128d9565b91505092915050565b60008060408385031215612e6557600080fd5b6000612e73858286016128ee565b9250506020612e84858286016127e7565b9150509250929050565b600060208284031215612ea057600080fd5b6000612eae84828501612918565b91505092915050565b60008060408385031215612eca57600080fd5b6000612ed885828601612903565b9250506020612ee985828601612903565b9150509250929050565b600080600060608486031215612f0857600080fd5b6000612f1686828701612903565b9350506020612f2786828701612903565b9250506040612f3886828701612903565b9150509250925092565b600080600080600060a08688031215612f5a57600080fd5b6000612f6888828901612903565b9550506020612f7988828901612903565b9450506040612f8a88828901612903565b9350506060612f9b88828901612903565b9250506080612fac88828901612903565b9150509295509295909350565b600060208284031215612fcb57600080fd5b6000612fd98482850161292d565b91505092915050565b612feb816137d0565b82525050565b612ffa816137d0565b82525050565b600061300d601e836136aa565b91507f5374616b696e673a205374616b65206973207374696c6c206c6f636b656400006000830152602082019050919050565b600061304d6018836136aa565b91507f5374616b696e673a205374616b65206e6f7420666f756e6400000000000000006000830152602082019050919050565b600061308d601b836136aa565b91507f5374616b696e673a204e6f7468696e6720746f20756e7374616b6500000000006000830152602082019050919050565b60006130cd6022836136aa565b91507f5374616b696e673a205374616b6520616c726561647920686173206120746f6b60008301527f656e0000000000000000000000000000000000000000000000000000000000006020830152604082019050919050565b6000613133602a836136aa565b91507f5374616b696e673a2063616e6e6f7420616464204e465420746f20756e6c6f6360008301527f6b6564207374616b6573000000000000000000000000000000000000000000006020830152604082019050919050565b60006131996027836136aa565b91507f5374616b653a20646174612073686f756c64206279206174206c65617374203360008301527f32206279746573000000000000000000000000000000000000000000000000006020830152604082019050919050565b60006131ff601f836136aa565b91507f5374616b653a206c6f636b20696e646578206f7574206f6620626f756e6473006000830152602082019050919050565b600061323f6023836136aa565b91507f5374616b696e673a20636f756c64206e6f7420616464204e465420746f20737460008301527f616b6500000000000000000000000000000000000000000000000000000000006020830152604082019050919050565b60006132a5602c836136aa565b91507f5374616b696e673a204e4654206d756c7469706c696572206d7573742062652060008301527f6174206c656173742031303000000000000000000000000000000000000000006020830152604082019050919050565b600061330b6028836136aa565b91507f5374616b696e673a204e4654206e6f7420666f756e6420696e2052617269747960008301527f52656769737465720000000000000000000000000000000000000000000000006020830152604082019050919050565b8082525050565b61337481613840565b82525050565b61338381613840565b82525050565b600060208201905061339e6000830184612ff1565b92915050565b60006080820190506133b96000830187612ff1565b6133c66020830186612ff1565b6133d36040830185612ff1565b6133e0606083018461337a565b95945050505050565b60006060820190506133fe6000830186612ff1565b61340b6020830185612ff1565b613418604083018461337a565b949350505050565b60006040820190506134356000830185612fe2565b613442602083018461336b565b9392505050565b600060808201905061345e6000830187612ff1565b61346b602083018661337a565b6134786040830185612ff1565b6134856060830184612ff1565b95945050505050565b600060208201905081810360008301526134a781613000565b9050919050565b600060208201905081810360008301526134c781613040565b9050919050565b600060208201905081810360008301526134e781613080565b9050919050565b60006020820190508181036000830152613507816130c0565b9050919050565b6000602082019050818103600083015261352781613126565b9050919050565b600060208201905081810360008301526135478161318c565b9050919050565b60006020820190508181036000830152613567816131f2565b9050919050565b6000602082019050818103600083015261358781613232565b9050919050565b600060208201905081810360008301526135a781613298565b9050919050565b600060208201905081810360008301526135c7816132fe565b9050919050565b60006060820190506135e36000830186613364565b6135f0602083018561337a565b6135fd604083018461337a565b949350505050565b600060208201905061361a600083018461337a565b92915050565b6000604082019050613635600083018561337a565b613642602083018461337a565b9392505050565b6000604051905081810181811067ffffffffffffffff821117156136705761366f61390d565b5b8060405250919050565b600067ffffffffffffffff8211156136955761369461390d565b5b601f19601f8301169050602081019050919050565b600082825260208201905092915050565b60006136c682613840565b91506136d183613840565b9250827fffffffffffffffffffffffffffffffffffffffffffffffffffffffffffffffff03821115613706576137056138af565b5b828201905092915050565b600061371c82613840565b915061372783613840565b925082613737576137366138de565b5b828204905092915050565b600061374d82613840565b915061375883613840565b9250817fffffffffffffffffffffffffffffffffffffffffffffffffffffffffffffffff0483118215151615613791576137906138af565b5b828202905092915050565b60006137a782613840565b91506137b283613840565b9250828210156137c5576137c46138af565b5b828203905092915050565b60006137db82613820565b9050919050565b6000819050919050565b60008115159050919050565b6000819050919050565b6000819050919050565b6000819050919050565b6000819050919050565b600073ffffffffffffffffffffffffffffffffffffffff82169050919050565b6000819050919050565b600060ff82169050919050565b82818337600083830152505050565b600061387182613840565b91507fffffffffffffffffffffffffffffffffffffffffffffffffffffffffffffffff8214156138a4576138a36138af565b5b600182019050919050565b7f4e487b7100000000000000000000000000000000000000000000000000000000600052601160045260246000fd5b7f4e487b7100000000000000000000000000000000000000000000000000000000600052601260045260246000fd5b7f4e487b7100000000000000000000000000000000000000000000000000000000600052604160045260246000fd5b613945816137d0565b811461395057600080fd5b50565b61395c816137e2565b811461396757600080fd5b50565b613973816137ec565b811461397e57600080fd5b50565b61398a816137f8565b811461399557600080fd5b50565b6139a181613802565b81146139ac57600080fd5b50565b6139b88161380c565b81146139c357600080fd5b50565b6139cf81613816565b81146139da57600080fd5b50565b6139e681613840565b81146139f157600080fd5b50565b6139fd8161384a565b8114613a0857600080fd5b5056fea26469706673582212209d29ce2e52dbe218bc829acebe65b91b00bd0699e369a899f9181cbe65119c3b64736f6c63430008000033",
  "deployedBytecode": "0x73000000000000000000000000000000000000000030146080604052600436106101e45760003560e01c80639c2cbc8d1161010e578063c668e345116100ac578063e64a80e81161007b578063e64a80e8146106ae578063e6c8af4b146106d7578063f58dd31c14610700578063fd9d95ce14610730576101e4565b8063c668e345146105f5578063ca72a6fd14610625578063d85b41f614610655578063dd21807814610685576101e4565b8063bba44c9b116100e8578063bba44c9b14610534578063bcb4969214610564578063c0318f9a14610594578063c157f480146105c4576101e4565b80639c2cbc8d146104ab5780639c8ba815146104db5780639e5236501461050b576101e4565b80637946fbde116101865780638714b767116101555780638714b767146103eb5780638c138d071461041b5780638f3b32781461044b5780639ac9e04a1461047b576101e4565b80637946fbde14610332578063795737b5146103625780637a54ff411461038b5780637bc0bc92146103bb576101e4565b806355facecf116101c257806355facecf14610279578063607082a3146102a957806360fa09dd146102d9578063653e5d2614610302576101e4565b806313889500146101e95780631dccbf87146102195780632861e3e214610249575b600080fd5b61020360048036038101906101fe9190612c96565b61076d565b6040516102109190613605565b60405180910390f35b610233600480360381019061022e9190612c96565b610791565b6040516102409190613605565b60405180910390f35b610263600480360381019061025e9190612a73565b6107b1565b6040516102709190613389565b60405180910390f35b610293600480360381019061028e9190612baa565b6107c2565b6040516102a09190613605565b60405180910390f35b6102c360048036038101906102be9190612cbf565b6108d6565b6040516102d09190613605565b60405180910390f35b8180156102e557600080fd5b5061030060048036038101906102fb9190612d9e565b6109d5565b005b61031c60048036038101906103179190612eb7565b6109e2565b6040516103299190613605565b60405180910390f35b61034c60048036038101906103479190612e29565b610a12565b6040516103599190613605565b60405180910390f35b81801561036e57600080fd5b5061038960048036038101906103849190612ac7565b610b29565b005b6103a560048036038101906103a09190612baa565b610c48565b6040516103b29190613605565b60405180910390f35b6103d560048036038101906103d09190612a32565b610c87565b6040516103e29190613605565b60405180910390f35b61040560048036038101906104009190612dda565b610c9b565b6040516104129190613605565b60405180910390f35b61043560048036038101906104309190612d0e565b610d21565b6040516104429190613605565b60405180910390f35b61046560048036038101906104609190612cbf565b610d5b565b6040516104729190613605565b60405180910390f35b61049560048036038101906104909190612991565b610e9e565b6040516104a29190613605565b60405180910390f35b6104c560048036038101906104c091906129ba565b610f2c565b6040516104d29190613605565b60405180910390f35b6104f560048036038101906104f09190612a73565b611020565b6040516105029190613605565b60405180910390f35b81801561051757600080fd5b50610532600480360381019061052d9190612942565b611031565b005b61054e60048036038101906105499190612ef3565b6110d8565b60405161055b9190613605565b60405180910390f35b61057e60048036038101906105799190612ef3565b611108565b60405161058b9190613605565b60405180910390f35b6105ae60048036038101906105a99190612f42565b611138565b6040516105bb9190613605565b60405180910390f35b6105de60048036038101906105d99190612d4a565b6111d0565b6040516105ec929190613620565b60405180910390f35b61060f600480360381019061060a9190612a32565b6112c2565b60405161061c9190613605565b60405180910390f35b61063f600480360381019061063a9190612cbf565b6112d6565b60405161064c9190613605565b60405180910390f35b61066f600480360381019061066a9190612cbf565b6113b8565b60405161067c9190613605565b60405180910390f35b81801561069157600080fd5b506106ac60048036038101906106a79190612e52565b611450565b005b8180156106ba57600080fd5b506106d560048036038101906106d09190612c0d565b61156f565b005b8180156106e357600080fd5b506106fe60048036038101906106f99190612b03565b61182c565b005b61071a60048036038101906107159190612a32565b611b26565b6040516107279190613389565b60405180910390f35b81801561073c57600080fd5b5061075760048036038101906107529190612baa565b611b3a565b6040516107649190613605565b60405180910390f35b600061078a8260000154836001015461209290919063ffffffff16565b9050919050565b60006107aa82600101544361209290919063ffffffff16565b9050919050565b600060148284010151905092915050565b6000828054905082106107d857600090506108ce565b6000838381548110610813577f4e487b7100000000000000000000000000000000000000000000000000000000600052603260045260246000fd5b90600052602060002090600b0201600001549050600073__$8a1be47e59849b3a56075319f035db0fe2$__63c02ceb0a888860010154436040518463ffffffff1660e01b8152600401610868939291906135ce565b60206040518083038186803b15801561088057600080fd5b505af4158015610894573d6000803e3d6000fd5b505050506040513d601f19601f820116820180604052508101906108b89190612e8e565b90506108c9818388600501546120a8565b925050505b949350505050565b6000828054905082106108ec57600090506109ce565b6000838381548110610927577f4e487b7100000000000000000000000000000000000000000000000000000000600052603260045260246000fd5b90600052602060002090600b02016003015490506000610948868686610d5b565b9050600081141561095e576000925050506109ce565b60006109698761076d565b905060006109788888886113b8565b90506109c7836109b961099484886120d890919063ffffffff16565b6109ab868d600201546120d890919063ffffffff16565b61209290919063ffffffff16565b6120ee90919063ffffffff16565b9450505050505b9392505050565b8082600901819055505050565b6000610a0a60646109fc84866120d890919063ffffffff16565b6120ee90919063ffffffff16565b905092915050565b600080826000015490506000836005015490506000846004015490506000856008015490506000841480610a465750600082145b80610a515750600083145b15610a63576000945050505050610b24565b6000866002015490506000876006015490506000610ab786610aa9610a91864361209290919063ffffffff16565b610aa4878761209290919063ffffffff16565b612104565b61211d90919063ffffffff16565b90506000610ace87836120ee90919063ffffffff16565b90506000610ae5828a6120d890919063ffffffff16565b90506000610afc88836120ee90919063ffffffff16565b90506000610b13888361209290919063ffffffff16565b9050809b5050505050505050505050505b919050565b600073__$8a1be47e59849b3a56075319f035db0fe2$__633a09889a848460010154610b5f60014361209290919063ffffffff16565b6040518463ffffffff1660e01b8152600401610b7d939291906135ce565b60206040518083038186803b158015610b9557600080fd5b505af4158015610ba9573d6000803e3d6000fd5b505050506040513d601f19601f82011682018060405250810190610bcd9190612e8e565b90506000610bdd83836001610c9b565b9050610c06610bed846001610d21565b82610bf78661076d565b86600001548760020154611138565b8360020181905550610c1e83600301548360006110d8565b8360030181905550610c3a60014361209290919063ffffffff16565b836001018190555050505050565b600080610c57868686866107c2565b90506000610c668686866112d6565b9050610c7b818361211d90919063ffffffff16565b92505050949350505050565b6000610c94826000611020565b9050919050565b60008084600501541415610cb25760009050610d1a565b6000610cbe8584610d21565b90506000811415610cd3576000915050610d1a565b610d1681610d088760050154610cfa670de0b6b3a7640000896120d890919063ffffffff16565b6120ee90919063ffffffff16565b6120ee90919063ffffffff16565b9150505b9392505050565b600081610d3657610d3183610791565b610d53565b610d526001610d4485610791565b61209290919063ffffffff16565b5b905092915050565b6000828054905082101580610dba57506000838381548110610da6577f4e487b7100000000000000000000000000000000000000000000000000000000600052603260045260246000fd5b90600052602060002090600b020160020154145b80610e1257508360010154838381548110610dfe577f4e487b7100000000000000000000000000000000000000000000000000000000600052603260045260246000fd5b90600052602060002090600b020160020154115b15610e205760009050610e97565b610e946001610e86858581548110610e61577f4e487b7100000000000000000000000000000000000000000000000000000000600052603260045260246000fd5b90600052602060002090600b020160020154876001015461209290919063ffffffff16565b61211d90919063ffffffff16565b90505b9392505050565b60008060005b8380549050811015610f2257610f0d848281548110610eec577f4e487b7100000000000000000000000000000000000000000000000000000000600052603260045260246000fd5b90600052602060002090600b0201600101548361211d90919063ffffffff16565b91508080610f1a90613866565b915050610ea4565b5080915050919050565b6000838054905083101580610f8b57506000848481548110610f77577f4e487b7100000000000000000000000000000000000000000000000000000000600052603260045260246000fd5b90600052602060002090600b020160000154145b15610f995760009050611019565b6000848481548110610fd4577f4e487b7100000000000000000000000000000000000000000000000000000000600052603260045260246000fd5b90600052602060002090600b020160000154905061101583611007670de0b6b3a7640000846120d890919063ffffffff16565b6120ee90919063ffffffff16565b9150505b9392505050565b600060208284010151905092915050565b600061103c83610a12565b905060008111156110d25773__$11791ee3c30036632c128bd6c5593b6470$__635043eee68584846040518463ffffffff1660e01b8152600401611082939291906133e9565b60006040518083038186803b15801561109a57600080fd5b505af41580156110ae573d6000803e3d6000fd5b505050506110c981846008015461211d90919063ffffffff16565b83600801819055505b50505050565b60006110ff826110f1858761211d90919063ffffffff16565b61209290919063ffffffff16565b90509392505050565b600061112f82611121858761209290919063ffffffff16565b6120d890919063ffffffff16565b90509392505050565b60008043905060006111668561115860018561209290919063ffffffff16565b61209290919063ffffffff16565b9050600061117d888a6120d890919063ffffffff16565b9050600061119486896120d890919063ffffffff16565b905060006111bd846111af848661211d90919063ffffffff16565b6120ee90919063ffffffff16565b9050809550505050505095945050505050565b600080602083511015611218576040517f08c379a000000000000000000000000000000000000000000000000000000000815260040161120f9061352e565b60405180910390fd5b600061122384610c87565b90508460070180549050811061126e576040517f08c379a00000000000000000000000000000000000000000000000000000000081526004016112659061354e565b60405180910390fd5b8460070181815481106112aa577f4e487b7100000000000000000000000000000000000000000000000000000000600052603260045260246000fd5b90600052602060002001548192509250509250929050565b60006112cf826034611020565b9050919050565b6000828054905082106112ec57600090506113b1565b6000838381548110611327577f4e487b7100000000000000000000000000000000000000000000000000000000600052603260045260246000fd5b90600052602060002090600b0201600001549050600081141561134e5760009150506113b1565b600061135b8686866108d6565b9050600061136a878787610d5b565b90506113ab670de0b6b3a764000061139d8561138f86866120d890919063ffffffff16565b6120d890919063ffffffff16565b6120ee90919063ffffffff16565b93505050505b9392505050565b6000808383815481106113f4577f4e487b7100000000000000000000000000000000000000000000000000000000600052603260045260246000fd5b90600052602060002090600b0201600201549050600081141561141b576000915050611449565b611445600161143787600001548461209290919063ffffffff16565b61209290919063ffffffff16565b9150505b9392505050565b600073ffffffffffffffffffffffffffffffffffffffff168260000160009054906101000a900473ffffffffffffffffffffffffffffffffffffffff1673ffffffffffffffffffffffffffffffffffffffff161461156b5760008260010154905060008360000160009054906101000a900473ffffffffffffffffffffffffffffffffffffffff16905073__$11791ee3c30036632c128bd6c5593b6470$__639059b154828430876040518563ffffffff1660e01b81526004016115179493929190613449565b60206040518083038186803b15801561152f57600080fd5b505af4158015611543573d6000803e3d6000fd5b505050506040513d601f19601f820116820180604052508101906115679190612a09565b5050505b5050565b60008484815481106115aa577f4e487b7100000000000000000000000000000000000000000000000000000000600052603260045260246000fd5b90600052602060002090600b020160000154905060008111611601576040517f08c379a00000000000000000000000000000000000000000000000000000000081526004016115f8906134ae565b60405180910390fd5b600061160f88888888612133565b905061168787600c0160009054906101000a900473ffffffffffffffffffffffffffffffffffffffff16878781548110611672577f4e487b7100000000000000000000000000000000000000000000000000000000600052603260045260246000fd5b90600052602060002090600b02018686612174565b60008686815481106116c2577f4e487b7100000000000000000000000000000000000000000000000000000000600052603260045260246000fd5b90600052602060002090600b02016000015490506116e08989610b29565b4387878154811061171a577f4e487b7100000000000000000000000000000000000000000000000000000000600052603260045260246000fd5b90600052602060002090600b020160020181905550876002015487878154811061176d577f4e487b7100000000000000000000000000000000000000000000000000000000600052603260045260246000fd5b90600052602060002090600b020160030181905550818787815481106117bc577f4e487b7100000000000000000000000000000000000000000000000000000000600052603260045260246000fd5b90600052602060002090600b0201600701819055506117fa816117ec858b6005015461209290919063ffffffff16565b61211d90919063ffffffff16565b886005018190555061181982896003015461209290919063ffffffff16565b8860030181905550505050505050505050565b60008061187d8885858080601f016020809104026020016040519081016040528093929190818152602001838380828437600081840152601f19601f820116905080830192505050505050506111d0565b9150915073__$11791ee3c30036632c128bd6c5593b6470$__63a1c011248a60030160009054906101000a900473ffffffffffffffffffffffffffffffffffffffff163330896040518563ffffffff1660e01b81526004016118e294939291906133a4565b60006040518083038186803b1580156118fa57600080fd5b505af415801561190e573d6000803e3d6000fd5b5050505061191c8989610b29565b600088600801828154811061195a577f4e487b7100000000000000000000000000000000000000000000000000000000600052603260045260246000fd5b9060005260206000200154905061198761197487836109e2565b8a6005015461211d90919063ffffffff16565b89600501819055506119a6868a6004015461211d90919063ffffffff16565b89600401819055506119c58989886119be8a866109e2565b43886124b0565b60548585905010611a8e57611a8d8a8a8a6119ee60018d8054905061209290919063ffffffff16565b611a3b8a8a8080601f016020809104026020016040519081016040528093929190818152602001838380828437600081840152601f19601f82011690508083019250505050505050611b26565b611a888b8b8080601f016020809104026020016040519081016040528093929190818152602001838380828437600081840152601f19601f820116905080830192505050505050506112c2565b61156f565b5b611b1a89600b0160009054906101000a900473ffffffffffffffffffffffffffffffffffffffff1689611acf60018c8054905061209290919063ffffffff16565b81548110611b06577f4e487b7100000000000000000000000000000000000000000000000000000000600052603260045260246000fd5b90600052602060002090600b020189611031565b50505050505050505050565b6000611b338260206107b1565b9050919050565b600082805490508210611b82576040517f08c379a0000000000000000000000000000000000000000000000000000000008152600401611b79906134ce565b60405180910390fd5b43838381548110611bbc577f4e487b7100000000000000000000000000000000000000000000000000000000600052603260045260246000fd5b90600052602060002090600b02016006015410611c0e576040517f08c379a0000000000000000000000000000000000000000000000000000000008152600401611c059061348e565b60405180910390fd5b6000838381548110611c49577f4e487b7100000000000000000000000000000000000000000000000000000000600052603260045260246000fd5b90600052602060002090600b0201600101541415611c9c576040517f08c379a0000000000000000000000000000000000000000000000000000000008152600401611c93906134ce565b60405180910390fd5b6000611caa86868686612133565b9050611cff848481548110611ce8577f4e487b7100000000000000000000000000000000000000000000000000000000600052603260045260246000fd5b90600052602060002090600b020160090133611450565b6000611dba858581548110611d3d577f4e487b7100000000000000000000000000000000000000000000000000000000600052603260045260246000fd5b90600052602060002090600b020160070154611dac878781548110611d8b577f4e487b7100000000000000000000000000000000000000000000000000000000600052603260045260246000fd5b90600052602060002090600b0201600101548561211d90919063ffffffff16565b61211d90919063ffffffff16565b905073__$11791ee3c30036632c128bd6c5593b6470$__63e59fdd368860030160009054906101000a900473ffffffffffffffffffffffffffffffffffffffff1633846040518463ffffffff1660e01b8152600401611e1b939291906133e9565b60006040518083038186803b158015611e3357600080fd5b505af4158015611e47573d6000803e3d6000fd5b50505050611e558787610b29565b611ec8858581548110611e91577f4e487b7100000000000000000000000000000000000000000000000000000000600052603260045260246000fd5b90600052602060002090600b020160070154611eba84896006015461211d90919063ffffffff16565b61211d90919063ffffffff16565b8660060181905550611f31858581548110611f0c577f4e487b7100000000000000000000000000000000000000000000000000000000600052603260045260246000fd5b90600052602060002090600b020160010154876004015461209290919063ffffffff16565b8660040181905550611f9a858581548110611f75577f4e487b7100000000000000000000000000000000000000000000000000000000600052603260045260246000fd5b90600052602060002090600b020160000154876005015461209290919063ffffffff16565b866005018190555061201786600b0160009054906101000a900473ffffffffffffffffffffffffffffffffffffffff16868681548110612003577f4e487b7100000000000000000000000000000000000000000000000000000000600052603260045260246000fd5b90600052602060002090600b020133611031565b612066858581548110612053577f4e487b7100000000000000000000000000000000000000000000000000000000600052603260045260246000fd5b90600052602060002090600b020161262e565b61207d82876003015461209290919063ffffffff16565b86600301819055508192505050949350505050565b600081836120a0919061379c565b905092915050565b60006120cf826120c185876120d890919063ffffffff16565b6120ee90919063ffffffff16565b90509392505050565b600081836120e69190613742565b905092915050565b600081836120fc9190613711565b905092915050565b60008183106121135781612115565b825b905092915050565b6000818361212b91906136bb565b905092915050565b600080612144868686866001612681565b905060006121538686866112d6565b9050612168818361211d90919063ffffffff16565b92505050949350505050565b60008473ffffffffffffffffffffffffffffffffffffffff1663fe6f249b84846040518363ffffffff1660e01b81526004016121b1929190613420565b60206040518083038186803b1580156121c957600080fd5b505afa1580156121dd573d6000803e3d6000fd5b505050506040513d601f19601f820116820180604052508101906122019190612fb9565b60ff16905060008111612249576040517f08c379a0000000000000000000000000000000000000000000000000000000008152600401612240906135ae565b60405180910390fd5b606481101561228d576040517f08c379a00000000000000000000000000000000000000000000000000000000081526004016122849061358e565b60405180910390fd5b600073ffffffffffffffffffffffffffffffffffffffff168460090160000160009054906101000a900473ffffffffffffffffffffffffffffffffffffffff1673ffffffffffffffffffffffffffffffffffffffff1614612323576040517f08c379a000000000000000000000000000000000000000000000000000000000815260040161231a906134ee565b60405180910390fd5b43846006015411612369576040517f08c379a00000000000000000000000000000000000000000000000000000000081526004016123609061350e565b60405180910390fd5b600084600001549050600073__$11791ee3c30036632c128bd6c5593b6470$__639059b154868633306040518563ffffffff1660e01b81526004016123b19493929190613449565b60206040518083038186803b1580156123c957600080fd5b505af41580156123dd573d6000803e3d6000fd5b505050506040513d601f19601f820116820180604052508101906124019190612a09565b905080612443576040517f08c379a000000000000000000000000000000000000000000000000000000000815260040161243a9061356e565b60405180910390fd5b848660090160000160006101000a81548173ffffffffffffffffffffffffffffffffffffffff021916908373ffffffffffffffffffffffffffffffffffffffff16021790555083866009016001018190555061249f82846109e2565b866000018190555050505050505050565b84604051806101400160405280858152602001868152602001848152602001886002015481526020018860090154815260200188600a01548152602001612500848661211d90919063ffffffff16565b815260200160008152602001600081526020016040518060400160405280600073ffffffffffffffffffffffffffffffffffffffff168152602001600081525081525090806001815401808255809150506001900390600052602060002090600b0201600090919091909150600082015181600001556020820151816001015560408201518160020155606082015181600301556080820151816004015560a0820151816005015560c0820151816006015560e0820151816007015561010082015181600801556101208201518160090160008201518160000160006101000a81548173ffffffffffffffffffffffffffffffffffffffff021916908373ffffffffffffffffffffffffffffffffffffffff1602179055506020820151816001015550505050505050505050565b600081600001819055506000816007018190555060008160010181905550600081600201819055506000816006018190555060008160040181905550600081600301819055506000816005018190555050565b60008380549050831061269757600090506127a0565b60008484815481106126d2577f4e487b7100000000000000000000000000000000000000000000000000000000600052603260045260246000fd5b90600052602060002090600b0201600001549050600073__$8a1be47e59849b3a56075319f035db0fe2$__633a09889a89896001015461271c60014361209290919063ffffffff16565b6040518463ffffffff1660e01b815260040161273a939291906135ce565b60206040518083038186803b15801561275257600080fd5b505af4158015612766573d6000803e3d6000fd5b505050506040513d601f19601f8201168201806040525081019061278a9190612e8e565b905061279b818389600501546120a8565b925050505b95945050505050565b60006127bc6127b78461367a565b613649565b9050828152602081018484840111156127d457600080fd5b6127df848285613857565b509392505050565b6000813590506127f68161393c565b92915050565b60008135905061280b81613953565b92915050565b6000813590506128208161396a565b92915050565b6000815190506128358161396a565b92915050565b60008083601f84011261284d57600080fd5b8235905067ffffffffffffffff81111561286657600080fd5b60208301915083600182028301111561287e57600080fd5b9250929050565b600082601f83011261289657600080fd5b81356128a68482602086016127a9565b91505092915050565b6000813590506128be81613981565b92915050565b6000813590506128d381613998565b92915050565b6000813590506128e8816139af565b92915050565b6000813590506128fd816139c6565b92915050565b600081359050612912816139dd565b92915050565b600081519050612927816139dd565b92915050565b60008151905061293c816139f4565b92915050565b60008060006060848603121561295757600080fd5b6000612965868287016127e7565b9350506020612976868287016128d9565b9250506040612987868287016127e7565b9150509250925092565b6000602082840312156129a357600080fd5b60006129b1848285016127fc565b91505092915050565b6000806000606084860312156129cf57600080fd5b60006129dd868287016127fc565b93505060206129ee86828701612903565b92505060406129ff86828701612903565b9150509250925092565b600060208284031215612a1b57600080fd5b6000612a2984828501612826565b91505092915050565b600060208284031215612a4457600080fd5b600082013567ffffffffffffffff811115612a5e57600080fd5b612a6a84828501612885565b91505092915050565b60008060408385031215612a8657600080fd5b600083013567ffffffffffffffff811115612aa057600080fd5b612aac85828601612885565b9250506020612abd85828601612903565b9150509250929050565b60008060408385031215612ada57600080fd5b6000612ae8858286016128af565b9250506020612af9858286016128c4565b9150509250929050565b600080600080600080600060c0888a031215612b1e57600080fd5b6000612b2c8a828b016128af565b9750506020612b3d8a828b016128c4565b9650506040612b4e8a828b016127fc565b9550506060612b5f8a828b016127e7565b9450506080612b708a828b01612903565b93505060a088013567ffffffffffffffff811115612b8d57600080fd5b612b998a828b0161283b565b925092505092959891949750929550565b60008060008060808587031215612bc057600080fd5b6000612bce878288016128af565b9450506020612bdf878288016128c4565b9350506040612bf0878288016127fc565b9250506060612c0187828801612903565b91505092959194509250565b60008060008060008060c08789031215612c2657600080fd5b6000612c3489828a016128af565b9650506020612c4589828a016128c4565b9550506040612c5689828a016127fc565b9450506060612c6789828a01612903565b9350506080612c7889828a016127e7565b92505060a0612c8989828a01612903565b9150509295509295509295565b600060208284031215612ca857600080fd5b6000612cb6848285016128c4565b91505092915050565b600080600060608486031215612cd457600080fd5b6000612ce2868287016128c4565b9350506020612cf3868287016127fc565b9250506040612d0486828701612903565b9150509250925092565b60008060408385031215612d2157600080fd5b6000612d2f858286016128c4565b9250506020612d4085828601612811565b9150509250929050565b60008060408385031215612d5d57600080fd5b6000612d6b858286016128c4565b925050602083013567ffffffffffffffff811115612d8857600080fd5b612d9485828601612885565b9150509250929050565b60008060408385031215612db157600080fd5b6000612dbf858286016128c4565b9250506020612dd085828601612903565b9150509250929050565b600080600060608486031215612def57600080fd5b6000612dfd868287016128c4565b9350506020612e0e86828701612903565b9250506040612e1f86828701612811565b9150509250925092565b600060208284031215612e3b57600080fd5b6000612e49848285016128d9565b91505092915050565b60008060408385031215612e6557600080fd5b6000612e73858286016128ee565b9250506020612e84858286016127e7565b9150509250929050565b600060208284031215612ea057600080fd5b6000612eae84828501612918565b91505092915050565b60008060408385031215612eca57600080fd5b6000612ed885828601612903565b9250506020612ee985828601612903565b9150509250929050565b600080600060608486031215612f0857600080fd5b6000612f1686828701612903565b9350506020612f2786828701612903565b9250506040612f3886828701612903565b9150509250925092565b600080600080600060a08688031215612f5a57600080fd5b6000612f6888828901612903565b9550506020612f7988828901612903565b9450506040612f8a88828901612903565b9350506060612f9b88828901612903565b9250506080612fac88828901612903565b9150509295509295909350565b600060208284031215612fcb57600080fd5b6000612fd98482850161292d565b91505092915050565b612feb816137d0565b82525050565b612ffa816137d0565b82525050565b600061300d601e836136aa565b91507f5374616b696e673a205374616b65206973207374696c6c206c6f636b656400006000830152602082019050919050565b600061304d6018836136aa565b91507f5374616b696e673a205374616b65206e6f7420666f756e6400000000000000006000830152602082019050919050565b600061308d601b836136aa565b91507f5374616b696e673a204e6f7468696e6720746f20756e7374616b6500000000006000830152602082019050919050565b60006130cd6022836136aa565b91507f5374616b696e673a205374616b6520616c726561647920686173206120746f6b60008301527f656e0000000000000000000000000000000000000000000000000000000000006020830152604082019050919050565b6000613133602a836136aa565b91507f5374616b696e673a2063616e6e6f7420616464204e465420746f20756e6c6f6360008301527f6b6564207374616b6573000000000000000000000000000000000000000000006020830152604082019050919050565b60006131996027836136aa565b91507f5374616b653a20646174612073686f756c64206279206174206c65617374203360008301527f32206279746573000000000000000000000000000000000000000000000000006020830152604082019050919050565b60006131ff601f836136aa565b91507f5374616b653a206c6f636b20696e646578206f7574206f6620626f756e6473006000830152602082019050919050565b600061323f6023836136aa565b91507f5374616b696e673a20636f756c64206e6f7420616464204e465420746f20737460008301527f616b6500000000000000000000000000000000000000000000000000000000006020830152604082019050919050565b60006132a5602c836136aa565b91507f5374616b696e673a204e4654206d756c7469706c696572206d7573742062652060008301527f6174206c656173742031303000000000000000000000000000000000000000006020830152604082019050919050565b600061330b6028836136aa565b91507f5374616b696e673a204e4654206e6f7420666f756e6420696e2052617269747960008301527f52656769737465720000000000000000000000000000000000000000000000006020830152604082019050919050565b8082525050565b61337481613840565b82525050565b61338381613840565b82525050565b600060208201905061339e6000830184612ff1565b92915050565b60006080820190506133b96000830187612ff1565b6133c66020830186612ff1565b6133d36040830185612ff1565b6133e0606083018461337a565b95945050505050565b60006060820190506133fe6000830186612ff1565b61340b6020830185612ff1565b613418604083018461337a565b949350505050565b60006040820190506134356000830185612fe2565b613442602083018461336b565b9392505050565b600060808201905061345e6000830187612ff1565b61346b602083018661337a565b6134786040830185612ff1565b6134856060830184612ff1565b95945050505050565b600060208201905081810360008301526134a781613000565b9050919050565b600060208201905081810360008301526134c781613040565b9050919050565b600060208201905081810360008301526134e781613080565b9050919050565b60006020820190508181036000830152613507816130c0565b9050919050565b6000602082019050818103600083015261352781613126565b9050919050565b600060208201905081810360008301526135478161318c565b9050919050565b60006020820190508181036000830152613567816131f2565b9050919050565b6000602082019050818103600083015261358781613232565b9050919050565b600060208201905081810360008301526135a781613298565b9050919050565b600060208201905081810360008301526135c7816132fe565b9050919050565b60006060820190506135e36000830186613364565b6135f0602083018561337a565b6135fd604083018461337a565b949350505050565b600060208201905061361a600083018461337a565b92915050565b6000604082019050613635600083018561337a565b613642602083018461337a565b9392505050565b6000604051905081810181811067ffffffffffffffff821117156136705761366f61390d565b5b8060405250919050565b600067ffffffffffffffff8211156136955761369461390d565b5b601f19601f8301169050602081019050919050565b600082825260208201905092915050565b60006136c682613840565b91506136d183613840565b9250827fffffffffffffffffffffffffffffffffffffffffffffffffffffffffffffffff03821115613706576137056138af565b5b828201905092915050565b600061371c82613840565b915061372783613840565b925082613737576137366138de565b5b828204905092915050565b600061374d82613840565b915061375883613840565b9250817fffffffffffffffffffffffffffffffffffffffffffffffffffffffffffffffff0483118215151615613791576137906138af565b5b828202905092915050565b60006137a782613840565b91506137b283613840565b9250828210156137c5576137c46138af565b5b828203905092915050565b60006137db82613820565b9050919050565b6000819050919050565b60008115159050919050565b6000819050919050565b6000819050919050565b6000819050919050565b6000819050919050565b600073ffffffffffffffffffffffffffffffffffffffff82169050919050565b6000819050919050565b600060ff82169050919050565b82818337600083830152505050565b600061387182613840565b91507fffffffffffffffffffffffffffffffffffffffffffffffffffffffffffffffff8214156138a4576138a36138af565b5b600182019050919050565b7f4e487b7100000000000000000000000000000000000000000000000000000000600052601160045260246000fd5b7f4e487b7100000000000000000000000000000000000000000000000000000000600052601260045260246000fd5b7f4e487b7100000000000000000000000000000000000000000000000000000000600052604160045260246000fd5b613945816137d0565b811461395057600080fd5b50565b61395c816137e2565b811461396757600080fd5b50565b613973816137ec565b811461397e57600080fd5b50565b61398a816137f8565b811461399557600080fd5b50565b6139a181613802565b81146139ac57600080fd5b50565b6139b88161380c565b81146139c357600080fd5b50565b6139cf81613816565b81146139da57600080fd5b50565b6139e681613840565b81146139f157600080fd5b50565b6139fd8161384a565b8114613a0857600080fd5b5056fea26469706673582212209d29ce2e52dbe218bc829acebe65b91b00bd0699e369a899f9181cbe65119c3b64736f6c63430008000033",
  "libraries": {
    "TokenHelper": "0x4bba64b19dfef99994BD40B7C7e2D4C70CfB95FD",
    "RewardStreamerLib": "0xFa4EAb7B53B3530Ea1DdC871B1c02D3dB13d8625"
  },
  "devdoc": {
    "kind": "dev",
    "methods": {
      "addNftToStake(RewardStreamerLib.RewardStreamInfo storage,StakingLib.StakingInfo storage,StakingLib.UserStake[] storage,uint256,address,uint256)": {
        "details": "The stake should existwhen adding the NFT we need to simulate an untake/stake because we need to recalculate the new historyAverageAmount, stakingInfo.totalStakingUnits and stakingInfo.historyRewardPot"
      },
      "applyPercent(uint256,uint256)": {
        "params": {
          "number": "The number to multiply",
          "percent": "The percentage to apply"
        },
        "returns": {
          "_0": "(uint256) the operation result"
        }
      },
      "claimTickets(address,StakingLib.UserStake storage,address)": {
        "params": {
          "staker": "the address fo the staker",
          "ticket": "the address of the ticket instance",
          "userStake": "the stake to claim tickets from"
        }
      },
      "getCurrentPeriodAverageReward(StakingLib.StakingInfo storage,uint256,bool)": {
        "params": {
          "excludeLast": "wether or not exclude the last block",
          "stakingInfo": "the struct containing staking info",
          "totalReward": "the total reward in current period"
        },
        "returns": {
          "_0": "(uint256) number of blocks in history"
        }
      },
      "getCurrentPeriodLength(StakingLib.StakingInfo storage)": {
        "returns": {
          "_0": "(uint256) The current period length"
        }
      },
      "getCurrentPeriodLength(StakingLib.StakingInfo storage,bool)": {
        "params": {
          "excludeLast": "a flag that indicates to include the last block or not"
        },
        "returns": {
          "_0": "(uint256) The current period length"
        }
      },
      "getHistoryAverageForStaker(StakingLib.StakingInfo storage,StakingLib.UserStake[] storage,uint256)": {
        "returns": {
          "_0": "(uint256) the calculated average"
        }
      },
      "getHistoryLength(StakingLib.StakingInfo storage)": {
        "returns": {
          "_0": "(uint256) The history length"
        }
      },
      "getHistoryLengthBeforeStakerEntered(StakingLib.StakingInfo storage,StakingLib.UserStake[] storage,uint256)": {
        "params": {
          "stakeIndex": "the index of the stake"
        },
        "returns": {
          "_0": "(uint256) The length of the history"
        }
      },
      "getLockDuration(StakingLib.StakingInfo storage,bytes)": {
        "details": "the bytes should contain the index of the lock in the first 32 bytesthe index should be < locks.length",
        "params": {
          "data": "bytes from the stake action"
        },
        "returns": {
          "_0": "uint256 The duration of the lock (time for wich the stake will be locked)"
        }
      },
      "getNewHistoryAverageReward(uint256,uint256,uint256,uint256,uint256)": {
        "details": "this is called **before** we update history end block",
        "returns": {
          "_0": "uint256 The calculated newHistoryAverageReward"
        }
      },
      "getStakeIndexFromCalldata(bytes)": {
        "details": "[(index 32 bytes), (nft address 20 bytes), (tokenId 32 bytes)]",
        "params": {
          "data": "bytes from the stake action"
        },
        "returns": {
          "_0": "(uint256) the parsed index"
        }
      },
      "getStakerReward(RewardStreamerLib.RewardStreamInfo storage,StakingLib.StakingInfo storage,StakingLib.UserStake[] storage,uint256)": {
        "params": {
          "stakeIndex": "the index of the stake"
        },
        "returns": {
          "_0": "(uint256) The total rewards acumulated till now"
        }
      },
      "getStakerRewardFromCurrentPeriod(RewardStreamerLib.RewardStreamInfo storage,StakingLib.StakingInfo storage,StakingLib.UserStake[] storage,uint256)": {
        "returns": {
          "_0": "(uint256) the calculater reward"
        }
      },
      "getStakerRewardFromHistory(StakingLib.StakingInfo storage,StakingLib.UserStake[] storage,uint256)": {
        "returns": {
          "_0": "(uint256) the calculater reward"
        }
      },
      "getStakerTimeInHistory(StakingLib.StakingInfo storage,StakingLib.UserStake[] storage,uint256)": {
        "returns": {
          "_0": "(uint256) number of blocks in history"
        }
      },
      "getTokenAddressFromCalldata(bytes)": {
        "details": "[(index 32 bytes), (nft address 20 bytes), (tokenId 32 bytes)]",
        "params": {
          "data": "bytes from the stake action"
        },
        "returns": {
          "_0": "(address) the parsed address"
        }
      },
      "getTokenIdFromCalldata(bytes)": {
        "details": "[(index 32 bytes), (nft address 20 bytes), (tokenId 32 bytes)]",
        "params": {
          "data": "bytes from the stake action"
        },
        "returns": {
          "_0": "(uint256) the parsed tokenId"
        }
      },
      "historyRewardPot(uint256,uint256,uint256)": {
        "params": {
          "oldHistoryRewardPot": "the old history reward pot",
          "stakerReward": "the staker reward",
          "totalRewardInCurrentPeriod": "the total reward from current period"
        },
        "returns": {
          "_0": "(uint256) the new history reward pot"
        }
      },
      "parse32BytesToUint256(bytes,uint256)": {
        "params": {
          "data": "bytes data",
          "from": "from where to start the parsing"
        }
      },
      "parseBytesToAddress(bytes,uint256)": {
        "params": {
          "data": "bytes data",
          "from": "from where to start the parsing"
        }
      },
      "removeNftFromStake(StakingLib.UserStakedToken storage,address)": {
        "params": {
          "staker": "the address of the owner of the stake"
        }
      },
      "stake(RewardStreamerLib.RewardStreamInfo storage,StakingLib.StakingInfo storage,StakingLib.UserStake[] storage,address,uint256,bytes)": {
        "details": "Users wil be able to unstake only after the lock durationn has pased.The lock duration in the data bytes is required, its the index of the locks array Should be the fist 32 bytes in the bytes array",
        "params": {
          "amount": "the inumber of tokens to be staked",
          "data": "the bytes containig extra information about the staking lock duration index: fist 32 bytes (Number) - Required NFT address: next 20 bytes (address) NFT tokenId: next 32 bytes (Number)"
        }
      },
      "totalGeneratedReward(uint256,uint256,uint256)": {
        "params": {
          "_block": "the current block",
          "historyStartBlock": "the first history block",
          "rewardPerBlock": "the amount of tokens rewarded per block"
        },
        "returns": {
          "_0": "(uint256) number of blocks in history"
        }
      },
      "unstake(RewardStreamerLib.RewardStreamInfo storage,StakingLib.StakingInfo storage,StakingLib.UserStake[] storage,uint256)": {
        "details": "Unstaking tokens is an atomic operationeither all of the tokens in a stake, or none of the tokens.Users can only unstake a single stake at a time, it is must be their oldest active stake. Upon releasing that stake, the tokens will be   transferred back to their account, and their personalStakeIndex will increment to the next active stake.",
        "returns": {
          "_0": "uint256 The number of tokens unstaked"
        }
      },
      "userPoolShare(StakingLib.UserStake[] storage,uint256,uint256)": {
        "params": {
          "totalStakingUnits": "sum of all user stake shares"
        },
        "returns": {
          "_0": "(uint256) the calculater pool share"
        }
      }
    },
    "version": 1
  },
  "userdoc": {
    "kind": "user",
    "methods": {
      "addNftToStake(RewardStreamerLib.RewardStreamInfo storage,StakingLib.StakingInfo storage,StakingLib.UserStake[] storage,uint256,address,uint256)": {
        "notice": "Allows user to stake an nft to an existing stake for extra rewardit MUST revert if the added token has no multiplier"
      },
      "applyPercent(uint256,uint256)": {
        "notice": "Will apply a percentage to a number"
      },
      "claimTickets(address,StakingLib.UserStake storage,address)": {
        "notice": "Mint tickets to the stakerThe amount of tickets depends on the amount of tokens staked and the duration the tokens a locked for."
      },
      "getCurrentPeriodAverageReward(StakingLib.StakingInfo storage,uint256,bool)": {
        "notice": "Calculate the average reward for the current period"
      },
      "getCurrentPeriodLength(StakingLib.StakingInfo storage)": {
        "notice": "Will calculate the current period length"
      },
      "getCurrentPeriodLength(StakingLib.StakingInfo storage,bool)": {
        "notice": "Will calculate the current period length optionaly including the last block"
      },
      "getHistoryAverageForStaker(StakingLib.StakingInfo storage,StakingLib.UserStake[] storage,uint256)": {
        "notice": "Calculate the history average for staker"
      },
      "getHistoryLength(StakingLib.StakingInfo storage)": {
        "notice": "Will calculate the history length in blocks"
      },
      "getHistoryLengthBeforeStakerEntered(StakingLib.StakingInfo storage,StakingLib.UserStake[] storage,uint256)": {
        "notice": "Will calculate and return what the history length was a the moment the stake was created"
      },
      "getLockDuration(StakingLib.StakingInfo storage,bytes)": {
        "notice": "Will get the lock duration from the stake bytes data"
      },
      "getNewHistoryAverageReward(uint256,uint256,uint256,uint256,uint256)": {
        "notice": "Calculates the new History Average Reward"
      },
      "getStakeIndexFromCalldata(bytes)": {
        "notice": "Will parse the stake bytes data to get the stake index"
      },
      "getStakerReward(RewardStreamerLib.RewardStreamInfo storage,StakingLib.StakingInfo storage,StakingLib.UserStake[] storage,uint256)": {
        "notice": "Will calculate and return the total reward user has accumulated till now for a specific stake"
      },
      "getStakerRewardFromCurrentPeriod(RewardStreamerLib.RewardStreamInfo storage,StakingLib.StakingInfo storage,StakingLib.UserStake[] storage,uint256)": {
        "notice": "Calculate the reward from current period"
      },
      "getStakerRewardFromHistory(StakingLib.StakingInfo storage,StakingLib.UserStake[] storage,uint256)": {
        "notice": "Calculate the stake reward from history"
      },
      "getStakerTimeInHistory(StakingLib.StakingInfo storage,StakingLib.UserStake[] storage,uint256)": {
        "notice": "Calculate the staker time in history"
      },
      "getTokenAddressFromCalldata(bytes)": {
        "notice": "Will parse the stake bytes data to get the NFT address"
      },
      "getTokenIdFromCalldata(bytes)": {
        "notice": "Will parse the stake bytes data to get the NFT tokeId"
      },
      "historyRewardPot(uint256,uint256,uint256)": {
        "notice": "Calculate the new history reward pot"
      },
      "parse32BytesToUint256(bytes,uint256)": {
        "notice": "Will parse bytes data to get an uint256"
      },
      "parseBytesToAddress(bytes,uint256)": {
        "notice": "Will parse bytes data to get an address"
      },
      "removeNftFromStake(StakingLib.UserStakedToken storage,address)": {
        "notice": "Remove the preveusly staked NFT from the stake"
      },
      "stake(RewardStreamerLib.RewardStreamInfo storage,StakingLib.StakingInfo storage,StakingLib.UserStake[] storage,address,uint256,bytes)": {
        "notice": "Allows user to stake tokensOptionaly user can stake a NFT token for extra reward"
      },
      "totalGeneratedReward(uint256,uint256,uint256)": {
        "notice": "Calculate the total generated reward for a period"
      },
      "unstake(RewardStreamerLib.RewardStreamInfo storage,StakingLib.StakingInfo storage,StakingLib.UserStake[] storage,uint256)": {
        "notice": "Allows user to unstake the staked tokensThe tokens are allowed to be unstaked only after the lock duration has passedMUST trigger Unstaked event"
      },
      "userPoolShare(StakingLib.UserStake[] storage,uint256,uint256)": {
        "notice": "Calculate the user share in the pool"
      }
    },
    "version": 1
  },
  "storageLayout": {
    "storage": [],
    "types": null
  }
}